{
  "contractName": "CoffeeSupplyChain",
  "abi": [
    {
      "inputs": [
        {
          "internalType": "address",
          "name": "_supplyChainStorage",
          "type": "address"
        }
      ],
      "stateMutability": "nonpayable",
      "type": "constructor"
    },
    {
      "anonymous": false,
      "inputs": [
        {
          "indexed": true,
          "internalType": "address",
          "name": "user",
          "type": "address"
        },
        {
          "indexed": true,
          "internalType": "address",
          "name": "batchNo",
          "type": "address"
        }
      ],
      "name": "DoneAgglomeration",
      "type": "event"
    },
    {
      "anonymous": false,
      "inputs": [
        {
          "indexed": true,
          "internalType": "address",
          "name": "user",
          "type": "address"
        },
        {
          "indexed": true,
          "internalType": "address",
          "name": "batchNo",
          "type": "address"
        }
      ],
      "name": "DoneHarvesting",
      "type": "event"
    },
    {
      "anonymous": false,
      "inputs": [
        {
          "indexed": true,
          "internalType": "address",
          "name": "user",
          "type": "address"
        },
        {
          "indexed": true,
          "internalType": "address",
          "name": "batchNo",
          "type": "address"
        }
      ],
      "name": "DonePackaging",
      "type": "event"
    },
    {
      "anonymous": false,
      "inputs": [
        {
          "indexed": true,
          "internalType": "address",
          "name": "user",
          "type": "address"
        },
        {
          "indexed": true,
          "internalType": "address",
          "name": "batchNo",
          "type": "address"
        }
      ],
      "name": "DoneProcessing",
      "type": "event"
    },
    {
      "anonymous": false,
      "inputs": [
        {
          "indexed": true,
          "internalType": "address",
          "name": "user",
          "type": "address"
        },
        {
          "indexed": true,
          "internalType": "address",
          "name": "batchNo",
          "type": "address"
        }
      ],
      "name": "DoneRetailer",
      "type": "event"
    },
    {
      "anonymous": false,
      "inputs": [
        {
          "indexed": true,
          "internalType": "address",
          "name": "user",
          "type": "address"
        },
        {
          "indexed": true,
          "internalType": "address",
          "name": "batchNo",
          "type": "address"
        }
      ],
      "name": "DoneShippingPacker",
      "type": "event"
    },
    {
      "anonymous": false,
      "inputs": [
        {
          "indexed": true,
          "internalType": "address",
          "name": "user",
          "type": "address"
        },
        {
          "indexed": true,
          "internalType": "address",
          "name": "batchNo",
          "type": "address"
        }
      ],
      "name": "DoneShippingRetailer",
      "type": "event"
    },
    {
      "anonymous": false,
      "inputs": [
        {
          "indexed": true,
          "internalType": "address",
          "name": "previousOwner",
          "type": "address"
        }
      ],
      "name": "OwnershipRenounced",
      "type": "event"
    },
    {
      "anonymous": false,
      "inputs": [
        {
          "indexed": true,
          "internalType": "address",
          "name": "previusOwner",
          "type": "address"
        },
        {
          "indexed": true,
          "internalType": "address",
          "name": "newOwner",
          "type": "address"
        }
      ],
      "name": "OwnershipTransferred",
      "type": "event"
    },
    {
      "anonymous": false,
      "inputs": [
        {
          "indexed": true,
          "internalType": "address",
          "name": "user",
          "type": "address"
        },
        {
          "indexed": true,
          "internalType": "address",
          "name": "batchNo",
          "type": "address"
        }
      ],
      "name": "SetFarmDetails",
      "type": "event"
    },
    {
      "anonymous": false,
      "inputs": [
        {
          "indexed": true,
          "internalType": "address",
          "name": "user",
          "type": "address"
        },
        {
          "indexed": true,
          "internalType": "address",
          "name": "batchNo",
          "type": "address"
        }
      ],
      "name": "SetGrainData",
      "type": "event"
    },
    {
      "inputs": [],
      "name": "owner",
      "outputs": [
        {
          "internalType": "address",
          "name": "",
          "type": "address"
        }
      ],
      "stateMutability": "view",
      "type": "function",
      "constant": true
    },
    {
      "inputs": [],
      "name": "renounceOwnership",
      "outputs": [],
      "stateMutability": "nonpayable",
      "type": "function"
    },
    {
      "inputs": [
        {
          "internalType": "address",
          "name": "newOwner",
          "type": "address"
        }
      ],
      "name": "transferOwnership",
      "outputs": [],
      "stateMutability": "nonpayable",
      "type": "function"
    },
    {
      "inputs": [
        {
          "internalType": "address",
          "name": "_batchNo",
          "type": "address"
        }
      ],
      "name": "getNextAction",
      "outputs": [
        {
          "internalType": "string",
          "name": "action",
          "type": "string"
        }
      ],
      "stateMutability": "nonpayable",
      "type": "function"
    },
    {
      "inputs": [
        {
          "internalType": "address",
          "name": "_batchNo",
          "type": "address"
        }
      ],
      "name": "getFarmDetails",
      "outputs": [
        {
          "internalType": "string",
          "name": "registrationNo",
          "type": "string"
        },
        {
          "internalType": "string",
          "name": "farmName",
          "type": "string"
        },
        {
          "internalType": "string",
          "name": "latitude",
          "type": "string"
        },
        {
          "internalType": "string",
          "name": "longitude",
          "type": "string"
        },
        {
          "internalType": "string",
          "name": "farmAddress",
          "type": "string"
        }
      ],
      "stateMutability": "nonpayable",
      "type": "function"
    },
    {
      "inputs": [
        {
          "internalType": "string",
          "name": "_registrationNo",
          "type": "string"
        },
        {
          "internalType": "string",
          "name": "_farmName",
          "type": "string"
        },
        {
          "internalType": "string",
          "name": "_latitude",
          "type": "string"
        },
        {
          "internalType": "string",
          "name": "_longitude",
          "type": "string"
        },
        {
          "internalType": "string",
          "name": "_farmAddress",
          "type": "string"
        }
      ],
      "name": "addFarmDetails",
      "outputs": [
        {
          "internalType": "address",
          "name": "",
          "type": "address"
        }
      ],
      "stateMutability": "nonpayable",
      "type": "function"
    },
    {
      "inputs": [
        {
          "internalType": "address",
          "name": "_batchNo",
          "type": "address"
        },
        {
          "internalType": "string",
          "name": "_coffeeFamily",
          "type": "string"
        },
        {
          "internalType": "string",
          "name": "_typeOfSeed",
          "type": "string"
        },
        {
          "internalType": "string",
          "name": "_fertilizerUsed",
          "type": "string"
        },
        {
          "internalType": "string",
          "name": "_harvestDate",
          "type": "string"
        }
      ],
      "name": "addHarvestData",
      "outputs": [
        {
          "internalType": "bool",
          "name": "",
          "type": "bool"
        }
      ],
      "stateMutability": "nonpayable",
      "type": "function"
    },
    {
      "inputs": [
        {
          "internalType": "address",
          "name": "_batchNo",
          "type": "address"
        }
      ],
      "name": "getHarvestData",
      "outputs": [
        {
          "internalType": "string",
          "name": "coffeeFamily",
          "type": "string"
        },
        {
          "internalType": "string",
          "name": "typeOfSeed",
          "type": "string"
        },
        {
          "internalType": "string",
          "name": "fertilizerUsed",
          "type": "string"
        },
        {
          "internalType": "string",
          "name": "harvestDate",
          "type": "string"
        }
      ],
      "stateMutability": "nonpayable",
      "type": "function"
    },
    {
      "inputs": [
        {
          "internalType": "address",
          "name": "_batchNo",
          "type": "address"
        },
        {
          "internalType": "string",
          "name": "_procAddress",
          "type": "string"
        },
        {
          "internalType": "string",
          "name": "_typeOfDrying",
          "type": "string"
        },
        {
          "internalType": "string",
          "name": "_roastImageHash",
          "type": "string"
        },
        {
          "internalType": "string",
          "name": "_roastTemp",
          "type": "string"
        },
        {
          "internalType": "string",
          "name": "_typeOfRoast",
          "type": "string"
        },
        {
          "internalType": "string",
          "name": "_roastDate",
          "type": "string"
        },
        {
          "internalType": "string",
          "name": "_millDate",
          "type": "string"
        },
        {
          "internalType": "uint256",
          "name": "_processorPrice",
          "type": "uint256"
        }
      ],
      "name": "addProcessData",
      "outputs": [
        {
          "internalType": "bool",
          "name": "",
          "type": "bool"
        }
      ],
      "stateMutability": "nonpayable",
      "type": "function"
    },
    {
      "inputs": [
        {
          "internalType": "address",
          "name": "_batchNo",
          "type": "address"
        }
      ],
      "name": "getProcessData",
      "outputs": [
        {
          "internalType": "string",
          "name": "procAddress",
          "type": "string"
        },
        {
          "internalType": "string",
          "name": "typeOfDrying",
          "type": "string"
        },
        {
          "internalType": "string",
          "name": "roastImageHash",
          "type": "string"
        },
        {
          "internalType": "string",
          "name": "roastTemp",
          "type": "string"
        },
        {
          "internalType": "string",
          "name": "typeOfRoast",
          "type": "string"
        },
        {
          "internalType": "string",
          "name": "roastDate",
          "type": "string"
        },
        {
          "internalType": "string",
          "name": "millDate",
          "type": "string"
        },
        {
          "internalType": "uint256",
          "name": "processorPrice",
          "type": "uint256"
        }
      ],
      "stateMutability": "nonpayable",
      "type": "function"
    },
    {
      "inputs": [
        {
          "internalType": "address",
          "name": "_batchNo",
          "type": "address"
        },
        {
          "internalType": "uint256",
          "name": "_tasteScore",
          "type": "uint256"
        },
        {
          "internalType": "uint256",
          "name": "_grainPrice",
          "type": "uint256"
        }
      ],
      "name": "addGrainData",
      "outputs": [
        {
          "internalType": "bool",
          "name": "",
          "type": "bool"
        }
      ],
      "stateMutability": "nonpayable",
      "type": "function"
    },
    {
      "inputs": [
        {
          "internalType": "address",
          "name": "_batchNo",
          "type": "address"
        }
      ],
      "name": "getGrainData",
      "outputs": [
        {
          "internalType": "uint256",
          "name": "tasteScore",
          "type": "uint256"
        },
        {
          "internalType": "uint256",
          "name": "grainPrice",
          "type": "uint256"
        }
      ],
      "stateMutability": "nonpayable",
      "type": "function"
    },
    {
      "inputs": [
        {
          "internalType": "address",
          "name": "_batchNo",
          "type": "address"
        },
        {
          "internalType": "string",
          "name": "_agglomAddress",
          "type": "string"
        },
        {
          "internalType": "string",
          "name": "_agglomDate",
          "type": "string"
        },
        {
          "internalType": "uint256",
          "name": "_storagePrice",
          "type": "uint256"
        }
      ],
      "name": "addAgglomData",
      "outputs": [
        {
          "internalType": "bool",
          "name": "",
          "type": "bool"
        }
      ],
      "stateMutability": "nonpayable",
      "type": "function"
    },
    {
      "inputs": [
        {
          "internalType": "address",
          "name": "_batchNo",
          "type": "address"
        }
      ],
      "name": "getAgglomData",
      "outputs": [
        {
          "internalType": "string",
          "name": "agglomAddress",
          "type": "string"
        },
        {
          "internalType": "string",
          "name": "agglomDate",
          "type": "string"
        },
        {
          "internalType": "uint256",
          "name": "storagePrice",
          "type": "uint256"
        }
      ],
      "stateMutability": "nonpayable",
      "type": "function"
    },
    {
      "inputs": [
        {
          "internalType": "address",
          "name": "_batchNo",
          "type": "address"
        },
        {
          "internalType": "string",
          "name": "_transportTypeP",
          "type": "string"
        },
        {
          "internalType": "string",
          "name": "_pickupDateP",
          "type": "string"
        },
        {
          "internalType": "uint256",
          "name": "_shipPriceP",
          "type": "uint256"
        }
      ],
      "name": "addShipPackerData",
      "outputs": [
        {
          "internalType": "bool",
          "name": "",
          "type": "bool"
        }
      ],
      "stateMutability": "nonpayable",
      "type": "function"
    },
    {
      "inputs": [
        {
          "internalType": "address",
          "name": "_batchNo",
          "type": "address"
        }
      ],
      "name": "getShipPackerData",
      "outputs": [
        {
          "internalType": "string",
          "name": "transportTypeP",
          "type": "string"
        },
        {
          "internalType": "string",
          "name": "pickupDateP",
          "type": "string"
        },
        {
          "internalType": "uint256",
          "name": "shipPriceP",
          "type": "uint256"
        }
      ],
      "stateMutability": "nonpayable",
      "type": "function"
    },
    {
      "inputs": [
        {
          "internalType": "address",
          "name": "_batchNo",
          "type": "address"
        },
        {
          "internalType": "string",
          "name": "_packAddress",
          "type": "string"
        },
        {
          "internalType": "string",
          "name": "_arrivalDateP",
          "type": "string"
        },
        {
          "internalType": "string",
          "name": "_packDate",
          "type": "string"
        },
        {
          "internalType": "uint256",
          "name": "_packPrice",
          "type": "uint256"
        }
      ],
      "name": "addPackData",
      "outputs": [
        {
          "internalType": "bool",
          "name": "",
          "type": "bool"
        }
      ],
      "stateMutability": "nonpayable",
      "type": "function"
    },
    {
      "inputs": [
        {
          "internalType": "address",
          "name": "_batchNo",
          "type": "address"
        }
      ],
      "name": "getPackData",
      "outputs": [
        {
          "internalType": "string",
          "name": "packAddress",
          "type": "string"
        },
        {
          "internalType": "string",
          "name": "arrivalDateP",
          "type": "string"
        },
        {
          "internalType": "string",
          "name": "packDate",
          "type": "string"
        },
        {
          "internalType": "uint256",
          "name": "packPrice",
          "type": "uint256"
        }
      ],
      "stateMutability": "nonpayable",
      "type": "function"
    },
    {
      "inputs": [
        {
          "internalType": "address",
          "name": "_batchNo",
          "type": "address"
        },
        {
          "internalType": "string",
          "name": "_transportTypeR",
          "type": "string"
        },
        {
          "internalType": "string",
          "name": "_pickupDateR",
          "type": "string"
        },
        {
          "internalType": "uint256",
          "name": "_shipPriceR",
          "type": "uint256"
        }
      ],
      "name": "addShipRetailerData",
      "outputs": [
        {
          "internalType": "bool",
          "name": "",
          "type": "bool"
        }
      ],
      "stateMutability": "nonpayable",
      "type": "function"
    },
    {
      "inputs": [
        {
          "internalType": "address",
          "name": "_batchNo",
          "type": "address"
        }
      ],
      "name": "getShipRetailerData",
      "outputs": [
        {
          "internalType": "string",
          "name": "transportTypeR",
          "type": "string"
        },
        {
          "internalType": "string",
          "name": "pickupDateR",
          "type": "string"
        },
        {
          "internalType": "uint256",
          "name": "shipPriceR",
          "type": "uint256"
        }
      ],
      "stateMutability": "nonpayable",
      "type": "function"
    },
    {
      "inputs": [
        {
          "internalType": "address",
          "name": "_batchNo",
          "type": "address"
        },
        {
          "internalType": "string",
          "name": "_arrivalDateW",
          "type": "string"
        },
        {
          "internalType": "string",
          "name": "_arrivalDateSP",
          "type": "string"
        },
        {
          "internalType": "string",
          "name": "_warehouseName",
          "type": "string"
        },
        {
          "internalType": "string",
          "name": "_warehouseAddress",
          "type": "string"
        },
        {
          "internalType": "string",
          "name": "_salePointAddress",
          "type": "string"
        },
        {
          "internalType": "uint256",
          "name": "_shipPriceSP",
          "type": "uint256"
        },
        {
          "internalType": "uint256",
          "name": "_productPrice",
          "type": "uint256"
        }
      ],
      "name": "addRetailerData",
      "outputs": [
        {
          "internalType": "bool",
          "name": "",
          "type": "bool"
        }
      ],
      "stateMutability": "nonpayable",
      "type": "function"
    },
    {
      "inputs": [
        {
          "internalType": "address",
          "name": "_batchNo",
          "type": "address"
        }
      ],
      "name": "getRetailerData",
      "outputs": [
        {
          "internalType": "string",
          "name": "arrivalDateW",
          "type": "string"
        },
        {
          "internalType": "string",
          "name": "arrivalDateSP",
          "type": "string"
        },
        {
          "internalType": "string",
          "name": "warehouseName",
          "type": "string"
        },
        {
          "internalType": "string",
          "name": "warehouseAddress",
          "type": "string"
        },
        {
          "internalType": "string",
          "name": "salePointAddress",
          "type": "string"
        },
        {
          "internalType": "uint256",
          "name": "shipPriceSP",
          "type": "uint256"
        },
        {
          "internalType": "uint256",
          "name": "productPrice",
          "type": "uint256"
        }
      ],
      "stateMutability": "nonpayable",
      "type": "function"
    }
  ],
  "bytecode": "0x60806040523480156200001157600080fd5b506040516200456b3803806200456b8339818101604052810190620000379190620000d6565b336000806101000a81548173ffffffffffffffffffffffffffffffffffffffff021916908373ffffffffffffffffffffffffffffffffffffffff16021790555080600160006101000a81548173ffffffffffffffffffffffffffffffffffffffff021916908373ffffffffffffffffffffffffffffffffffffffff160217905550506200015b565b600081519050620000d08162000141565b92915050565b600060208284031215620000ef57620000ee6200013c565b5b6000620000ff84828501620000bf565b91505092915050565b600062000115826200011c565b9050919050565b600073ffffffffffffffffffffffffffffffffffffffff82169050919050565b600080fd5b6200014c8162000108565b81146200015857600080fd5b50565b614400806200016b6000396000f3fe608060405234801561001057600080fd5b50600436106101415760003560e01c8063715018a6116100b8578063c0d46aad1161007c578063c0d46aad14610426578063d5bd01fb14610456578063db664c9814610486578063f0804da6146104b6578063f2fde38b146104e8578063fb779ea51461050457610141565b8063715018a61461036b57806382a591f7146103755780638da5cb5b146103a55780639045499f146103c3578063bc8df35a146103f557610141565b8063199351bb1161010a578063199351bb146102365780632b65dacc1461026857806331016cb31461029b5780634d6b5e00146102ce5780636a7352d5146102fe578063702a57581461033457610141565b80628b14c31461014657806302ace41b1461017657806305645808146101a657806309fa8070146101d657806314b5fd6514610206575b600080fd5b610160600480360381019061015b91906132d8565b610538565b60405161016d9190613edc565b60405180910390f35b610190600480360381019061018b91906132d8565b6108a2565b60405161019d9190613edc565b60405180910390f35b6101c060048036038101906101bb9190613377565b610c0c565b6040516101cd9190613edc565b60405180910390f35b6101f060048036038101906101eb9190612f39565b610f73565b6040516101fd9190613edc565b60405180910390f35b610220600480360381019061021b9190613209565b6112ec565b60405161022d9190613edc565b60405180910390f35b610250600480360381019061024b9190612df4565b611659565b60405161025f9392919061418b565b60405180910390f35b610282600480360381019061027d9190612df4565b611723565b6040516102929493929190614131565b60405180910390f35b6102b560048036038101906102b09190612df4565b6117f3565b6040516102c59493929190613f19565b60405180910390f35b6102e860048036038101906102e39190612df4565b6118c2565b6040516102f59190613ef7565b60405180910390f35b61031860048036038101906103139190612df4565b61197d565b60405161032b979695949392919061409f565b60405180910390f35b61034e60048036038101906103499190612df4565b611a61565b604051610362989796959493929190613ff0565b60405180910390f35b610373611b4b565b005b61038f600480360381019061038a9190612e4e565b611c49565b60405161039c9190613edc565b60405180910390f35b6103ad611fb6565b6040516103ba9190613c01565b60405180910390f35b6103dd60048036038101906103d89190612df4565b611fda565b6040516103ec9392919061418b565b60405180910390f35b61040f600480360381019061040a9190612df4565b6120a4565b60405161041d9291906141d0565b60405180910390f35b610440600480360381019061043b91906132d8565b612160565b60405161044d9190613edc565b60405180910390f35b610470600480360381019061046b91906130c7565b6124ca565b60405161047d9190613edc565b60405180910390f35b6104a0600480360381019061049b9190613517565b612840565b6040516104ad9190613c01565b60405180910390f35b6104d060048036038101906104cb9190612df4565b6129bb565b6040516104df9392919061418b565b60405180910390f35b61050260048036038101906104fd9190612df4565b612a85565b005b61051e60048036038101906105199190612df4565b612bd4565b60405161052f959493929190613f7a565b60405180910390f35b6000846040518060400160405280601081526020017f534849505045525f52455441494c455200000000000000000000000000000000815250806040516020016105829190613bea565b60405160208183030381529060405280519060200120600160009054906101000a900473ffffffffffffffffffffffffffffffffffffffff1673ffffffffffffffffffffffffffffffffffffffff166327820851336040518263ffffffff1660e01b81526004016105f39190613c01565b600060405180830381600087803b15801561060d57600080fd5b505af1158015610621573d6000803e3d6000fd5b505050506040513d6000823e3d601f19601f8201168201806040525081019061064a91906133f7565b60405160200161065a9190613bea565b604051602081830303815290604052805190602001201461067a57600080fd5b8060405160200161068b9190613bea565b60405160208183030381529060405280519060200120600160009054906101000a900473ffffffffffffffffffffffffffffffffffffffff1673ffffffffffffffffffffffffffffffffffffffff16634d6b5e00846040518263ffffffff1660e01b81526004016106fc9190613c01565b600060405180830381600087803b15801561071657600080fd5b505af115801561072a573d6000803e3d6000fd5b505050506040513d6000823e3d601f19601f8201168201806040525081019061075391906133f7565b6040516020016107639190613bea565b604051602081830303815290604052805190602001201461078357600080fd5b6000600160009054906101000a900473ffffffffffffffffffffffffffffffffffffffff1673ffffffffffffffffffffffffffffffffffffffff166313fa3313898989896040518563ffffffff1660e01b81526004016107e69493929190613e52565b602060405180830381600087803b15801561080057600080fd5b505af1158015610814573d6000803e3d6000fd5b505050506040513d601f19601f8201168201806040525081019061083891906133ca565b90508773ffffffffffffffffffffffffffffffffffffffff163373ffffffffffffffffffffffffffffffffffffffff167f16acb4cca65eb12e3cc5306a1dcf8ae1bc790312697c2fc5e52c3543bee95b0d60405160405180910390a3809350505050949350505050565b6000846040518060400160405280600c81526020017f4147474c4f4d455241544f520000000000000000000000000000000000000000815250806040516020016108ec9190613bea565b60405160208183030381529060405280519060200120600160009054906101000a900473ffffffffffffffffffffffffffffffffffffffff1673ffffffffffffffffffffffffffffffffffffffff166327820851336040518263ffffffff1660e01b815260040161095d9190613c01565b600060405180830381600087803b15801561097757600080fd5b505af115801561098b573d6000803e3d6000fd5b505050506040513d6000823e3d601f19601f820116820180604052508101906109b491906133f7565b6040516020016109c49190613bea565b60405160208183030381529060405280519060200120146109e457600080fd5b806040516020016109f59190613bea565b60405160208183030381529060405280519060200120600160009054906101000a900473ffffffffffffffffffffffffffffffffffffffff1673ffffffffffffffffffffffffffffffffffffffff16634d6b5e00846040518263ffffffff1660e01b8152600401610a669190613c01565b600060405180830381600087803b158015610a8057600080fd5b505af1158015610a94573d6000803e3d6000fd5b505050506040513d6000823e3d601f19601f82011682018060405250810190610abd91906133f7565b604051602001610acd9190613bea565b6040516020818303038152906040528051906020012014610aed57600080fd5b6000600160009054906101000a900473ffffffffffffffffffffffffffffffffffffffff1673ffffffffffffffffffffffffffffffffffffffff1663e7b58fb6898989896040518563ffffffff1660e01b8152600401610b509493929190613e52565b602060405180830381600087803b158015610b6a57600080fd5b505af1158015610b7e573d6000803e3d6000fd5b505050506040513d601f19601f82011682018060405250810190610ba291906133ca565b90508773ffffffffffffffffffffffffffffffffffffffff163373ffffffffffffffffffffffffffffffffffffffff167f9c860ebb08240ca06107f1cd940fc59e3c23a75900822a60ce3ed107d3522d5360405160405180910390a3809350505050949350505050565b6000836040518060400160405280600f81526020017f475241494e5f494e53504543544f52000000000000000000000000000000000081525080604051602001610c569190613bea565b60405160208183030381529060405280519060200120600160009054906101000a900473ffffffffffffffffffffffffffffffffffffffff1673ffffffffffffffffffffffffffffffffffffffff166327820851336040518263ffffffff1660e01b8152600401610cc79190613c01565b600060405180830381600087803b158015610ce157600080fd5b505af1158015610cf5573d6000803e3d6000fd5b505050506040513d6000823e3d601f19601f82011682018060405250810190610d1e91906133f7565b604051602001610d2e9190613bea565b6040516020818303038152906040528051906020012014610d4e57600080fd5b80604051602001610d5f9190613bea565b60405160208183030381529060405280519060200120600160009054906101000a900473ffffffffffffffffffffffffffffffffffffffff1673ffffffffffffffffffffffffffffffffffffffff16634d6b5e00846040518263ffffffff1660e01b8152600401610dd09190613c01565b600060405180830381600087803b158015610dea57600080fd5b505af1158015610dfe573d6000803e3d6000fd5b505050506040513d6000823e3d601f19601f82011682018060405250810190610e2791906133f7565b604051602001610e379190613bea565b6040516020818303038152906040528051906020012014610e5757600080fd5b6000600160009054906101000a900473ffffffffffffffffffffffffffffffffffffffff1673ffffffffffffffffffffffffffffffffffffffff1663326ebc038888886040518463ffffffff1660e01b8152600401610eb893929190613ea5565b602060405180830381600087803b158015610ed257600080fd5b505af1158015610ee6573d6000803e3d6000fd5b505050506040513d601f19601f82011682018060405250810190610f0a91906133ca565b90508673ffffffffffffffffffffffffffffffffffffffff163373ffffffffffffffffffffffffffffffffffffffff167f74fd88ae9a6404dcf86858da4a430b5b3362ae9f8d646bb2532dfccab1c6633260405160405180910390a38093505050509392505050565b6000896040518060400160405280600981526020017f50524f434553534f52000000000000000000000000000000000000000000000081525080604051602001610fbd9190613bea565b60405160208183030381529060405280519060200120600160009054906101000a900473ffffffffffffffffffffffffffffffffffffffff1673ffffffffffffffffffffffffffffffffffffffff166327820851336040518263ffffffff1660e01b815260040161102e9190613c01565b600060405180830381600087803b15801561104857600080fd5b505af115801561105c573d6000803e3d6000fd5b505050506040513d6000823e3d601f19601f8201168201806040525081019061108591906133f7565b6040516020016110959190613bea565b60405160208183030381529060405280519060200120146110b557600080fd5b806040516020016110c69190613bea565b60405160208183030381529060405280519060200120600160009054906101000a900473ffffffffffffffffffffffffffffffffffffffff1673ffffffffffffffffffffffffffffffffffffffff16634d6b5e00846040518263ffffffff1660e01b81526004016111379190613c01565b600060405180830381600087803b15801561115157600080fd5b505af1158015611165573d6000803e3d6000fd5b505050506040513d6000823e3d601f19601f8201168201806040525081019061118e91906133f7565b60405160200161119e9190613bea565b60405160208183030381529060405280519060200120146111be57600080fd5b6000600160009054906101000a900473ffffffffffffffffffffffffffffffffffffffff1673ffffffffffffffffffffffffffffffffffffffff16636ea97cea8e8e8e8e8e8e8e8e8e6040518a63ffffffff1660e01b815260040161122b99989796959493929190613c8b565b602060405180830381600087803b15801561124557600080fd5b505af1158015611259573d6000803e3d6000fd5b505050506040513d601f19601f8201168201806040525081019061127d91906133ca565b90508c73ffffffffffffffffffffffffffffffffffffffff163373ffffffffffffffffffffffffffffffffffffffff167fe10398ac963823ae3dc8fc855773d4c9c3d53c5aca656e360a2a5c2ae659f26160405160405180910390a38093505050509998505050505050505050565b6000856040518060400160405280600681526020017f5041434b45520000000000000000000000000000000000000000000000000000815250806040516020016113369190613bea565b60405160208183030381529060405280519060200120600160009054906101000a900473ffffffffffffffffffffffffffffffffffffffff1673ffffffffffffffffffffffffffffffffffffffff166327820851336040518263ffffffff1660e01b81526004016113a79190613c01565b600060405180830381600087803b1580156113c157600080fd5b505af11580156113d5573d6000803e3d6000fd5b505050506040513d6000823e3d601f19601f820116820180604052508101906113fe91906133f7565b60405160200161140e9190613bea565b604051602081830303815290604052805190602001201461142e57600080fd5b8060405160200161143f9190613bea565b60405160208183030381529060405280519060200120600160009054906101000a900473ffffffffffffffffffffffffffffffffffffffff1673ffffffffffffffffffffffffffffffffffffffff16634d6b5e00846040518263ffffffff1660e01b81526004016114b09190613c01565b600060405180830381600087803b1580156114ca57600080fd5b505af11580156114de573d6000803e3d6000fd5b505050506040513d6000823e3d601f19601f8201168201806040525081019061150791906133f7565b6040516020016115179190613bea565b604051602081830303815290604052805190602001201461153757600080fd5b6000600160009054906101000a900473ffffffffffffffffffffffffffffffffffffffff1673ffffffffffffffffffffffffffffffffffffffff166344ccaa2a8a8a8a8a8a6040518663ffffffff1660e01b815260040161159c959493929190613dea565b602060405180830381600087803b1580156115b657600080fd5b505af11580156115ca573d6000803e3d6000fd5b505050506040513d601f19601f820116820180604052508101906115ee91906133ca565b90508873ffffffffffffffffffffffffffffffffffffffff163373ffffffffffffffffffffffffffffffffffffffff167fd890838d97c86c0a57334d24ec4931d0f2cac80e50456962416c4efabccbd3bc60405160405180910390a380935050505095945050505050565b6060806000600160009054906101000a900473ffffffffffffffffffffffffffffffffffffffff1673ffffffffffffffffffffffffffffffffffffffff1663199351bb856040518263ffffffff1660e01b81526004016116b99190613c01565b600060405180830381600087803b1580156116d357600080fd5b505af11580156116e7573d6000803e3d6000fd5b505050506040513d6000823e3d601f19601f820116820180604052508101906117109190613a88565b8093508194508295505050509193909250565b60608060606000600160009054906101000a900473ffffffffffffffffffffffffffffffffffffffff1673ffffffffffffffffffffffffffffffffffffffff16632b65dacc866040518263ffffffff1660e01b81526004016117859190613c01565b600060405180830381600087803b15801561179f57600080fd5b505af11580156117b3573d6000803e3d6000fd5b505050506040513d6000823e3d601f19601f820116820180604052508101906117dc91906139cd565b809450819550829650839750505050509193509193565b606080606080600160009054906101000a900473ffffffffffffffffffffffffffffffffffffffff1673ffffffffffffffffffffffffffffffffffffffff166331016cb3866040518263ffffffff1660e01b81526004016118549190613c01565b600060405180830381600087803b15801561186e57600080fd5b505af1158015611882573d6000803e3d6000fd5b505050506040513d6000823e3d601f19601f820116820180604052508101906118ab9190613440565b809450819550829650839750505050509193509193565b6060600160009054906101000a900473ffffffffffffffffffffffffffffffffffffffff1673ffffffffffffffffffffffffffffffffffffffff16634d6b5e00836040518263ffffffff1660e01b815260040161191f9190613c01565b600060405180830381600087803b15801561193957600080fd5b505af115801561194d573d6000803e3d6000fd5b505050506040513d6000823e3d601f19601f8201168201806040525081019061197691906133f7565b9050919050565b6060806060806060600080600160009054906101000a900473ffffffffffffffffffffffffffffffffffffffff1673ffffffffffffffffffffffffffffffffffffffff16636a7352d5896040518263ffffffff1660e01b81526004016119e39190613c01565b600060405180830381600087803b1580156119fd57600080fd5b505af1158015611a11573d6000803e3d6000fd5b505050506040513d6000823e3d601f19601f82011682018060405250810190611a3a919061389f565b809750819850829950839a50849b50859c50869d5050505050505050919395979092949650565b60608060608060608060606000600160009054906101000a900473ffffffffffffffffffffffffffffffffffffffff1673ffffffffffffffffffffffffffffffffffffffff1663702a57588a6040518263ffffffff1660e01b8152600401611ac99190613c01565b600060405180830381600087803b158015611ae357600080fd5b505af1158015611af7573d6000803e3d6000fd5b505050506040513d6000823e3d601f19601f82011682018060405250810190611b209190613725565b809850819950829a50839b50849c50859d50869e50879f505050505050505050919395975091939597565b60008054906101000a900473ffffffffffffffffffffffffffffffffffffffff1673ffffffffffffffffffffffffffffffffffffffff163373ffffffffffffffffffffffffffffffffffffffff1614611ba357600080fd5b60008054906101000a900473ffffffffffffffffffffffffffffffffffffffff1673ffffffffffffffffffffffffffffffffffffffff167ff8df31144d9c2f0f6b59d69b8b98abd5459d07f2742c4df920b25aae33c6482060405160405180910390a260008060006101000a81548173ffffffffffffffffffffffffffffffffffffffff021916908373ffffffffffffffffffffffffffffffffffffffff160217905550565b6000856040518060400160405280600681526020017f4641524d4552000000000000000000000000000000000000000000000000000081525080604051602001611c939190613bea565b60405160208183030381529060405280519060200120600160009054906101000a900473ffffffffffffffffffffffffffffffffffffffff1673ffffffffffffffffffffffffffffffffffffffff166327820851336040518263ffffffff1660e01b8152600401611d049190613c01565b600060405180830381600087803b158015611d1e57600080fd5b505af1158015611d32573d6000803e3d6000fd5b505050506040513d6000823e3d601f19601f82011682018060405250810190611d5b91906133f7565b604051602001611d6b9190613bea565b6040516020818303038152906040528051906020012014611d8b57600080fd5b80604051602001611d9c9190613bea565b60405160208183030381529060405280519060200120600160009054906101000a900473ffffffffffffffffffffffffffffffffffffffff1673ffffffffffffffffffffffffffffffffffffffff16634d6b5e00846040518263ffffffff1660e01b8152600401611e0d9190613c01565b600060405180830381600087803b158015611e2757600080fd5b505af1158015611e3b573d6000803e3d6000fd5b505050506040513d6000823e3d601f19601f82011682018060405250810190611e6491906133f7565b604051602001611e749190613bea565b6040516020818303038152906040528051906020012014611e9457600080fd5b6000600160009054906101000a900473ffffffffffffffffffffffffffffffffffffffff1673ffffffffffffffffffffffffffffffffffffffff16632937e51d8a8a8a8a8a6040518663ffffffff1660e01b8152600401611ef9959493929190613c1c565b602060405180830381600087803b158015611f1357600080fd5b505af1158015611f27573d6000803e3d6000fd5b505050506040513d601f19601f82011682018060405250810190611f4b91906133ca565b90508873ffffffffffffffffffffffffffffffffffffffff163373ffffffffffffffffffffffffffffffffffffffff167fbb868668319b351e6f49e0d6ed1618eda15ffe73f6f6f371e419b8d3963a6be560405160405180910390a380935050505095945050505050565b60008054906101000a900473ffffffffffffffffffffffffffffffffffffffff1681565b6060806000600160009054906101000a900473ffffffffffffffffffffffffffffffffffffffff1673ffffffffffffffffffffffffffffffffffffffff16639045499f856040518263ffffffff1660e01b815260040161203a9190613c01565b600060405180830381600087803b15801561205457600080fd5b505af1158015612068573d6000803e3d6000fd5b505050506040513d6000823e3d601f19601f820116820180604052508101906120919190613a88565b8093508194508295505050509193909250565b600080600160009054906101000a900473ffffffffffffffffffffffffffffffffffffffff1673ffffffffffffffffffffffffffffffffffffffff1663bc8df35a846040518263ffffffff1660e01b81526004016121029190613c01565b6040805180830381600087803b15801561211b57600080fd5b505af115801561212f573d6000803e3d6000fd5b505050506040513d601f19601f820116820180604052508101906121539190613b13565b8092508193505050915091565b6000846040518060400160405280600e81526020017f534849505045525f5041434b4552000000000000000000000000000000000000815250806040516020016121aa9190613bea565b60405160208183030381529060405280519060200120600160009054906101000a900473ffffffffffffffffffffffffffffffffffffffff1673ffffffffffffffffffffffffffffffffffffffff166327820851336040518263ffffffff1660e01b815260040161221b9190613c01565b600060405180830381600087803b15801561223557600080fd5b505af1158015612249573d6000803e3d6000fd5b505050506040513d6000823e3d601f19601f8201168201806040525081019061227291906133f7565b6040516020016122829190613bea565b60405160208183030381529060405280519060200120146122a257600080fd5b806040516020016122b39190613bea565b60405160208183030381529060405280519060200120600160009054906101000a900473ffffffffffffffffffffffffffffffffffffffff1673ffffffffffffffffffffffffffffffffffffffff16634d6b5e00846040518263ffffffff1660e01b81526004016123249190613c01565b600060405180830381600087803b15801561233e57600080fd5b505af1158015612352573d6000803e3d6000fd5b505050506040513d6000823e3d601f19601f8201168201806040525081019061237b91906133f7565b60405160200161238b9190613bea565b60405160208183030381529060405280519060200120146123ab57600080fd5b6000600160009054906101000a900473ffffffffffffffffffffffffffffffffffffffff1673ffffffffffffffffffffffffffffffffffffffff16631a6760f5898989896040518563ffffffff1660e01b815260040161240e9493929190613e52565b602060405180830381600087803b15801561242857600080fd5b505af115801561243c573d6000803e3d6000fd5b505050506040513d601f19601f8201168201806040525081019061246091906133ca565b90508773ffffffffffffffffffffffffffffffffffffffff163373ffffffffffffffffffffffffffffffffffffffff167fdb60ad50700f49f79fb6147615e9cab059cecf3d1e347c55a5febeaba665ca9760405160405180910390a3809350505050949350505050565b6000886040518060400160405280600881526020017f52455441494c4552000000000000000000000000000000000000000000000000815250806040516020016125149190613bea565b60405160208183030381529060405280519060200120600160009054906101000a900473ffffffffffffffffffffffffffffffffffffffff1673ffffffffffffffffffffffffffffffffffffffff166327820851336040518263ffffffff1660e01b81526004016125859190613c01565b600060405180830381600087803b15801561259f57600080fd5b505af11580156125b3573d6000803e3d6000fd5b505050506040513d6000823e3d601f19601f820116820180604052508101906125dc91906133f7565b6040516020016125ec9190613bea565b604051602081830303815290604052805190602001201461260c57600080fd5b8060405160200161261d9190613bea565b60405160208183030381529060405280519060200120600160009054906101000a900473ffffffffffffffffffffffffffffffffffffffff1673ffffffffffffffffffffffffffffffffffffffff16634d6b5e00846040518263ffffffff1660e01b815260040161268e9190613c01565b600060405180830381600087803b1580156126a857600080fd5b505af11580156126bc573d6000803e3d6000fd5b505050506040513d6000823e3d601f19601f820116820180604052508101906126e591906133f7565b6040516020016126f59190613bea565b604051602081830303815290604052805190602001201461271557600080fd5b6000600160009054906101000a900473ffffffffffffffffffffffffffffffffffffffff1673ffffffffffffffffffffffffffffffffffffffff166356a86bb28d8d8d8d8d8d8d8d6040518963ffffffff1660e01b8152600401612780989796959493929190613d49565b602060405180830381600087803b15801561279a57600080fd5b505af11580156127ae573d6000803e3d6000fd5b505050506040513d601f19601f820116820180604052508101906127d291906133ca565b90508b73ffffffffffffffffffffffffffffffffffffffff163373ffffffffffffffffffffffffffffffffffffffff167f7776ae9d9087bfb3c17546ebefe0797f4554c225bc602d638a4d6d092a51899b60405160405180910390a380935050505098975050505050505050565b60008060009054906101000a900473ffffffffffffffffffffffffffffffffffffffff1673ffffffffffffffffffffffffffffffffffffffff163373ffffffffffffffffffffffffffffffffffffffff161461289b57600080fd5b6000600160009054906101000a900473ffffffffffffffffffffffffffffffffffffffff1673ffffffffffffffffffffffffffffffffffffffff16631dc6616388888888886040518663ffffffff1660e01b8152600401612900959493929190613f7a565b602060405180830381600087803b15801561291a57600080fd5b505af115801561292e573d6000803e3d6000fd5b505050506040513d601f19601f820116820180604052508101906129529190612e21565b90508073ffffffffffffffffffffffffffffffffffffffff163373ffffffffffffffffffffffffffffffffffffffff167fd29ff11b0fb95d403bf3a6ffdaf679ae2238ff21fa6a33b5e20a8418c2038fa860405160405180910390a38091505095945050505050565b6060806000600160009054906101000a900473ffffffffffffffffffffffffffffffffffffffff1673ffffffffffffffffffffffffffffffffffffffff1663f0804da6856040518263ffffffff1660e01b8152600401612a1b9190613c01565b600060405180830381600087803b158015612a3557600080fd5b505af1158015612a49573d6000803e3d6000fd5b505050506040513d6000823e3d601f19601f82011682018060405250810190612a729190613a88565b8093508194508295505050509193909250565b60008054906101000a900473ffffffffffffffffffffffffffffffffffffffff1673ffffffffffffffffffffffffffffffffffffffff163373ffffffffffffffffffffffffffffffffffffffff1614612add57600080fd5b600073ffffffffffffffffffffffffffffffffffffffff168173ffffffffffffffffffffffffffffffffffffffff161415612b1757600080fd5b8073ffffffffffffffffffffffffffffffffffffffff1660008054906101000a900473ffffffffffffffffffffffffffffffffffffffff1673ffffffffffffffffffffffffffffffffffffffff167f8be0079c531659141344cd1fd0a4f28419497f9722a3daafe3b4186f6b6457e060405160405180910390a3806000806101000a81548173ffffffffffffffffffffffffffffffffffffffff021916908373ffffffffffffffffffffffffffffffffffffffff16021790555050565b6060806060806060600160009054906101000a900473ffffffffffffffffffffffffffffffffffffffff1673ffffffffffffffffffffffffffffffffffffffff1663fb779ea5876040518263ffffffff1660e01b8152600401612c379190613c01565b600060405180830381600087803b158015612c5157600080fd5b505af1158015612c65573d6000803e3d6000fd5b505050506040513d6000823e3d601f19601f82011682018060405250810190612c8e919061361e565b809550819650829750839850849950505050505091939590929450565b6000612cbe612cb98461421e565b6141f9565b905082815260208101848484011115612cda57612cd9614365565b5b612ce58482856142be565b509392505050565b6000612d00612cfb8461421e565b6141f9565b905082815260208101848484011115612d1c57612d1b614365565b5b612d278482856142cd565b509392505050565b600081359050612d3e81614385565b92915050565b600081519050612d5381614385565b92915050565b600081519050612d688161439c565b92915050565b600082601f830112612d8357612d82614360565b5b8135612d93848260208601612cab565b91505092915050565b600082601f830112612db157612db0614360565b5b8151612dc1848260208601612ced565b91505092915050565b600081359050612dd9816143b3565b92915050565b600081519050612dee816143b3565b92915050565b600060208284031215612e0a57612e0961436f565b5b6000612e1884828501612d2f565b91505092915050565b600060208284031215612e3757612e3661436f565b5b6000612e4584828501612d44565b91505092915050565b600080600080600060a08688031215612e6a57612e6961436f565b5b6000612e7888828901612d2f565b955050602086013567ffffffffffffffff811115612e9957612e9861436a565b5b612ea588828901612d6e565b945050604086013567ffffffffffffffff811115612ec657612ec561436a565b5b612ed288828901612d6e565b935050606086013567ffffffffffffffff811115612ef357612ef261436a565b5b612eff88828901612d6e565b925050608086013567ffffffffffffffff811115612f2057612f1f61436a565b5b612f2c88828901612d6e565b9150509295509295909350565b60008060008060008060008060006101208a8c031215612f5c57612f5b61436f565b5b6000612f6a8c828d01612d2f565b99505060208a013567ffffffffffffffff811115612f8b57612f8a61436a565b5b612f978c828d01612d6e565b98505060408a013567ffffffffffffffff811115612fb857612fb761436a565b5b612fc48c828d01612d6e565b97505060608a013567ffffffffffffffff811115612fe557612fe461436a565b5b612ff18c828d01612d6e565b96505060808a013567ffffffffffffffff8111156130125761301161436a565b5b61301e8c828d01612d6e565b95505060a08a013567ffffffffffffffff81111561303f5761303e61436a565b5b61304b8c828d01612d6e565b94505060c08a013567ffffffffffffffff81111561306c5761306b61436a565b5b6130788c828d01612d6e565b93505060e08a013567ffffffffffffffff8111156130995761309861436a565b5b6130a58c828d01612d6e565b9250506101006130b78c828d01612dca565b9150509295985092959850929598565b600080600080600080600080610100898b0312156130e8576130e761436f565b5b60006130f68b828c01612d2f565b985050602089013567ffffffffffffffff8111156131175761311661436a565b5b6131238b828c01612d6e565b975050604089013567ffffffffffffffff8111156131445761314361436a565b5b6131508b828c01612d6e565b965050606089013567ffffffffffffffff8111156131715761317061436a565b5b61317d8b828c01612d6e565b955050608089013567ffffffffffffffff81111561319e5761319d61436a565b5b6131aa8b828c01612d6e565b94505060a089013567ffffffffffffffff8111156131cb576131ca61436a565b5b6131d78b828c01612d6e565b93505060c06131e88b828c01612dca565b92505060e06131f98b828c01612dca565b9150509295985092959890939650565b600080600080600060a086880312156132255761322461436f565b5b600061323388828901612d2f565b955050602086013567ffffffffffffffff8111156132545761325361436a565b5b61326088828901612d6e565b945050604086013567ffffffffffffffff8111156132815761328061436a565b5b61328d88828901612d6e565b935050606086013567ffffffffffffffff8111156132ae576132ad61436a565b5b6132ba88828901612d6e565b92505060806132cb88828901612dca565b9150509295509295909350565b600080600080608085870312156132f2576132f161436f565b5b600061330087828801612d2f565b945050602085013567ffffffffffffffff8111156133215761332061436a565b5b61332d87828801612d6e565b935050604085013567ffffffffffffffff81111561334e5761334d61436a565b5b61335a87828801612d6e565b925050606061336b87828801612dca565b91505092959194509250565b6000806000606084860312156133905761338f61436f565b5b600061339e86828701612d2f565b93505060206133af86828701612dca565b92505060406133c086828701612dca565b9150509250925092565b6000602082840312156133e0576133df61436f565b5b60006133ee84828501612d59565b91505092915050565b60006020828403121561340d5761340c61436f565b5b600082015167ffffffffffffffff81111561342b5761342a61436a565b5b61343784828501612d9c565b91505092915050565b6000806000806080858703121561345a5761345961436f565b5b600085015167ffffffffffffffff8111156134785761347761436a565b5b61348487828801612d9c565b945050602085015167ffffffffffffffff8111156134a5576134a461436a565b5b6134b187828801612d9c565b935050604085015167ffffffffffffffff8111156134d2576134d161436a565b5b6134de87828801612d9c565b925050606085015167ffffffffffffffff8111156134ff576134fe61436a565b5b61350b87828801612d9c565b91505092959194509250565b600080600080600060a086880312156135335761353261436f565b5b600086013567ffffffffffffffff8111156135515761355061436a565b5b61355d88828901612d6e565b955050602086013567ffffffffffffffff81111561357e5761357d61436a565b5b61358a88828901612d6e565b945050604086013567ffffffffffffffff8111156135ab576135aa61436a565b5b6135b788828901612d6e565b935050606086013567ffffffffffffffff8111156135d8576135d761436a565b5b6135e488828901612d6e565b925050608086013567ffffffffffffffff8111156136055761360461436a565b5b61361188828901612d6e565b9150509295509295909350565b600080600080600060a0868803121561363a5761363961436f565b5b600086015167ffffffffffffffff8111156136585761365761436a565b5b61366488828901612d9c565b955050602086015167ffffffffffffffff8111156136855761368461436a565b5b61369188828901612d9c565b945050604086015167ffffffffffffffff8111156136b2576136b161436a565b5b6136be88828901612d9c565b935050606086015167ffffffffffffffff8111156136df576136de61436a565b5b6136eb88828901612d9c565b925050608086015167ffffffffffffffff81111561370c5761370b61436a565b5b61371888828901612d9c565b9150509295509295909350565b600080600080600080600080610100898b0312156137465761374561436f565b5b600089015167ffffffffffffffff8111156137645761376361436a565b5b6137708b828c01612d9c565b985050602089015167ffffffffffffffff8111156137915761379061436a565b5b61379d8b828c01612d9c565b975050604089015167ffffffffffffffff8111156137be576137bd61436a565b5b6137ca8b828c01612d9c565b965050606089015167ffffffffffffffff8111156137eb576137ea61436a565b5b6137f78b828c01612d9c565b955050608089015167ffffffffffffffff8111156138185761381761436a565b5b6138248b828c01612d9c565b94505060a089015167ffffffffffffffff8111156138455761384461436a565b5b6138518b828c01612d9c565b93505060c089015167ffffffffffffffff8111156138725761387161436a565b5b61387e8b828c01612d9c565b92505060e061388f8b828c01612ddf565b9150509295985092959890939650565b600080600080600080600060e0888a0312156138be576138bd61436f565b5b600088015167ffffffffffffffff8111156138dc576138db61436a565b5b6138e88a828b01612d9c565b975050602088015167ffffffffffffffff8111156139095761390861436a565b5b6139158a828b01612d9c565b965050604088015167ffffffffffffffff8111156139365761393561436a565b5b6139428a828b01612d9c565b955050606088015167ffffffffffffffff8111156139635761396261436a565b5b61396f8a828b01612d9c565b945050608088015167ffffffffffffffff8111156139905761398f61436a565b5b61399c8a828b01612d9c565b93505060a06139ad8a828b01612ddf565b92505060c06139be8a828b01612ddf565b91505092959891949750929550565b600080600080608085870312156139e7576139e661436f565b5b600085015167ffffffffffffffff811115613a0557613a0461436a565b5b613a1187828801612d9c565b945050602085015167ffffffffffffffff811115613a3257613a3161436a565b5b613a3e87828801612d9c565b935050604085015167ffffffffffffffff811115613a5f57613a5e61436a565b5b613a6b87828801612d9c565b9250506060613a7c87828801612ddf565b91505092959194509250565b600080600060608486031215613aa157613aa061436f565b5b600084015167ffffffffffffffff811115613abf57613abe61436a565b5b613acb86828701612d9c565b935050602084015167ffffffffffffffff811115613aec57613aeb61436a565b5b613af886828701612d9c565b9250506040613b0986828701612ddf565b9150509250925092565b60008060408385031215613b2a57613b2961436f565b5b6000613b3885828601612ddf565b9250506020613b4985828601612ddf565b9150509250929050565b613b5c81614276565b82525050565b613b6b81614288565b82525050565b6000613b7c8261424f565b613b86818561425a565b9350613b968185602086016142cd565b613b9f81614374565b840191505092915050565b6000613bb58261424f565b613bbf818561426b565b9350613bcf8185602086016142cd565b80840191505092915050565b613be4816142b4565b82525050565b6000613bf68284613baa565b915081905092915050565b6000602082019050613c166000830184613b53565b92915050565b600060a082019050613c316000830188613b53565b8181036020830152613c438187613b71565b90508181036040830152613c578186613b71565b90508181036060830152613c6b8185613b71565b90508181036080830152613c7f8184613b71565b90509695505050505050565b600061012082019050613ca1600083018c613b53565b8181036020830152613cb3818b613b71565b90508181036040830152613cc7818a613b71565b90508181036060830152613cdb8189613b71565b90508181036080830152613cef8188613b71565b905081810360a0830152613d038187613b71565b905081810360c0830152613d178186613b71565b905081810360e0830152613d2b8185613b71565b9050613d3b610100830184613bdb565b9a9950505050505050505050565b600061010082019050613d5f600083018b613b53565b8181036020830152613d71818a613b71565b90508181036040830152613d858189613b71565b90508181036060830152613d998188613b71565b90508181036080830152613dad8187613b71565b905081810360a0830152613dc18186613b71565b9050613dd060c0830185613bdb565b613ddd60e0830184613bdb565b9998505050505050505050565b600060a082019050613dff6000830188613b53565b8181036020830152613e118187613b71565b90508181036040830152613e258186613b71565b90508181036060830152613e398185613b71565b9050613e486080830184613bdb565b9695505050505050565b6000608082019050613e676000830187613b53565b8181036020830152613e798186613b71565b90508181036040830152613e8d8185613b71565b9050613e9c6060830184613bdb565b95945050505050565b6000606082019050613eba6000830186613b53565b613ec76020830185613bdb565b613ed46040830184613bdb565b949350505050565b6000602082019050613ef16000830184613b62565b92915050565b60006020820190508181036000830152613f118184613b71565b905092915050565b60006080820190508181036000830152613f338187613b71565b90508181036020830152613f478186613b71565b90508181036040830152613f5b8185613b71565b90508181036060830152613f6f8184613b71565b905095945050505050565b600060a0820190508181036000830152613f948188613b71565b90508181036020830152613fa88187613b71565b90508181036040830152613fbc8186613b71565b90508181036060830152613fd08185613b71565b90508181036080830152613fe48184613b71565b90509695505050505050565b600061010082019050818103600083015261400b818b613b71565b9050818103602083015261401f818a613b71565b905081810360408301526140338189613b71565b905081810360608301526140478188613b71565b9050818103608083015261405b8187613b71565b905081810360a083015261406f8186613b71565b905081810360c08301526140838185613b71565b905061409260e0830184613bdb565b9998505050505050505050565b600060e08201905081810360008301526140b9818a613b71565b905081810360208301526140cd8189613b71565b905081810360408301526140e18188613b71565b905081810360608301526140f58187613b71565b905081810360808301526141098186613b71565b905061411860a0830185613bdb565b61412560c0830184613bdb565b98975050505050505050565b6000608082019050818103600083015261414b8187613b71565b9050818103602083015261415f8186613b71565b905081810360408301526141738185613b71565b90506141826060830184613bdb565b95945050505050565b600060608201905081810360008301526141a58186613b71565b905081810360208301526141b98185613b71565b90506141c86040830184613bdb565b949350505050565b60006040820190506141e56000830185613bdb565b6141f26020830184613bdb565b9392505050565b6000614203614214565b905061420f8282614300565b919050565b6000604051905090565b600067ffffffffffffffff82111561423957614238614331565b5b61424282614374565b9050602081019050919050565b600081519050919050565b600082825260208201905092915050565b600081905092915050565b600061428182614294565b9050919050565b60008115159050919050565b600073ffffffffffffffffffffffffffffffffffffffff82169050919050565b6000819050919050565b82818337600083830152505050565b60005b838110156142eb5780820151818401526020810190506142d0565b838111156142fa576000848401525b50505050565b61430982614374565b810181811067ffffffffffffffff8211171561432857614327614331565b5b80604052505050565b7f4e487b7100000000000000000000000000000000000000000000000000000000600052604160045260246000fd5b600080fd5b600080fd5b600080fd5b600080fd5b6000601f19601f8301169050919050565b61438e81614276565b811461439957600080fd5b50565b6143a581614288565b81146143b057600080fd5b50565b6143bc816142b4565b81146143c757600080fd5b5056fea26469706673582212209a9489c27bbe8869071a1a3980ad64fef47b367450a02495cbbe3d7acf08345164736f6c63430008070033",
  "immutableReferences": {},
  "source": "//SPDX-License-Identifier: MIT\n\npragma solidity >=0.7.0 <0.9.0;\n\nimport \"./SupplyChainStorage.sol\";\nimport \"./Ownable.sol\";\n\ncontract CoffeeSupplyChain is Ownable {\n    event SetFarmDetails(address indexed user, address indexed batchNo);\n    event DoneHarvesting(address indexed user, address indexed batchNo);\n    event DoneProcessing(address indexed user, address indexed batchNo);\n    event SetGrainData(address indexed user, address indexed batchNo);\n    event DoneAgglomeration(address indexed user, address indexed batchNo);\n    event DoneShippingPacker(address indexed user, address indexed batchNo);\n    event DonePackaging(address indexed user, address indexed batchNo);\n    event DoneShippingRetailer(address indexed user, address indexed batchNo);\n    event DoneRetailer(address indexed user, address indexed batchNo);\n\n    modifier isValidPerformer(address batchNo, string memory role) {\n        require(\n            keccak256(\n                abi.encodePacked(supplyChainStorage.getUserRole(msg.sender))\n            ) == keccak256(abi.encodePacked(role))\n        );\n        require(\n            keccak256(\n                abi.encodePacked(supplyChainStorage.getNextAction(batchNo))\n            ) == keccak256(abi.encodePacked(role))\n        );\n        _;\n    }\n\n    SupplyChainStorage supplyChainStorage;\n\n    constructor(address _supplyChainStorage) {\n        supplyChainStorage = SupplyChainStorage(_supplyChainStorage);\n    }\n\n    function getNextAction(address _batchNo)\n        public\n        returns (string memory action)\n    {\n        (action) = supplyChainStorage.getNextAction(_batchNo);\n        return (action);\n    }\n\n    function getFarmDetails(address _batchNo)\n        public\n        returns (\n            string memory registrationNo,\n            string memory farmName,\n            string memory latitude,\n            string memory longitude,\n            string memory farmAddress\n        )\n    {\n        (\n            registrationNo,\n            farmName,\n            latitude,\n            longitude,\n            farmAddress\n        ) = supplyChainStorage.getFarmDetails(_batchNo);\n        return (registrationNo, farmName, latitude, longitude, farmAddress);\n    }\n\n    function addFarmDetails(\n        string memory _registrationNo,\n        string memory _farmName,\n        string memory _latitude,\n        string memory _longitude,\n        string memory _farmAddress\n    ) public onlyOwner returns (address) {\n        address batchNo = supplyChainStorage.setFarmDetails(\n            _registrationNo,\n            _farmName,\n            _latitude,\n            _longitude,\n            _farmAddress\n        );\n\n        emit SetFarmDetails(msg.sender, batchNo);\n\n        return (batchNo);\n    }\n\n    function addHarvestData(\n        address _batchNo,\n        string memory _coffeeFamily,\n        string memory _typeOfSeed,\n        string memory _fertilizerUsed,\n        string memory _harvestDate\n    ) public isValidPerformer(_batchNo, \"FARMER\") returns (bool) {\n        bool status = supplyChainStorage.setHarvestData(\n            _batchNo,\n            _coffeeFamily,\n            _typeOfSeed,\n            _fertilizerUsed,\n            _harvestDate\n        );\n\n        emit DoneHarvesting(msg.sender, _batchNo);\n\n        return (status);\n    }\n\n    function getHarvestData(address _batchNo)\n        public\n        returns (\n            string memory coffeeFamily,\n            string memory typeOfSeed,\n            string memory fertilizerUsed,\n            string memory harvestDate\n        )\n    {\n        (\n            coffeeFamily,\n            typeOfSeed,\n            fertilizerUsed,\n            harvestDate\n        ) = supplyChainStorage.getHarvestData(_batchNo);\n\n        return (coffeeFamily, typeOfSeed, fertilizerUsed, harvestDate);\n    }\n\n    function addProcessData(\n        address _batchNo,\n        string memory _procAddress,\n        string memory _typeOfDrying,\n        string memory _roastImageHash,\n        string memory _roastTemp,\n        string memory _typeOfRoast,\n        string memory _roastDate,\n        string memory _millDate,\n        uint256 _processorPrice\n    ) public isValidPerformer(_batchNo, \"PROCESSOR\") returns (bool) {\n        bool status = supplyChainStorage.setProcessData(\n            _batchNo,\n            _procAddress,\n            _typeOfDrying,\n            _roastImageHash,\n            _roastTemp,\n            _typeOfRoast,\n            _roastDate,\n            _millDate,\n            _processorPrice\n        );\n\n        emit DoneProcessing(msg.sender, _batchNo);\n\n        return (status);\n    }\n\n    function getProcessData(address _batchNo)\n        public\n        returns (\n            string memory procAddress,\n            string memory typeOfDrying,\n            string memory roastImageHash,\n            string memory roastTemp,\n            string memory typeOfRoast,\n            string memory roastDate,\n            string memory millDate,\n            uint256 processorPrice\n        )\n    {\n        (\n            procAddress,\n            typeOfDrying,\n            roastImageHash,\n            roastTemp,\n            typeOfRoast,\n            roastDate,\n            millDate,\n            processorPrice\n        ) = supplyChainStorage.getProcessData(_batchNo);\n\n        return (\n            procAddress,\n            typeOfDrying,\n            roastImageHash,\n            roastTemp,\n            typeOfRoast,\n            roastDate,\n            millDate,\n            processorPrice\n        );\n    }\n\n    function addGrainData(\n        address _batchNo,\n        uint256 _tasteScore,\n        uint256 _grainPrice\n    ) public isValidPerformer(_batchNo, \"GRAIN_INSPECTOR\") returns (bool) {\n        bool status = supplyChainStorage.setGrainData(\n            _batchNo,\n            _tasteScore,\n            _grainPrice\n        );\n\n        emit SetGrainData(msg.sender, _batchNo);\n\n        return (status);\n    }\n\n    function getGrainData(address _batchNo)\n        public\n        returns (uint256 tasteScore, uint256 grainPrice)\n    {\n        (tasteScore, grainPrice) = supplyChainStorage.getGrainData(_batchNo);\n\n        return (tasteScore, grainPrice);\n    }\n\n    function addAgglomData(\n        address _batchNo,\n        string memory _agglomAddress,\n        string memory _agglomDate,\n        uint256 _storagePrice\n    ) public isValidPerformer(_batchNo, \"AGGLOMERATOR\") returns (bool) {\n        bool status = supplyChainStorage.setAgglomData(\n            _batchNo,\n            _agglomAddress,\n            _agglomDate,\n            _storagePrice\n        );\n\n        emit DoneAgglomeration(msg.sender, _batchNo);\n\n        return (status);\n    }\n\n    function getAgglomData(address _batchNo)\n        public\n        returns (\n            string memory agglomAddress,\n            string memory agglomDate,\n            uint256 storagePrice\n        )\n    {\n        (agglomAddress, agglomDate, storagePrice) = supplyChainStorage\n            .getAgglomData(_batchNo);\n\n        return (agglomAddress, agglomDate, storagePrice);\n    }\n\n    function addShipPackerData(\n        address _batchNo,\n        string memory _transportTypeP,\n        string memory _pickupDateP,\n        uint256 _shipPriceP\n    ) public isValidPerformer(_batchNo, \"SHIPPER_PACKER\") returns (bool) {\n        bool status = supplyChainStorage.setShipPackerData(\n            _batchNo,\n            _transportTypeP,\n            _pickupDateP,\n            _shipPriceP\n        );\n\n        emit DoneShippingPacker(msg.sender, _batchNo);\n\n        return (status);\n    }\n\n    function getShipPackerData(address _batchNo)\n        public\n        returns (\n            string memory transportTypeP,\n            string memory pickupDateP,\n            uint256 shipPriceP\n        )\n    {\n        (transportTypeP, pickupDateP, shipPriceP) = supplyChainStorage\n            .getShipPackerData(_batchNo);\n\n        return (transportTypeP, pickupDateP, shipPriceP);\n    }\n\n    function addPackData(\n        address _batchNo,\n        string memory _packAddress,\n        string memory _arrivalDateP,\n        string memory _packDate,\n        uint256 _packPrice\n    ) public isValidPerformer(_batchNo, \"PACKER\") returns (bool) {\n        bool status = supplyChainStorage.setPackData(\n            _batchNo,\n            _packAddress,\n            _arrivalDateP,\n            _packDate,\n            _packPrice\n        );\n\n        emit DonePackaging(msg.sender, _batchNo);\n\n        return (status);\n    }\n\n    function getPackData(address _batchNo)\n        public\n        returns (\n            string memory packAddress,\n            string memory arrivalDateP,\n            string memory packDate,\n            uint256 packPrice\n        )\n    {\n        (packAddress, arrivalDateP, packDate, packPrice) = supplyChainStorage\n            .getPackData(_batchNo);\n\n        return (packAddress, arrivalDateP, packDate, packPrice);\n    }\n\n    function addShipRetailerData(\n        address _batchNo,\n        string memory _transportTypeR,\n        string memory _pickupDateR,\n        uint256 _shipPriceR\n    ) public isValidPerformer(_batchNo, \"SHIPPER_RETAILER\") returns (bool) {\n        bool status = supplyChainStorage.setShipRetailerData(\n            _batchNo,\n            _transportTypeR,\n            _pickupDateR,\n            _shipPriceR\n        );\n\n        emit DoneShippingRetailer(msg.sender, _batchNo);\n\n        return (status);\n    }\n\n    function getShipRetailerData(address _batchNo)\n        public\n        returns (\n            string memory transportTypeR,\n            string memory pickupDateR,\n            uint256 shipPriceR\n        )\n    {\n        (transportTypeR, pickupDateR, shipPriceR) = supplyChainStorage\n            .getShipRetailerData(_batchNo);\n\n        return (transportTypeR, pickupDateR, shipPriceR);\n    }\n\n    function addRetailerData(\n        address _batchNo,\n        string memory _arrivalDateW,\n        string memory _arrivalDateSP,\n        string memory _warehouseName,\n        string memory _warehouseAddress,\n        string memory _salePointAddress,\n        uint256 _shipPriceSP,\n        uint256 _productPrice\n    ) public isValidPerformer(_batchNo, \"RETAILER\") returns (bool) {\n        bool status = supplyChainStorage.setRetailerData(\n            _batchNo,\n            _arrivalDateW,\n            _arrivalDateSP,\n            _warehouseName,\n            _warehouseAddress,\n            _salePointAddress,\n            _shipPriceSP,\n            _productPrice\n        );\n\n        emit DoneRetailer(msg.sender, _batchNo);\n\n        return (status);\n    }\n\n    function getRetailerData(address _batchNo)\n        public\n        returns (\n            string memory arrivalDateW,\n            string memory arrivalDateSP,\n            string memory warehouseName,\n            string memory warehouseAddress,\n            string memory salePointAddress,\n            uint256 shipPriceSP,\n            uint256 productPrice\n        )\n    {\n        (\n            arrivalDateW,\n            arrivalDateSP,\n            warehouseName,\n            warehouseAddress,\n            salePointAddress,\n            shipPriceSP,\n            productPrice\n        ) = supplyChainStorage.getRetailerData(_batchNo);\n\n        return (\n            arrivalDateW,\n            arrivalDateSP,\n            warehouseName,\n            warehouseAddress,\n            salePointAddress,\n            shipPriceSP,\n            productPrice\n        );\n    }\n}\n",
  "sourcePath": "/home/nathalia/TESIS/coffee-supply-chain-tracking-system-ethereum/contracts/CoffeeSupplyChain.sol",
  "compiler": {
    "name": "solc",
    "version": "0.8.7+commit.e28d00a7.Emscripten.clang"
  },
  "schemaVersion": "3.4.4",
  "updatedAt": "2022-03-08T14:11:45.709Z",
  "networkType": "ethereum",
  "devdoc": {
    "kind": "dev",
    "methods": {},
    "version": 1
  },
  "userdoc": {
    "kind": "user",
    "methods": {},
    "version": 1
  }
}