{
  "contractName": "CoffeeSupplyChain",
  "abi": [
    {
      "inputs": [
        {
          "internalType": "address",
          "name": "_supplyChainStorage",
          "type": "address"
        }
      ],
      "stateMutability": "nonpayable",
      "type": "constructor"
    },
    {
      "anonymous": false,
      "inputs": [
        {
          "indexed": true,
          "internalType": "address",
          "name": "user",
          "type": "address"
        },
        {
          "indexed": true,
          "internalType": "address",
          "name": "batchNo",
          "type": "address"
        }
      ],
      "name": "DoneAgglomeration",
      "type": "event"
    },
    {
      "anonymous": false,
      "inputs": [
        {
          "indexed": true,
          "internalType": "address",
          "name": "user",
          "type": "address"
        },
        {
          "indexed": true,
          "internalType": "address",
          "name": "batchNo",
          "type": "address"
        }
      ],
      "name": "DoneHarvesting",
      "type": "event"
    },
    {
      "anonymous": false,
      "inputs": [
        {
          "indexed": true,
          "internalType": "address",
          "name": "user",
          "type": "address"
        },
        {
          "indexed": true,
          "internalType": "address",
          "name": "batchNo",
          "type": "address"
        }
      ],
      "name": "DonePackaging",
      "type": "event"
    },
    {
      "anonymous": false,
      "inputs": [
        {
          "indexed": true,
          "internalType": "address",
          "name": "user",
          "type": "address"
        },
        {
          "indexed": true,
          "internalType": "address",
          "name": "batchNo",
          "type": "address"
        }
      ],
      "name": "DoneProcessing",
      "type": "event"
    },
    {
      "anonymous": false,
      "inputs": [
        {
          "indexed": true,
          "internalType": "address",
          "name": "user",
          "type": "address"
        },
        {
          "indexed": true,
          "internalType": "address",
          "name": "batchNo",
          "type": "address"
        }
      ],
      "name": "DoneRetailer",
      "type": "event"
    },
    {
      "anonymous": false,
      "inputs": [
        {
          "indexed": true,
          "internalType": "address",
          "name": "user",
          "type": "address"
        },
        {
          "indexed": true,
          "internalType": "address",
          "name": "batchNo",
          "type": "address"
        }
      ],
      "name": "DoneShippingPacker",
      "type": "event"
    },
    {
      "anonymous": false,
      "inputs": [
        {
          "indexed": true,
          "internalType": "address",
          "name": "user",
          "type": "address"
        },
        {
          "indexed": true,
          "internalType": "address",
          "name": "batchNo",
          "type": "address"
        }
      ],
      "name": "DoneShippingRetailer",
      "type": "event"
    },
    {
      "anonymous": false,
      "inputs": [
        {
          "indexed": true,
          "internalType": "address",
          "name": "previousOwner",
          "type": "address"
        }
      ],
      "name": "OwnershipRenounced",
      "type": "event"
    },
    {
      "anonymous": false,
      "inputs": [
        {
          "indexed": true,
          "internalType": "address",
          "name": "previusOwner",
          "type": "address"
        },
        {
          "indexed": true,
          "internalType": "address",
          "name": "newOwner",
          "type": "address"
        }
      ],
      "name": "OwnershipTransferred",
      "type": "event"
    },
    {
      "anonymous": false,
      "inputs": [
        {
          "indexed": true,
          "internalType": "address",
          "name": "user",
          "type": "address"
        },
        {
          "indexed": true,
          "internalType": "address",
          "name": "batchNo",
          "type": "address"
        }
      ],
      "name": "SetFarmDetails",
      "type": "event"
    },
    {
      "anonymous": false,
      "inputs": [
        {
          "indexed": true,
          "internalType": "address",
          "name": "user",
          "type": "address"
        },
        {
          "indexed": true,
          "internalType": "address",
          "name": "batchNo",
          "type": "address"
        }
      ],
      "name": "SetGrainData",
      "type": "event"
    },
    {
      "inputs": [],
      "name": "owner",
      "outputs": [
        {
          "internalType": "address",
          "name": "",
          "type": "address"
        }
      ],
      "stateMutability": "view",
      "type": "function",
      "constant": true
    },
    {
      "inputs": [],
      "name": "renounceOwnership",
      "outputs": [],
      "stateMutability": "nonpayable",
      "type": "function"
    },
    {
      "inputs": [
        {
          "internalType": "address",
          "name": "newOwner",
          "type": "address"
        }
      ],
      "name": "transferOwnership",
      "outputs": [],
      "stateMutability": "nonpayable",
      "type": "function"
    },
    {
      "inputs": [
        {
          "internalType": "address",
          "name": "_batchNo",
          "type": "address"
        }
      ],
      "name": "getNextAction",
      "outputs": [
        {
          "internalType": "string",
          "name": "action",
          "type": "string"
        }
      ],
      "stateMutability": "nonpayable",
      "type": "function"
    },
    {
      "inputs": [
        {
          "internalType": "address",
          "name": "_batchNo",
          "type": "address"
        }
      ],
      "name": "getFarmDetails",
      "outputs": [
        {
          "internalType": "string",
          "name": "registrationNo",
          "type": "string"
        },
        {
          "internalType": "string",
          "name": "farmName",
          "type": "string"
        },
        {
          "internalType": "string",
          "name": "latitude",
          "type": "string"
        },
        {
          "internalType": "string",
          "name": "longitude",
          "type": "string"
        },
        {
          "internalType": "string",
          "name": "farmAddress",
          "type": "string"
        }
      ],
      "stateMutability": "nonpayable",
      "type": "function"
    },
    {
      "inputs": [
        {
          "internalType": "string",
          "name": "_registrationNo",
          "type": "string"
        },
        {
          "internalType": "string",
          "name": "_farmName",
          "type": "string"
        },
        {
          "internalType": "string",
          "name": "_latitude",
          "type": "string"
        },
        {
          "internalType": "string",
          "name": "_longitude",
          "type": "string"
        },
        {
          "internalType": "string",
          "name": "_farmAddress",
          "type": "string"
        }
      ],
      "name": "addFarmDetails",
      "outputs": [
        {
          "internalType": "address",
          "name": "",
          "type": "address"
        }
      ],
      "stateMutability": "nonpayable",
      "type": "function"
    },
    {
      "inputs": [
        {
          "internalType": "address",
          "name": "_batchNo",
          "type": "address"
        },
        {
          "internalType": "string",
          "name": "_coffeeFamily",
          "type": "string"
        },
        {
          "internalType": "string",
          "name": "_typeOfSeed",
          "type": "string"
        },
        {
          "internalType": "string",
          "name": "_fertilizerUsed",
          "type": "string"
        },
        {
          "internalType": "string",
          "name": "_harvestDate",
          "type": "string"
        }
      ],
      "name": "addHarvestData",
      "outputs": [
        {
          "internalType": "bool",
          "name": "",
          "type": "bool"
        }
      ],
      "stateMutability": "nonpayable",
      "type": "function"
    },
    {
      "inputs": [
        {
          "internalType": "address",
          "name": "_batchNo",
          "type": "address"
        }
      ],
      "name": "getHarvestData",
      "outputs": [
        {
          "internalType": "string",
          "name": "coffeeFamily",
          "type": "string"
        },
        {
          "internalType": "string",
          "name": "typeOfSeed",
          "type": "string"
        },
        {
          "internalType": "string",
          "name": "fertilizerUsed",
          "type": "string"
        },
        {
          "internalType": "string",
          "name": "harvestDate",
          "type": "string"
        }
      ],
      "stateMutability": "nonpayable",
      "type": "function"
    },
    {
      "inputs": [
        {
          "internalType": "address",
          "name": "_batchNo",
          "type": "address"
        },
        {
          "internalType": "string",
          "name": "_procAddress",
          "type": "string"
        },
        {
          "internalType": "string",
          "name": "_typeOfDrying",
          "type": "string"
        },
        {
          "internalType": "string",
          "name": "_roastImageHash",
          "type": "string"
        },
        {
          "internalType": "string",
          "name": "_roastTemp",
          "type": "string"
        },
        {
          "internalType": "string",
          "name": "_typeOfRoast",
          "type": "string"
        },
        {
          "internalType": "string",
          "name": "_roastDate",
          "type": "string"
        },
        {
          "internalType": "string",
          "name": "_millDate",
          "type": "string"
        },
        {
          "internalType": "uint256",
          "name": "_processorPrice",
          "type": "uint256"
        }
      ],
      "name": "addProcessData",
      "outputs": [
        {
          "internalType": "bool",
          "name": "",
          "type": "bool"
        }
      ],
      "stateMutability": "nonpayable",
      "type": "function"
    },
    {
      "inputs": [
        {
          "internalType": "address",
          "name": "_batchNo",
          "type": "address"
        }
      ],
      "name": "getProcessData",
      "outputs": [
        {
          "internalType": "string",
          "name": "procAddress",
          "type": "string"
        },
        {
          "internalType": "string",
          "name": "typeOfDrying",
          "type": "string"
        },
        {
          "internalType": "string",
          "name": "roastImageHash",
          "type": "string"
        },
        {
          "internalType": "string",
          "name": "roastTemp",
          "type": "string"
        },
        {
          "internalType": "string",
          "name": "typeOfRoast",
          "type": "string"
        },
        {
          "internalType": "string",
          "name": "roastDate",
          "type": "string"
        },
        {
          "internalType": "string",
          "name": "millDate",
          "type": "string"
        },
        {
          "internalType": "uint256",
          "name": "processorPrice",
          "type": "uint256"
        }
      ],
      "stateMutability": "nonpayable",
      "type": "function"
    },
    {
      "inputs": [
        {
          "internalType": "address",
          "name": "_batchNo",
          "type": "address"
        },
        {
          "internalType": "uint256",
          "name": "_tasteScore",
          "type": "uint256"
        },
        {
          "internalType": "uint256",
          "name": "_grainPrice",
          "type": "uint256"
        }
      ],
      "name": "addGrainData",
      "outputs": [
        {
          "internalType": "bool",
          "name": "",
          "type": "bool"
        }
      ],
      "stateMutability": "nonpayable",
      "type": "function"
    },
    {
      "inputs": [
        {
          "internalType": "address",
          "name": "_batchNo",
          "type": "address"
        }
      ],
      "name": "getGrainData",
      "outputs": [
        {
          "internalType": "uint256",
          "name": "tasteScore",
          "type": "uint256"
        },
        {
          "internalType": "uint256",
          "name": "grainPrice",
          "type": "uint256"
        }
      ],
      "stateMutability": "nonpayable",
      "type": "function"
    },
    {
      "inputs": [
        {
          "internalType": "address",
          "name": "_batchNo",
          "type": "address"
        },
        {
          "internalType": "string",
          "name": "_agglomAddress",
          "type": "string"
        },
        {
          "internalType": "string",
          "name": "_agglomDate",
          "type": "string"
        },
        {
          "internalType": "uint256",
          "name": "_storagePrice",
          "type": "uint256"
        }
      ],
      "name": "addAgglomData",
      "outputs": [
        {
          "internalType": "bool",
          "name": "",
          "type": "bool"
        }
      ],
      "stateMutability": "nonpayable",
      "type": "function"
    },
    {
      "inputs": [
        {
          "internalType": "address",
          "name": "_batchNo",
          "type": "address"
        }
      ],
      "name": "getAgglomData",
      "outputs": [
        {
          "internalType": "string",
          "name": "agglomAddress",
          "type": "string"
        },
        {
          "internalType": "string",
          "name": "agglomDate",
          "type": "string"
        },
        {
          "internalType": "uint256",
          "name": "storagePrice",
          "type": "uint256"
        }
      ],
      "stateMutability": "nonpayable",
      "type": "function"
    },
    {
      "inputs": [
        {
          "internalType": "address",
          "name": "_batchNo",
          "type": "address"
        },
        {
          "internalType": "string",
          "name": "_transportTypeP",
          "type": "string"
        },
        {
          "internalType": "string",
          "name": "_pickupDateP",
          "type": "string"
        },
        {
          "internalType": "uint256",
          "name": "_shipPriceP",
          "type": "uint256"
        }
      ],
      "name": "addShipPackerData",
      "outputs": [
        {
          "internalType": "bool",
          "name": "",
          "type": "bool"
        }
      ],
      "stateMutability": "nonpayable",
      "type": "function"
    },
    {
      "inputs": [
        {
          "internalType": "address",
          "name": "_batchNo",
          "type": "address"
        }
      ],
      "name": "getShipPackerData",
      "outputs": [
        {
          "internalType": "string",
          "name": "transportTypeP",
          "type": "string"
        },
        {
          "internalType": "string",
          "name": "pickupDateP",
          "type": "string"
        },
        {
          "internalType": "uint256",
          "name": "shipPriceP",
          "type": "uint256"
        }
      ],
      "stateMutability": "nonpayable",
      "type": "function"
    },
    {
      "inputs": [
        {
          "internalType": "address",
          "name": "_batchNo",
          "type": "address"
        },
        {
          "internalType": "string",
          "name": "_packAddress",
          "type": "string"
        },
        {
          "internalType": "string",
          "name": "_arrivalDateP",
          "type": "string"
        },
        {
          "internalType": "string",
          "name": "_packDate",
          "type": "string"
        },
        {
          "internalType": "uint256",
          "name": "_packPrice",
          "type": "uint256"
        }
      ],
      "name": "addPackData",
      "outputs": [
        {
          "internalType": "bool",
          "name": "",
          "type": "bool"
        }
      ],
      "stateMutability": "nonpayable",
      "type": "function"
    },
    {
      "inputs": [
        {
          "internalType": "address",
          "name": "_batchNo",
          "type": "address"
        }
      ],
      "name": "getPackData",
      "outputs": [
        {
          "internalType": "string",
          "name": "packAddress",
          "type": "string"
        },
        {
          "internalType": "string",
          "name": "arrivalDateP",
          "type": "string"
        },
        {
          "internalType": "string",
          "name": "packDate",
          "type": "string"
        },
        {
          "internalType": "uint256",
          "name": "packPrice",
          "type": "uint256"
        }
      ],
      "stateMutability": "nonpayable",
      "type": "function"
    },
    {
      "inputs": [
        {
          "internalType": "address",
          "name": "_batchNo",
          "type": "address"
        },
        {
          "internalType": "string",
          "name": "_transportTypeR",
          "type": "string"
        },
        {
          "internalType": "string",
          "name": "_pickupDateR",
          "type": "string"
        },
        {
          "internalType": "uint256",
          "name": "_shipPriceR",
          "type": "uint256"
        }
      ],
      "name": "addShipRetailerData",
      "outputs": [
        {
          "internalType": "bool",
          "name": "",
          "type": "bool"
        }
      ],
      "stateMutability": "nonpayable",
      "type": "function"
    },
    {
      "inputs": [
        {
          "internalType": "address",
          "name": "_batchNo",
          "type": "address"
        }
      ],
      "name": "getShipRetailerData",
      "outputs": [
        {
          "internalType": "string",
          "name": "transportTypeR",
          "type": "string"
        },
        {
          "internalType": "string",
          "name": "pickupDateR",
          "type": "string"
        },
        {
          "internalType": "uint256",
          "name": "shipPriceR",
          "type": "uint256"
        }
      ],
      "stateMutability": "nonpayable",
      "type": "function"
    },
    {
      "inputs": [
        {
          "internalType": "address",
          "name": "_batchNo",
          "type": "address"
        },
        {
          "internalType": "string",
          "name": "_arrivalDateW",
          "type": "string"
        },
        {
          "internalType": "string",
          "name": "_arrivalDateSP",
          "type": "string"
        },
        {
          "internalType": "string",
          "name": "_warehouseName",
          "type": "string"
        },
        {
          "internalType": "string",
          "name": "_warehouseAddress",
          "type": "string"
        },
        {
          "internalType": "string",
          "name": "_salePointAddress",
          "type": "string"
        },
        {
          "internalType": "uint256",
          "name": "_shipPriceSP",
          "type": "uint256"
        },
        {
          "internalType": "uint256",
          "name": "_productPrice",
          "type": "uint256"
        }
      ],
      "name": "addRetailerData",
      "outputs": [
        {
          "internalType": "bool",
          "name": "",
          "type": "bool"
        }
      ],
      "stateMutability": "nonpayable",
      "type": "function"
    },
    {
      "inputs": [
        {
          "internalType": "address",
          "name": "_batchNo",
          "type": "address"
        }
      ],
      "name": "getRetailerData",
      "outputs": [
        {
          "internalType": "string",
          "name": "arrivalDateW",
          "type": "string"
        },
        {
          "internalType": "string",
          "name": "arrivalDateSP",
          "type": "string"
        },
        {
          "internalType": "string",
          "name": "warehouseName",
          "type": "string"
        },
        {
          "internalType": "string",
          "name": "warehouseAddress",
          "type": "string"
        },
        {
          "internalType": "string",
          "name": "salePointAddress",
          "type": "string"
        },
        {
          "internalType": "uint256",
          "name": "shipPriceSP",
          "type": "uint256"
        },
        {
          "internalType": "uint256",
          "name": "productPrice",
          "type": "uint256"
        }
      ],
      "stateMutability": "nonpayable",
      "type": "function"
    }
  ],
  "bytecode": "0x60806040523480156200001157600080fd5b506040516200456b3803806200456b833981810160405281019062000037919062000129565b336000806101000a81548173ffffffffffffffffffffffffffffffffffffffff021916908373ffffffffffffffffffffffffffffffffffffffff16021790555080600160006101000a81548173ffffffffffffffffffffffffffffffffffffffff021916908373ffffffffffffffffffffffffffffffffffffffff160217905550506200015b565b600080fd5b600073ffffffffffffffffffffffffffffffffffffffff82169050919050565b6000620000f182620000c4565b9050919050565b6200010381620000e4565b81146200010f57600080fd5b50565b6000815190506200012381620000f8565b92915050565b600060208284031215620001425762000141620000bf565b5b6000620001528482850162000112565b91505092915050565b614400806200016b6000396000f3fe608060405234801561001057600080fd5b50600436106101415760003560e01c8063715018a6116100b8578063c0d46aad1161007c578063c0d46aad14610426578063d5bd01fb14610456578063db664c9814610486578063f0804da6146104b6578063f2fde38b146104e8578063fb779ea51461050457610141565b8063715018a61461036b57806382a591f7146103755780638da5cb5b146103a55780639045499f146103c3578063bc8df35a146103f557610141565b8063199351bb1161010a578063199351bb146102365780632b65dacc1461026857806331016cb31461029b5780634d6b5e00146102ce5780636a7352d5146102fe578063702a57581461033457610141565b80628b14c31461014657806302ace41b1461017657806305645808146101a657806309fa8070146101d657806314b5fd6514610206575b600080fd5b610160600480360381019061015b9190612e99565b610538565b60405161016d9190612f53565b60405180910390f35b610190600480360381019061018b9190612e99565b6108a2565b60405161019d9190612f53565b60405180910390f35b6101c060048036038101906101bb9190612f6e565b610c0c565b6040516101cd9190612f53565b60405180910390f35b6101f060048036038101906101eb9190612fc1565b610f73565b6040516101fd9190612f53565b60405180910390f35b610220600480360381019061021b919061314f565b6112ec565b60405161022d9190612f53565b60405180910390f35b610250600480360381019061024b919061321e565b611659565b60405161025f939291906132e2565b60405180910390f35b610282600480360381019061027d919061321e565b611723565b6040516102929493929190613327565b60405180910390f35b6102b560048036038101906102b0919061321e565b6117f3565b6040516102c59493929190613381565b60405180910390f35b6102e860048036038101906102e3919061321e565b6118c2565b6040516102f591906133e2565b60405180910390f35b6103186004803603810190610313919061321e565b61197d565b60405161032b9796959493929190613404565b60405180910390f35b61034e6004803603810190610349919061321e565b611a61565b604051610362989796959493929190613496565b60405180910390f35b610373611b4b565b005b61038f600480360381019061038a9190613545565b611c49565b60405161039c9190612f53565b60405180910390f35b6103ad611fb6565b6040516103ba919061363f565b60405180910390f35b6103dd60048036038101906103d8919061321e565b611fda565b6040516103ec939291906132e2565b60405180910390f35b61040f600480360381019061040a919061321e565b6120a4565b60405161041d92919061365a565b60405180910390f35b610440600480360381019061043b9190612e99565b612160565b60405161044d9190612f53565b60405180910390f35b610470600480360381019061046b9190613683565b6124ca565b60405161047d9190612f53565b60405180910390f35b6104a0600480360381019061049b91906137c5565b612840565b6040516104ad919061363f565b60405180910390f35b6104d060048036038101906104cb919061321e565b6129bb565b6040516104df939291906132e2565b60405180910390f35b61050260048036038101906104fd919061321e565b612a85565b005b61051e6004803603810190610519919061321e565b612bd4565b60405161052f9594939291906138cc565b60405180910390f35b6000846040518060400160405280601081526020017f534849505045525f52455441494c45520000000000000000000000000000000081525080604051602001610582919061397e565b60405160208183030381529060405280519060200120600160009054906101000a900473ffffffffffffffffffffffffffffffffffffffff1673ffffffffffffffffffffffffffffffffffffffff166327820851336040518263ffffffff1660e01b81526004016105f3919061363f565b600060405180830381600087803b15801561060d57600080fd5b505af1158015610621573d6000803e3d6000fd5b505050506040513d6000823e3d601f19601f8201168201806040525081019061064a9190613a05565b60405160200161065a919061397e565b604051602081830303815290604052805190602001201461067a57600080fd5b8060405160200161068b919061397e565b60405160208183030381529060405280519060200120600160009054906101000a900473ffffffffffffffffffffffffffffffffffffffff1673ffffffffffffffffffffffffffffffffffffffff16634d6b5e00846040518263ffffffff1660e01b81526004016106fc919061363f565b600060405180830381600087803b15801561071657600080fd5b505af115801561072a573d6000803e3d6000fd5b505050506040513d6000823e3d601f19601f820116820180604052508101906107539190613a05565b604051602001610763919061397e565b604051602081830303815290604052805190602001201461078357600080fd5b6000600160009054906101000a900473ffffffffffffffffffffffffffffffffffffffff1673ffffffffffffffffffffffffffffffffffffffff166313fa3313898989896040518563ffffffff1660e01b81526004016107e69493929190613a4e565b602060405180830381600087803b15801561080057600080fd5b505af1158015610814573d6000803e3d6000fd5b505050506040513d601f19601f820116820180604052508101906108389190613acd565b90508773ffffffffffffffffffffffffffffffffffffffff163373ffffffffffffffffffffffffffffffffffffffff167f16acb4cca65eb12e3cc5306a1dcf8ae1bc790312697c2fc5e52c3543bee95b0d60405160405180910390a3809350505050949350505050565b6000846040518060400160405280600c81526020017f4147474c4f4d455241544f520000000000000000000000000000000000000000815250806040516020016108ec919061397e565b60405160208183030381529060405280519060200120600160009054906101000a900473ffffffffffffffffffffffffffffffffffffffff1673ffffffffffffffffffffffffffffffffffffffff166327820851336040518263ffffffff1660e01b815260040161095d919061363f565b600060405180830381600087803b15801561097757600080fd5b505af115801561098b573d6000803e3d6000fd5b505050506040513d6000823e3d601f19601f820116820180604052508101906109b49190613a05565b6040516020016109c4919061397e565b60405160208183030381529060405280519060200120146109e457600080fd5b806040516020016109f5919061397e565b60405160208183030381529060405280519060200120600160009054906101000a900473ffffffffffffffffffffffffffffffffffffffff1673ffffffffffffffffffffffffffffffffffffffff16634d6b5e00846040518263ffffffff1660e01b8152600401610a66919061363f565b600060405180830381600087803b158015610a8057600080fd5b505af1158015610a94573d6000803e3d6000fd5b505050506040513d6000823e3d601f19601f82011682018060405250810190610abd9190613a05565b604051602001610acd919061397e565b6040516020818303038152906040528051906020012014610aed57600080fd5b6000600160009054906101000a900473ffffffffffffffffffffffffffffffffffffffff1673ffffffffffffffffffffffffffffffffffffffff1663e7b58fb6898989896040518563ffffffff1660e01b8152600401610b509493929190613a4e565b602060405180830381600087803b158015610b6a57600080fd5b505af1158015610b7e573d6000803e3d6000fd5b505050506040513d601f19601f82011682018060405250810190610ba29190613acd565b90508773ffffffffffffffffffffffffffffffffffffffff163373ffffffffffffffffffffffffffffffffffffffff167f9c860ebb08240ca06107f1cd940fc59e3c23a75900822a60ce3ed107d3522d5360405160405180910390a3809350505050949350505050565b6000836040518060400160405280600f81526020017f475241494e5f494e53504543544f52000000000000000000000000000000000081525080604051602001610c56919061397e565b60405160208183030381529060405280519060200120600160009054906101000a900473ffffffffffffffffffffffffffffffffffffffff1673ffffffffffffffffffffffffffffffffffffffff166327820851336040518263ffffffff1660e01b8152600401610cc7919061363f565b600060405180830381600087803b158015610ce157600080fd5b505af1158015610cf5573d6000803e3d6000fd5b505050506040513d6000823e3d601f19601f82011682018060405250810190610d1e9190613a05565b604051602001610d2e919061397e565b6040516020818303038152906040528051906020012014610d4e57600080fd5b80604051602001610d5f919061397e565b60405160208183030381529060405280519060200120600160009054906101000a900473ffffffffffffffffffffffffffffffffffffffff1673ffffffffffffffffffffffffffffffffffffffff16634d6b5e00846040518263ffffffff1660e01b8152600401610dd0919061363f565b600060405180830381600087803b158015610dea57600080fd5b505af1158015610dfe573d6000803e3d6000fd5b505050506040513d6000823e3d601f19601f82011682018060405250810190610e279190613a05565b604051602001610e37919061397e565b6040516020818303038152906040528051906020012014610e5757600080fd5b6000600160009054906101000a900473ffffffffffffffffffffffffffffffffffffffff1673ffffffffffffffffffffffffffffffffffffffff1663326ebc038888886040518463ffffffff1660e01b8152600401610eb893929190613afa565b602060405180830381600087803b158015610ed257600080fd5b505af1158015610ee6573d6000803e3d6000fd5b505050506040513d601f19601f82011682018060405250810190610f0a9190613acd565b90508673ffffffffffffffffffffffffffffffffffffffff163373ffffffffffffffffffffffffffffffffffffffff167f74fd88ae9a6404dcf86858da4a430b5b3362ae9f8d646bb2532dfccab1c6633260405160405180910390a38093505050509392505050565b6000896040518060400160405280600981526020017f50524f434553534f52000000000000000000000000000000000000000000000081525080604051602001610fbd919061397e565b60405160208183030381529060405280519060200120600160009054906101000a900473ffffffffffffffffffffffffffffffffffffffff1673ffffffffffffffffffffffffffffffffffffffff166327820851336040518263ffffffff1660e01b815260040161102e919061363f565b600060405180830381600087803b15801561104857600080fd5b505af115801561105c573d6000803e3d6000fd5b505050506040513d6000823e3d601f19601f820116820180604052508101906110859190613a05565b604051602001611095919061397e565b60405160208183030381529060405280519060200120146110b557600080fd5b806040516020016110c6919061397e565b60405160208183030381529060405280519060200120600160009054906101000a900473ffffffffffffffffffffffffffffffffffffffff1673ffffffffffffffffffffffffffffffffffffffff16634d6b5e00846040518263ffffffff1660e01b8152600401611137919061363f565b600060405180830381600087803b15801561115157600080fd5b505af1158015611165573d6000803e3d6000fd5b505050506040513d6000823e3d601f19601f8201168201806040525081019061118e9190613a05565b60405160200161119e919061397e565b60405160208183030381529060405280519060200120146111be57600080fd5b6000600160009054906101000a900473ffffffffffffffffffffffffffffffffffffffff1673ffffffffffffffffffffffffffffffffffffffff16636ea97cea8e8e8e8e8e8e8e8e8e6040518a63ffffffff1660e01b815260040161122b99989796959493929190613b31565b602060405180830381600087803b15801561124557600080fd5b505af1158015611259573d6000803e3d6000fd5b505050506040513d601f19601f8201168201806040525081019061127d9190613acd565b90508c73ffffffffffffffffffffffffffffffffffffffff163373ffffffffffffffffffffffffffffffffffffffff167fe10398ac963823ae3dc8fc855773d4c9c3d53c5aca656e360a2a5c2ae659f26160405160405180910390a38093505050509998505050505050505050565b6000856040518060400160405280600681526020017f5041434b4552000000000000000000000000000000000000000000000000000081525080604051602001611336919061397e565b60405160208183030381529060405280519060200120600160009054906101000a900473ffffffffffffffffffffffffffffffffffffffff1673ffffffffffffffffffffffffffffffffffffffff166327820851336040518263ffffffff1660e01b81526004016113a7919061363f565b600060405180830381600087803b1580156113c157600080fd5b505af11580156113d5573d6000803e3d6000fd5b505050506040513d6000823e3d601f19601f820116820180604052508101906113fe9190613a05565b60405160200161140e919061397e565b604051602081830303815290604052805190602001201461142e57600080fd5b8060405160200161143f919061397e565b60405160208183030381529060405280519060200120600160009054906101000a900473ffffffffffffffffffffffffffffffffffffffff1673ffffffffffffffffffffffffffffffffffffffff16634d6b5e00846040518263ffffffff1660e01b81526004016114b0919061363f565b600060405180830381600087803b1580156114ca57600080fd5b505af11580156114de573d6000803e3d6000fd5b505050506040513d6000823e3d601f19601f820116820180604052508101906115079190613a05565b604051602001611517919061397e565b604051602081830303815290604052805190602001201461153757600080fd5b6000600160009054906101000a900473ffffffffffffffffffffffffffffffffffffffff1673ffffffffffffffffffffffffffffffffffffffff166344ccaa2a8a8a8a8a8a6040518663ffffffff1660e01b815260040161159c959493929190613bef565b602060405180830381600087803b1580156115b657600080fd5b505af11580156115ca573d6000803e3d6000fd5b505050506040513d601f19601f820116820180604052508101906115ee9190613acd565b90508873ffffffffffffffffffffffffffffffffffffffff163373ffffffffffffffffffffffffffffffffffffffff167fd890838d97c86c0a57334d24ec4931d0f2cac80e50456962416c4efabccbd3bc60405160405180910390a380935050505095945050505050565b6060806000600160009054906101000a900473ffffffffffffffffffffffffffffffffffffffff1673ffffffffffffffffffffffffffffffffffffffff1663199351bb856040518263ffffffff1660e01b81526004016116b9919061363f565b600060405180830381600087803b1580156116d357600080fd5b505af11580156116e7573d6000803e3d6000fd5b505050506040513d6000823e3d601f19601f820116820180604052508101906117109190613c6c565b8093508194508295505050509193909250565b60608060606000600160009054906101000a900473ffffffffffffffffffffffffffffffffffffffff1673ffffffffffffffffffffffffffffffffffffffff16632b65dacc866040518263ffffffff1660e01b8152600401611785919061363f565b600060405180830381600087803b15801561179f57600080fd5b505af11580156117b3573d6000803e3d6000fd5b505050506040513d6000823e3d601f19601f820116820180604052508101906117dc9190613cf7565b809450819550829650839750505050509193509193565b606080606080600160009054906101000a900473ffffffffffffffffffffffffffffffffffffffff1673ffffffffffffffffffffffffffffffffffffffff166331016cb3866040518263ffffffff1660e01b8152600401611854919061363f565b600060405180830381600087803b15801561186e57600080fd5b505af1158015611882573d6000803e3d6000fd5b505050506040513d6000823e3d601f19601f820116820180604052508101906118ab9190613db2565b809450819550829650839750505050509193509193565b6060600160009054906101000a900473ffffffffffffffffffffffffffffffffffffffff1673ffffffffffffffffffffffffffffffffffffffff16634d6b5e00836040518263ffffffff1660e01b815260040161191f919061363f565b600060405180830381600087803b15801561193957600080fd5b505af115801561194d573d6000803e3d6000fd5b505050506040513d6000823e3d601f19601f820116820180604052508101906119769190613a05565b9050919050565b6060806060806060600080600160009054906101000a900473ffffffffffffffffffffffffffffffffffffffff1673ffffffffffffffffffffffffffffffffffffffff16636a7352d5896040518263ffffffff1660e01b81526004016119e3919061363f565b600060405180830381600087803b1580156119fd57600080fd5b505af1158015611a11573d6000803e3d6000fd5b505050506040513d6000823e3d601f19601f82011682018060405250810190611a3a9190613e89565b809750819850829950839a50849b50859c50869d5050505050505050919395979092949650565b60608060608060608060606000600160009054906101000a900473ffffffffffffffffffffffffffffffffffffffff1673ffffffffffffffffffffffffffffffffffffffff1663702a57588a6040518263ffffffff1660e01b8152600401611ac9919061363f565b600060405180830381600087803b158015611ae357600080fd5b505af1158015611af7573d6000803e3d6000fd5b505050506040513d6000823e3d601f19601f82011682018060405250810190611b209190613fb7565b809850819950829a50839b50849c50859d50869e50879f505050505050505050919395975091939597565b60008054906101000a900473ffffffffffffffffffffffffffffffffffffffff1673ffffffffffffffffffffffffffffffffffffffff163373ffffffffffffffffffffffffffffffffffffffff1614611ba357600080fd5b60008054906101000a900473ffffffffffffffffffffffffffffffffffffffff1673ffffffffffffffffffffffffffffffffffffffff167ff8df31144d9c2f0f6b59d69b8b98abd5459d07f2742c4df920b25aae33c6482060405160405180910390a260008060006101000a81548173ffffffffffffffffffffffffffffffffffffffff021916908373ffffffffffffffffffffffffffffffffffffffff160217905550565b6000856040518060400160405280600681526020017f4641524d4552000000000000000000000000000000000000000000000000000081525080604051602001611c93919061397e565b60405160208183030381529060405280519060200120600160009054906101000a900473ffffffffffffffffffffffffffffffffffffffff1673ffffffffffffffffffffffffffffffffffffffff166327820851336040518263ffffffff1660e01b8152600401611d04919061363f565b600060405180830381600087803b158015611d1e57600080fd5b505af1158015611d32573d6000803e3d6000fd5b505050506040513d6000823e3d601f19601f82011682018060405250810190611d5b9190613a05565b604051602001611d6b919061397e565b6040516020818303038152906040528051906020012014611d8b57600080fd5b80604051602001611d9c919061397e565b60405160208183030381529060405280519060200120600160009054906101000a900473ffffffffffffffffffffffffffffffffffffffff1673ffffffffffffffffffffffffffffffffffffffff16634d6b5e00846040518263ffffffff1660e01b8152600401611e0d919061363f565b600060405180830381600087803b158015611e2757600080fd5b505af1158015611e3b573d6000803e3d6000fd5b505050506040513d6000823e3d601f19601f82011682018060405250810190611e649190613a05565b604051602001611e74919061397e565b6040516020818303038152906040528051906020012014611e9457600080fd5b6000600160009054906101000a900473ffffffffffffffffffffffffffffffffffffffff1673ffffffffffffffffffffffffffffffffffffffff16632937e51d8a8a8a8a8a6040518663ffffffff1660e01b8152600401611ef9959493929190614131565b602060405180830381600087803b158015611f1357600080fd5b505af1158015611f27573d6000803e3d6000fd5b505050506040513d601f19601f82011682018060405250810190611f4b9190613acd565b90508873ffffffffffffffffffffffffffffffffffffffff163373ffffffffffffffffffffffffffffffffffffffff167fbb868668319b351e6f49e0d6ed1618eda15ffe73f6f6f371e419b8d3963a6be560405160405180910390a380935050505095945050505050565b60008054906101000a900473ffffffffffffffffffffffffffffffffffffffff1681565b6060806000600160009054906101000a900473ffffffffffffffffffffffffffffffffffffffff1673ffffffffffffffffffffffffffffffffffffffff16639045499f856040518263ffffffff1660e01b815260040161203a919061363f565b600060405180830381600087803b15801561205457600080fd5b505af1158015612068573d6000803e3d6000fd5b505050506040513d6000823e3d601f19601f820116820180604052508101906120919190613c6c565b8093508194508295505050509193909250565b600080600160009054906101000a900473ffffffffffffffffffffffffffffffffffffffff1673ffffffffffffffffffffffffffffffffffffffff1663bc8df35a846040518263ffffffff1660e01b8152600401612102919061363f565b6040805180830381600087803b15801561211b57600080fd5b505af115801561212f573d6000803e3d6000fd5b505050506040513d601f19601f8201168201806040525081019061215391906141a0565b8092508193505050915091565b6000846040518060400160405280600e81526020017f534849505045525f5041434b4552000000000000000000000000000000000000815250806040516020016121aa919061397e565b60405160208183030381529060405280519060200120600160009054906101000a900473ffffffffffffffffffffffffffffffffffffffff1673ffffffffffffffffffffffffffffffffffffffff166327820851336040518263ffffffff1660e01b815260040161221b919061363f565b600060405180830381600087803b15801561223557600080fd5b505af1158015612249573d6000803e3d6000fd5b505050506040513d6000823e3d601f19601f820116820180604052508101906122729190613a05565b604051602001612282919061397e565b60405160208183030381529060405280519060200120146122a257600080fd5b806040516020016122b3919061397e565b60405160208183030381529060405280519060200120600160009054906101000a900473ffffffffffffffffffffffffffffffffffffffff1673ffffffffffffffffffffffffffffffffffffffff16634d6b5e00846040518263ffffffff1660e01b8152600401612324919061363f565b600060405180830381600087803b15801561233e57600080fd5b505af1158015612352573d6000803e3d6000fd5b505050506040513d6000823e3d601f19601f8201168201806040525081019061237b9190613a05565b60405160200161238b919061397e565b60405160208183030381529060405280519060200120146123ab57600080fd5b6000600160009054906101000a900473ffffffffffffffffffffffffffffffffffffffff1673ffffffffffffffffffffffffffffffffffffffff16631a6760f5898989896040518563ffffffff1660e01b815260040161240e9493929190613a4e565b602060405180830381600087803b15801561242857600080fd5b505af115801561243c573d6000803e3d6000fd5b505050506040513d601f19601f820116820180604052508101906124609190613acd565b90508773ffffffffffffffffffffffffffffffffffffffff163373ffffffffffffffffffffffffffffffffffffffff167fdb60ad50700f49f79fb6147615e9cab059cecf3d1e347c55a5febeaba665ca9760405160405180910390a3809350505050949350505050565b6000886040518060400160405280600881526020017f52455441494c455200000000000000000000000000000000000000000000000081525080604051602001612514919061397e565b60405160208183030381529060405280519060200120600160009054906101000a900473ffffffffffffffffffffffffffffffffffffffff1673ffffffffffffffffffffffffffffffffffffffff166327820851336040518263ffffffff1660e01b8152600401612585919061363f565b600060405180830381600087803b15801561259f57600080fd5b505af11580156125b3573d6000803e3d6000fd5b505050506040513d6000823e3d601f19601f820116820180604052508101906125dc9190613a05565b6040516020016125ec919061397e565b604051602081830303815290604052805190602001201461260c57600080fd5b8060405160200161261d919061397e565b60405160208183030381529060405280519060200120600160009054906101000a900473ffffffffffffffffffffffffffffffffffffffff1673ffffffffffffffffffffffffffffffffffffffff16634d6b5e00846040518263ffffffff1660e01b815260040161268e919061363f565b600060405180830381600087803b1580156126a857600080fd5b505af11580156126bc573d6000803e3d6000fd5b505050506040513d6000823e3d601f19601f820116820180604052508101906126e59190613a05565b6040516020016126f5919061397e565b604051602081830303815290604052805190602001201461271557600080fd5b6000600160009054906101000a900473ffffffffffffffffffffffffffffffffffffffff1673ffffffffffffffffffffffffffffffffffffffff166356a86bb28d8d8d8d8d8d8d8d6040518963ffffffff1660e01b81526004016127809897969594939291906141e0565b602060405180830381600087803b15801561279a57600080fd5b505af11580156127ae573d6000803e3d6000fd5b505050506040513d601f19601f820116820180604052508101906127d29190613acd565b90508b73ffffffffffffffffffffffffffffffffffffffff163373ffffffffffffffffffffffffffffffffffffffff167f7776ae9d9087bfb3c17546ebefe0797f4554c225bc602d638a4d6d092a51899b60405160405180910390a380935050505098975050505050505050565b60008060009054906101000a900473ffffffffffffffffffffffffffffffffffffffff1673ffffffffffffffffffffffffffffffffffffffff163373ffffffffffffffffffffffffffffffffffffffff161461289b57600080fd5b6000600160009054906101000a900473ffffffffffffffffffffffffffffffffffffffff1673ffffffffffffffffffffffffffffffffffffffff16631dc6616388888888886040518663ffffffff1660e01b81526004016129009594939291906138cc565b602060405180830381600087803b15801561291a57600080fd5b505af115801561292e573d6000803e3d6000fd5b505050506040513d601f19601f820116820180604052508101906129529190614296565b90508073ffffffffffffffffffffffffffffffffffffffff163373ffffffffffffffffffffffffffffffffffffffff167fd29ff11b0fb95d403bf3a6ffdaf679ae2238ff21fa6a33b5e20a8418c2038fa860405160405180910390a38091505095945050505050565b6060806000600160009054906101000a900473ffffffffffffffffffffffffffffffffffffffff1673ffffffffffffffffffffffffffffffffffffffff1663f0804da6856040518263ffffffff1660e01b8152600401612a1b919061363f565b600060405180830381600087803b158015612a3557600080fd5b505af1158015612a49573d6000803e3d6000fd5b505050506040513d6000823e3d601f19601f82011682018060405250810190612a729190613c6c565b8093508194508295505050509193909250565b60008054906101000a900473ffffffffffffffffffffffffffffffffffffffff1673ffffffffffffffffffffffffffffffffffffffff163373ffffffffffffffffffffffffffffffffffffffff1614612add57600080fd5b600073ffffffffffffffffffffffffffffffffffffffff168173ffffffffffffffffffffffffffffffffffffffff161415612b1757600080fd5b8073ffffffffffffffffffffffffffffffffffffffff1660008054906101000a900473ffffffffffffffffffffffffffffffffffffffff1673ffffffffffffffffffffffffffffffffffffffff167f8be0079c531659141344cd1fd0a4f28419497f9722a3daafe3b4186f6b6457e060405160405180910390a3806000806101000a81548173ffffffffffffffffffffffffffffffffffffffff021916908373ffffffffffffffffffffffffffffffffffffffff16021790555050565b6060806060806060600160009054906101000a900473ffffffffffffffffffffffffffffffffffffffff1673ffffffffffffffffffffffffffffffffffffffff1663fb779ea5876040518263ffffffff1660e01b8152600401612c37919061363f565b600060405180830381600087803b158015612c5157600080fd5b505af1158015612c65573d6000803e3d6000fd5b505050506040513d6000823e3d601f19601f82011682018060405250810190612c8e91906142c3565b809550819650829750839850849950505050505091939590929450565b6000604051905090565b600080fd5b600080fd5b600073ffffffffffffffffffffffffffffffffffffffff82169050919050565b6000612cea82612cbf565b9050919050565b612cfa81612cdf565b8114612d0557600080fd5b50565b600081359050612d1781612cf1565b92915050565b600080fd5b600080fd5b6000601f19601f8301169050919050565b7f4e487b7100000000000000000000000000000000000000000000000000000000600052604160045260246000fd5b612d7082612d27565b810181811067ffffffffffffffff82111715612d8f57612d8e612d38565b5b80604052505050565b6000612da2612cab565b9050612dae8282612d67565b919050565b600067ffffffffffffffff821115612dce57612dcd612d38565b5b612dd782612d27565b9050602081019050919050565b82818337600083830152505050565b6000612e06612e0184612db3565b612d98565b905082815260208101848484011115612e2257612e21612d22565b5b612e2d848285612de4565b509392505050565b600082601f830112612e4a57612e49612d1d565b5b8135612e5a848260208601612df3565b91505092915050565b6000819050919050565b612e7681612e63565b8114612e8157600080fd5b50565b600081359050612e9381612e6d565b92915050565b60008060008060808587031215612eb357612eb2612cb5565b5b6000612ec187828801612d08565b945050602085013567ffffffffffffffff811115612ee257612ee1612cba565b5b612eee87828801612e35565b935050604085013567ffffffffffffffff811115612f0f57612f0e612cba565b5b612f1b87828801612e35565b9250506060612f2c87828801612e84565b91505092959194509250565b60008115159050919050565b612f4d81612f38565b82525050565b6000602082019050612f686000830184612f44565b92915050565b600080600060608486031215612f8757612f86612cb5565b5b6000612f9586828701612d08565b9350506020612fa686828701612e84565b9250506040612fb786828701612e84565b9150509250925092565b60008060008060008060008060006101208a8c031215612fe457612fe3612cb5565b5b6000612ff28c828d01612d08565b99505060208a013567ffffffffffffffff81111561301357613012612cba565b5b61301f8c828d01612e35565b98505060408a013567ffffffffffffffff8111156130405761303f612cba565b5b61304c8c828d01612e35565b97505060608a013567ffffffffffffffff81111561306d5761306c612cba565b5b6130798c828d01612e35565b96505060808a013567ffffffffffffffff81111561309a57613099612cba565b5b6130a68c828d01612e35565b95505060a08a013567ffffffffffffffff8111156130c7576130c6612cba565b5b6130d38c828d01612e35565b94505060c08a013567ffffffffffffffff8111156130f4576130f3612cba565b5b6131008c828d01612e35565b93505060e08a013567ffffffffffffffff81111561312157613120612cba565b5b61312d8c828d01612e35565b92505061010061313f8c828d01612e84565b9150509295985092959850929598565b600080600080600060a0868803121561316b5761316a612cb5565b5b600061317988828901612d08565b955050602086013567ffffffffffffffff81111561319a57613199612cba565b5b6131a688828901612e35565b945050604086013567ffffffffffffffff8111156131c7576131c6612cba565b5b6131d388828901612e35565b935050606086013567ffffffffffffffff8111156131f4576131f3612cba565b5b61320088828901612e35565b925050608061321188828901612e84565b9150509295509295909350565b60006020828403121561323457613233612cb5565b5b600061324284828501612d08565b91505092915050565b600081519050919050565b600082825260208201905092915050565b60005b8381101561328557808201518184015260208101905061326a565b83811115613294576000848401525b50505050565b60006132a58261324b565b6132af8185613256565b93506132bf818560208601613267565b6132c881612d27565b840191505092915050565b6132dc81612e63565b82525050565b600060608201905081810360008301526132fc818661329a565b90508181036020830152613310818561329a565b905061331f60408301846132d3565b949350505050565b60006080820190508181036000830152613341818761329a565b90508181036020830152613355818661329a565b90508181036040830152613369818561329a565b905061337860608301846132d3565b95945050505050565b6000608082019050818103600083015261339b818761329a565b905081810360208301526133af818661329a565b905081810360408301526133c3818561329a565b905081810360608301526133d7818461329a565b905095945050505050565b600060208201905081810360008301526133fc818461329a565b905092915050565b600060e082019050818103600083015261341e818a61329a565b90508181036020830152613432818961329a565b90508181036040830152613446818861329a565b9050818103606083015261345a818761329a565b9050818103608083015261346e818661329a565b905061347d60a08301856132d3565b61348a60c08301846132d3565b98975050505050505050565b60006101008201905081810360008301526134b1818b61329a565b905081810360208301526134c5818a61329a565b905081810360408301526134d9818961329a565b905081810360608301526134ed818861329a565b90508181036080830152613501818761329a565b905081810360a0830152613515818661329a565b905081810360c0830152613529818561329a565b905061353860e08301846132d3565b9998505050505050505050565b600080600080600060a0868803121561356157613560612cb5565b5b600061356f88828901612d08565b955050602086013567ffffffffffffffff8111156135905761358f612cba565b5b61359c88828901612e35565b945050604086013567ffffffffffffffff8111156135bd576135bc612cba565b5b6135c988828901612e35565b935050606086013567ffffffffffffffff8111156135ea576135e9612cba565b5b6135f688828901612e35565b925050608086013567ffffffffffffffff81111561361757613616612cba565b5b61362388828901612e35565b9150509295509295909350565b61363981612cdf565b82525050565b60006020820190506136546000830184613630565b92915050565b600060408201905061366f60008301856132d3565b61367c60208301846132d3565b9392505050565b600080600080600080600080610100898b0312156136a4576136a3612cb5565b5b60006136b28b828c01612d08565b985050602089013567ffffffffffffffff8111156136d3576136d2612cba565b5b6136df8b828c01612e35565b975050604089013567ffffffffffffffff811115613700576136ff612cba565b5b61370c8b828c01612e35565b965050606089013567ffffffffffffffff81111561372d5761372c612cba565b5b6137398b828c01612e35565b955050608089013567ffffffffffffffff81111561375a57613759612cba565b5b6137668b828c01612e35565b94505060a089013567ffffffffffffffff81111561378757613786612cba565b5b6137938b828c01612e35565b93505060c06137a48b828c01612e84565b92505060e06137b58b828c01612e84565b9150509295985092959890939650565b600080600080600060a086880312156137e1576137e0612cb5565b5b600086013567ffffffffffffffff8111156137ff576137fe612cba565b5b61380b88828901612e35565b955050602086013567ffffffffffffffff81111561382c5761382b612cba565b5b61383888828901612e35565b945050604086013567ffffffffffffffff81111561385957613858612cba565b5b61386588828901612e35565b935050606086013567ffffffffffffffff81111561388657613885612cba565b5b61389288828901612e35565b925050608086013567ffffffffffffffff8111156138b3576138b2612cba565b5b6138bf88828901612e35565b9150509295509295909350565b600060a08201905081810360008301526138e6818861329a565b905081810360208301526138fa818761329a565b9050818103604083015261390e818661329a565b90508181036060830152613922818561329a565b90508181036080830152613936818461329a565b90509695505050505050565b600081905092915050565b60006139588261324b565b6139628185613942565b9350613972818560208601613267565b80840191505092915050565b600061398a828461394d565b915081905092915050565b60006139a86139a384612db3565b612d98565b9050828152602081018484840111156139c4576139c3612d22565b5b6139cf848285613267565b509392505050565b600082601f8301126139ec576139eb612d1d565b5b81516139fc848260208601613995565b91505092915050565b600060208284031215613a1b57613a1a612cb5565b5b600082015167ffffffffffffffff811115613a3957613a38612cba565b5b613a45848285016139d7565b91505092915050565b6000608082019050613a636000830187613630565b8181036020830152613a75818661329a565b90508181036040830152613a89818561329a565b9050613a9860608301846132d3565b95945050505050565b613aaa81612f38565b8114613ab557600080fd5b50565b600081519050613ac781613aa1565b92915050565b600060208284031215613ae357613ae2612cb5565b5b6000613af184828501613ab8565b91505092915050565b6000606082019050613b0f6000830186613630565b613b1c60208301856132d3565b613b2960408301846132d3565b949350505050565b600061012082019050613b47600083018c613630565b8181036020830152613b59818b61329a565b90508181036040830152613b6d818a61329a565b90508181036060830152613b81818961329a565b90508181036080830152613b95818861329a565b905081810360a0830152613ba9818761329a565b905081810360c0830152613bbd818661329a565b905081810360e0830152613bd1818561329a565b9050613be16101008301846132d3565b9a9950505050505050505050565b600060a082019050613c046000830188613630565b8181036020830152613c16818761329a565b90508181036040830152613c2a818661329a565b90508181036060830152613c3e818561329a565b9050613c4d60808301846132d3565b9695505050505050565b600081519050613c6681612e6d565b92915050565b600080600060608486031215613c8557613c84612cb5565b5b600084015167ffffffffffffffff811115613ca357613ca2612cba565b5b613caf868287016139d7565b935050602084015167ffffffffffffffff811115613cd057613ccf612cba565b5b613cdc868287016139d7565b9250506040613ced86828701613c57565b9150509250925092565b60008060008060808587031215613d1157613d10612cb5565b5b600085015167ffffffffffffffff811115613d2f57613d2e612cba565b5b613d3b878288016139d7565b945050602085015167ffffffffffffffff811115613d5c57613d5b612cba565b5b613d68878288016139d7565b935050604085015167ffffffffffffffff811115613d8957613d88612cba565b5b613d95878288016139d7565b9250506060613da687828801613c57565b91505092959194509250565b60008060008060808587031215613dcc57613dcb612cb5565b5b600085015167ffffffffffffffff811115613dea57613de9612cba565b5b613df6878288016139d7565b945050602085015167ffffffffffffffff811115613e1757613e16612cba565b5b613e23878288016139d7565b935050604085015167ffffffffffffffff811115613e4457613e43612cba565b5b613e50878288016139d7565b925050606085015167ffffffffffffffff811115613e7157613e70612cba565b5b613e7d878288016139d7565b91505092959194509250565b600080600080600080600060e0888a031215613ea857613ea7612cb5565b5b600088015167ffffffffffffffff811115613ec657613ec5612cba565b5b613ed28a828b016139d7565b975050602088015167ffffffffffffffff811115613ef357613ef2612cba565b5b613eff8a828b016139d7565b965050604088015167ffffffffffffffff811115613f2057613f1f612cba565b5b613f2c8a828b016139d7565b955050606088015167ffffffffffffffff811115613f4d57613f4c612cba565b5b613f598a828b016139d7565b945050608088015167ffffffffffffffff811115613f7a57613f79612cba565b5b613f868a828b016139d7565b93505060a0613f978a828b01613c57565b92505060c0613fa88a828b01613c57565b91505092959891949750929550565b600080600080600080600080610100898b031215613fd857613fd7612cb5565b5b600089015167ffffffffffffffff811115613ff657613ff5612cba565b5b6140028b828c016139d7565b985050602089015167ffffffffffffffff81111561402357614022612cba565b5b61402f8b828c016139d7565b975050604089015167ffffffffffffffff8111156140505761404f612cba565b5b61405c8b828c016139d7565b965050606089015167ffffffffffffffff81111561407d5761407c612cba565b5b6140898b828c016139d7565b955050608089015167ffffffffffffffff8111156140aa576140a9612cba565b5b6140b68b828c016139d7565b94505060a089015167ffffffffffffffff8111156140d7576140d6612cba565b5b6140e38b828c016139d7565b93505060c089015167ffffffffffffffff81111561410457614103612cba565b5b6141108b828c016139d7565b92505060e06141218b828c01613c57565b9150509295985092959890939650565b600060a0820190506141466000830188613630565b8181036020830152614158818761329a565b9050818103604083015261416c818661329a565b90508181036060830152614180818561329a565b90508181036080830152614194818461329a565b90509695505050505050565b600080604083850312156141b7576141b6612cb5565b5b60006141c585828601613c57565b92505060206141d685828601613c57565b9150509250929050565b6000610100820190506141f6600083018b613630565b8181036020830152614208818a61329a565b9050818103604083015261421c818961329a565b90508181036060830152614230818861329a565b90508181036080830152614244818761329a565b905081810360a0830152614258818661329a565b905061426760c08301856132d3565b61427460e08301846132d3565b9998505050505050505050565b60008151905061429081612cf1565b92915050565b6000602082840312156142ac576142ab612cb5565b5b60006142ba84828501614281565b91505092915050565b600080600080600060a086880312156142df576142de612cb5565b5b600086015167ffffffffffffffff8111156142fd576142fc612cba565b5b614309888289016139d7565b955050602086015167ffffffffffffffff81111561432a57614329612cba565b5b614336888289016139d7565b945050604086015167ffffffffffffffff81111561435757614356612cba565b5b614363888289016139d7565b935050606086015167ffffffffffffffff81111561438457614383612cba565b5b614390888289016139d7565b925050608086015167ffffffffffffffff8111156143b1576143b0612cba565b5b6143bd888289016139d7565b915050929550929590935056fea264697066735822122055d011cfe02c55868426c54a7d6ff3b5669fcb42a5ea796225c3c30f90a9f81064736f6c63430008090033",
  "immutableReferences": {},
  "source": "//SPDX-License-Identifier: MIT\n\npragma solidity ^0.8.9;\n\nimport \"./SupplyChainStorage.sol\";\nimport \"./Ownable.sol\";\n\ncontract CoffeeSupplyChain is Ownable {\n    event SetFarmDetails(address indexed user, address indexed batchNo);\n    event DoneHarvesting(address indexed user, address indexed batchNo);\n    event DoneProcessing(address indexed user, address indexed batchNo);\n    event SetGrainData(address indexed user, address indexed batchNo);\n    event DoneAgglomeration(address indexed user, address indexed batchNo);\n    event DoneShippingPacker(address indexed user, address indexed batchNo);\n    event DonePackaging(address indexed user, address indexed batchNo);\n    event DoneShippingRetailer(address indexed user, address indexed batchNo);\n    event DoneRetailer(address indexed user, address indexed batchNo);\n\n    modifier isValidPerformer(address batchNo, string memory role) {\n        require(\n            keccak256(\n                abi.encodePacked(supplyChainStorage.getUserRole(msg.sender))\n            ) == keccak256(abi.encodePacked(role))\n        );\n        require(\n            keccak256(\n                abi.encodePacked(supplyChainStorage.getNextAction(batchNo))\n            ) == keccak256(abi.encodePacked(role))\n        );\n        _;\n    }\n\n    SupplyChainStorage supplyChainStorage;\n\n    constructor(address _supplyChainStorage) {\n        supplyChainStorage = SupplyChainStorage(_supplyChainStorage);\n    }\n\n    function getNextAction(address _batchNo)\n        public\n        returns (string memory action)\n    {\n        (action) = supplyChainStorage.getNextAction(_batchNo);\n        return (action);\n    }\n\n    function getFarmDetails(address _batchNo)\n        public\n        returns (\n            string memory registrationNo,\n            string memory farmName,\n            string memory latitude,\n            string memory longitude,\n            string memory farmAddress\n        )\n    {\n        (\n            registrationNo,\n            farmName,\n            latitude,\n            longitude,\n            farmAddress\n        ) = supplyChainStorage.getFarmDetails(_batchNo);\n        return (registrationNo, farmName, latitude, longitude, farmAddress);\n    }\n\n    function addFarmDetails(\n        string memory _registrationNo,\n        string memory _farmName,\n        string memory _latitude,\n        string memory _longitude,\n        string memory _farmAddress\n    ) public onlyOwner returns (address) {\n        address batchNo = supplyChainStorage.setFarmDetails(\n            _registrationNo,\n            _farmName,\n            _latitude,\n            _longitude,\n            _farmAddress\n        );\n\n        emit SetFarmDetails(msg.sender, batchNo);\n\n        return (batchNo);\n    }\n\n    function addHarvestData(\n        address _batchNo,\n        string memory _coffeeFamily,\n        string memory _typeOfSeed,\n        string memory _fertilizerUsed,\n        string memory _harvestDate\n    ) public isValidPerformer(_batchNo, \"FARMER\") returns (bool) {\n        bool status = supplyChainStorage.setHarvestData(\n            _batchNo,\n            _coffeeFamily,\n            _typeOfSeed,\n            _fertilizerUsed,\n            _harvestDate\n        );\n\n        emit DoneHarvesting(msg.sender, _batchNo);\n\n        return (status);\n    }\n\n    function getHarvestData(address _batchNo)\n        public\n        returns (\n            string memory coffeeFamily,\n            string memory typeOfSeed,\n            string memory fertilizerUsed,\n            string memory harvestDate\n        )\n    {\n        (\n            coffeeFamily,\n            typeOfSeed,\n            fertilizerUsed,\n            harvestDate\n        ) = supplyChainStorage.getHarvestData(_batchNo);\n\n        return (coffeeFamily, typeOfSeed, fertilizerUsed, harvestDate);\n    }\n\n    function addProcessData(\n        address _batchNo,\n        string memory _procAddress,\n        string memory _typeOfDrying,\n        string memory _roastImageHash,\n        string memory _roastTemp,\n        string memory _typeOfRoast,\n        string memory _roastDate,\n        string memory _millDate,\n        uint256 _processorPrice\n    ) public isValidPerformer(_batchNo, \"PROCESSOR\") returns (bool) {\n        bool status = supplyChainStorage.setProcessData(\n            _batchNo,\n            _procAddress,\n            _typeOfDrying,\n            _roastImageHash,\n            _roastTemp,\n            _typeOfRoast,\n            _roastDate,\n            _millDate,\n            _processorPrice\n        );\n\n        emit DoneProcessing(msg.sender, _batchNo);\n\n        return (status);\n    }\n\n    function getProcessData(address _batchNo)\n        public\n        returns (\n            string memory procAddress,\n            string memory typeOfDrying,\n            string memory roastImageHash,\n            string memory roastTemp,\n            string memory typeOfRoast,\n            string memory roastDate,\n            string memory millDate,\n            uint256 processorPrice\n        )\n    {\n        (\n            procAddress,\n            typeOfDrying,\n            roastImageHash,\n            roastTemp,\n            typeOfRoast,\n            roastDate,\n            millDate,\n            processorPrice\n        ) = supplyChainStorage.getProcessData(_batchNo);\n\n        return (\n            procAddress,\n            typeOfDrying,\n            roastImageHash,\n            roastTemp,\n            typeOfRoast,\n            roastDate,\n            millDate,\n            processorPrice\n        );\n    }\n\n    function addGrainData(\n        address _batchNo,\n        uint256 _tasteScore,\n        uint256 _grainPrice\n    ) public isValidPerformer(_batchNo, \"GRAIN_INSPECTOR\") returns (bool) {\n        bool status = supplyChainStorage.setGrainData(\n            _batchNo,\n            _tasteScore,\n            _grainPrice\n        );\n\n        emit SetGrainData(msg.sender, _batchNo);\n\n        return (status);\n    }\n\n    function getGrainData(address _batchNo)\n        public\n        returns (uint256 tasteScore, uint256 grainPrice)\n    {\n        (tasteScore, grainPrice) = supplyChainStorage.getGrainData(_batchNo);\n\n        return (tasteScore, grainPrice);\n    }\n\n    function addAgglomData(\n        address _batchNo,\n        string memory _agglomAddress,\n        string memory _agglomDate,\n        uint256 _storagePrice\n    ) public isValidPerformer(_batchNo, \"AGGLOMERATOR\") returns (bool) {\n        bool status = supplyChainStorage.setAgglomData(\n            _batchNo,\n            _agglomAddress,\n            _agglomDate,\n            _storagePrice\n        );\n\n        emit DoneAgglomeration(msg.sender, _batchNo);\n\n        return (status);\n    }\n\n    function getAgglomData(address _batchNo)\n        public\n        returns (\n            string memory agglomAddress,\n            string memory agglomDate,\n            uint256 storagePrice\n        )\n    {\n        (agglomAddress, agglomDate, storagePrice) = supplyChainStorage\n            .getAgglomData(_batchNo);\n\n        return (agglomAddress, agglomDate, storagePrice);\n    }\n\n    function addShipPackerData(\n        address _batchNo,\n        string memory _transportTypeP,\n        string memory _pickupDateP,\n        uint256 _shipPriceP\n    ) public isValidPerformer(_batchNo, \"SHIPPER_PACKER\") returns (bool) {\n        bool status = supplyChainStorage.setShipPackerData(\n            _batchNo,\n            _transportTypeP,\n            _pickupDateP,\n            _shipPriceP\n        );\n\n        emit DoneShippingPacker(msg.sender, _batchNo);\n\n        return (status);\n    }\n\n    function getShipPackerData(address _batchNo)\n        public\n        returns (\n            string memory transportTypeP,\n            string memory pickupDateP,\n            uint256 shipPriceP\n        )\n    {\n        (transportTypeP, pickupDateP, shipPriceP) = supplyChainStorage\n            .getShipPackerData(_batchNo);\n\n        return (transportTypeP, pickupDateP, shipPriceP);\n    }\n\n    function addPackData(\n        address _batchNo,\n        string memory _packAddress,\n        string memory _arrivalDateP,\n        string memory _packDate,\n        uint256 _packPrice\n    ) public isValidPerformer(_batchNo, \"PACKER\") returns (bool) {\n        bool status = supplyChainStorage.setPackData(\n            _batchNo,\n            _packAddress,\n            _arrivalDateP,\n            _packDate,\n            _packPrice\n        );\n\n        emit DonePackaging(msg.sender, _batchNo);\n\n        return (status);\n    }\n\n    function getPackData(address _batchNo)\n        public\n        returns (\n            string memory packAddress,\n            string memory arrivalDateP,\n            string memory packDate,\n            uint256 packPrice\n        )\n    {\n        (packAddress, arrivalDateP, packDate, packPrice) = supplyChainStorage\n            .getPackData(_batchNo);\n\n        return (packAddress, arrivalDateP, packDate, packPrice);\n    }\n\n    function addShipRetailerData(\n        address _batchNo,\n        string memory _transportTypeR,\n        string memory _pickupDateR,\n        uint256 _shipPriceR\n    ) public isValidPerformer(_batchNo, \"SHIPPER_RETAILER\") returns (bool) {\n        bool status = supplyChainStorage.setShipRetailerData(\n            _batchNo,\n            _transportTypeR,\n            _pickupDateR,\n            _shipPriceR\n        );\n\n        emit DoneShippingRetailer(msg.sender, _batchNo);\n\n        return (status);\n    }\n\n    function getShipRetailerData(address _batchNo)\n        public\n        returns (\n            string memory transportTypeR,\n            string memory pickupDateR,\n            uint256 shipPriceR\n        )\n    {\n        (transportTypeR, pickupDateR, shipPriceR) = supplyChainStorage\n            .getShipRetailerData(_batchNo);\n\n        return (transportTypeR, pickupDateR, shipPriceR);\n    }\n\n    function addRetailerData(\n        address _batchNo,\n        string memory _arrivalDateW,\n        string memory _arrivalDateSP,\n        string memory _warehouseName,\n        string memory _warehouseAddress,\n        string memory _salePointAddress,\n        uint256 _shipPriceSP,\n        uint256 _productPrice\n    ) public isValidPerformer(_batchNo, \"RETAILER\") returns (bool) {\n        bool status = supplyChainStorage.setRetailerData(\n            _batchNo,\n            _arrivalDateW,\n            _arrivalDateSP,\n            _warehouseName,\n            _warehouseAddress,\n            _salePointAddress,\n            _shipPriceSP,\n            _productPrice\n        );\n\n        emit DoneRetailer(msg.sender, _batchNo);\n\n        return (status);\n    }\n\n    function getRetailerData(address _batchNo)\n        public\n        returns (\n            string memory arrivalDateW,\n            string memory arrivalDateSP,\n            string memory warehouseName,\n            string memory warehouseAddress,\n            string memory salePointAddress,\n            uint256 shipPriceSP,\n            uint256 productPrice\n        )\n    {\n        (\n            arrivalDateW,\n            arrivalDateSP,\n            warehouseName,\n            warehouseAddress,\n            salePointAddress,\n            shipPriceSP,\n            productPrice\n        ) = supplyChainStorage.getRetailerData(_batchNo);\n\n        return (\n            arrivalDateW,\n            arrivalDateSP,\n            warehouseName,\n            warehouseAddress,\n            salePointAddress,\n            shipPriceSP,\n            productPrice\n        );\n    }\n}\n",
  "sourcePath": "/home/nathalia/TESIS/coffee-supply-chain-tracking-system-ethereum/contracts/CoffeeSupplyChain.sol",
  "compiler": {
    "name": "solc",
    "version": "0.8.9+commit.e5eed63a.Emscripten.clang"
  },
  "schemaVersion": "3.4.4",
  "updatedAt": "2022-04-07T07:18:23.038Z",
  "networkType": "ethereum",
  "devdoc": {
    "kind": "dev",
    "methods": {},
    "version": 1
  },
  "userdoc": {
    "kind": "user",
    "methods": {},
    "version": 1
  }
}