{
  "contractName": "Supplychain",
  "abi": [
    {
      "inputs": [],
      "stateMutability": "nonpayable",
      "type": "constructor"
    },
    {
      "anonymous": false,
      "inputs": [
        {
          "indexed": false,
          "internalType": "address",
          "name": "caller",
          "type": "address"
        }
      ],
      "name": "AuthorizedCaller",
      "type": "event"
    },
    {
      "anonymous": false,
      "inputs": [
        {
          "indexed": false,
          "internalType": "address",
          "name": "caller",
          "type": "address"
        }
      ],
      "name": "DeAuthorizedCaller",
      "type": "event"
    },
    {
      "anonymous": false,
      "inputs": [
        {
          "indexed": false,
          "internalType": "address",
          "name": "userAddress",
          "type": "address"
        }
      ],
      "name": "UserRoleUpdate",
      "type": "event"
    },
    {
      "anonymous": false,
      "inputs": [
        {
          "indexed": false,
          "internalType": "address",
          "name": "userAddress",
          "type": "address"
        }
      ],
      "name": "UserUpdate",
      "type": "event"
    },
    {
      "inputs": [],
      "name": "lastAccess",
      "outputs": [
        {
          "internalType": "address",
          "name": "",
          "type": "address"
        }
      ],
      "stateMutability": "view",
      "type": "function"
    },
    {
      "inputs": [
        {
          "internalType": "address",
          "name": "_caller",
          "type": "address"
        }
      ],
      "name": "authorizeCaller",
      "outputs": [
        {
          "internalType": "bool",
          "name": "",
          "type": "bool"
        }
      ],
      "stateMutability": "nonpayable",
      "type": "function"
    },
    {
      "inputs": [
        {
          "internalType": "address",
          "name": "_caller",
          "type": "address"
        }
      ],
      "name": "deAuthorizeCaller",
      "outputs": [
        {
          "internalType": "bool",
          "name": "",
          "type": "bool"
        }
      ],
      "stateMutability": "nonpayable",
      "type": "function"
    },
    {
      "inputs": [
        {
          "internalType": "address",
          "name": "_userAddress",
          "type": "address"
        },
        {
          "internalType": "string",
          "name": "_name",
          "type": "string"
        },
        {
          "internalType": "string",
          "name": "_contactNo",
          "type": "string"
        },
        {
          "internalType": "string",
          "name": "_role",
          "type": "string"
        },
        {
          "internalType": "bool",
          "name": "_isActive",
          "type": "bool"
        },
        {
          "internalType": "string",
          "name": "_profileHash",
          "type": "string"
        }
      ],
      "name": "setUser",
      "outputs": [
        {
          "internalType": "bool",
          "name": "",
          "type": "bool"
        }
      ],
      "stateMutability": "nonpayable",
      "type": "function"
    },
    {
      "inputs": [
        {
          "internalType": "address",
          "name": "_userAddress",
          "type": "address"
        }
      ],
      "name": "getUserRole",
      "outputs": [
        {
          "internalType": "string",
          "name": "",
          "type": "string"
        }
      ],
      "stateMutability": "nonpayable",
      "type": "function"
    },
    {
      "inputs": [
        {
          "internalType": "address",
          "name": "_userAddress",
          "type": "address"
        }
      ],
      "name": "getUser",
      "outputs": [
        {
          "internalType": "string",
          "name": "name",
          "type": "string"
        },
        {
          "internalType": "string",
          "name": "contactNo",
          "type": "string"
        },
        {
          "internalType": "string",
          "name": "role",
          "type": "string"
        },
        {
          "internalType": "bool",
          "name": "isActive",
          "type": "bool"
        },
        {
          "internalType": "string",
          "name": "profileHash",
          "type": "string"
        }
      ],
      "stateMutability": "nonpayable",
      "type": "function"
    }
  ],
  "bytecode": "0x608060405234801561001057600080fd5b506001600360003373ffffffffffffffffffffffffffffffffffffffff1673ffffffffffffffffffffffffffffffffffffffff16815260200190815260200160002060006101000a81548160ff021916908360ff1602179055507f8afeca650897be3183b7c0d24eba96a1b990f75c4bd74a0cfb2c0a71aec48e613360405161009991906100b5565b60405180910390a1610102565b6100af816100d0565b82525050565b60006020820190506100ca60008301846100a6565b92915050565b60006100db826100e2565b9050919050565b600073ffffffffffffffffffffffffffffffffffffffff82169050919050565b6110ee806101116000396000f3fe608060405234801561001057600080fd5b50600436106100625760003560e01c80631bcd250a1461006757806327820851146100975780632c388d5d146100c75780633480898b146100f75780636f77926b14610115578063fb7a20af14610149575b600080fd5b610081600480360381019061007c9190610c6a565b610179565b60405161008e9190610e06565b60405180910390f35b6100b160048036038101906100ac9190610c6a565b610213565b6040516100be9190610e21565b60405180910390f35b6100e160048036038101906100dc9190610c6a565b610380565b6040516100ee9190610e06565b60405180910390f35b6100ff61041b565b60405161010c9190610deb565b60405180910390f35b61012f600480360381019061012a9190610c6a565b61043f565b604051610140959493929190610e43565b60405180910390f35b610163600480360381019061015e9190610c97565b6107f6565b6040516101709190610e06565b60405180910390f35b600080600360008473ffffffffffffffffffffffffffffffffffffffff1673ffffffffffffffffffffffffffffffffffffffff16815260200190815260200160002060006101000a81548160ff021916908360ff1602179055507f9e8ca6ff03906e81e8a6a03d4f96b7edb0b97f0ed9d07ef1b699fff634385496826040516102029190610deb565b60405180910390a160019050919050565b6060336000806101000a81548173ffffffffffffffffffffffffffffffffffffffff021916908373ffffffffffffffffffffffffffffffffffffffff1602179055506001600360003373ffffffffffffffffffffffffffffffffffffffff1673ffffffffffffffffffffffffffffffffffffffff16815260200190815260200160002060009054906101000a900460ff1660ff16146102b157600080fd5b600260008373ffffffffffffffffffffffffffffffffffffffff1673ffffffffffffffffffffffffffffffffffffffff16815260200190815260200160002080546102fb90610fa4565b80601f016020809104026020016040519081016040528092919081815260200182805461032790610fa4565b80156103745780601f1061034957610100808354040283529160200191610374565b820191906000526020600020905b81548152906001019060200180831161035757829003601f168201915b50505050509050919050565b60006001600360008473ffffffffffffffffffffffffffffffffffffffff1673ffffffffffffffffffffffffffffffffffffffff16815260200190815260200160002060006101000a81548160ff021916908360ff1602179055507f8afeca650897be3183b7c0d24eba96a1b990f75c4bd74a0cfb2c0a71aec48e618260405161040a9190610deb565b60405180910390a160019050919050565b60008054906101000a900473ffffffffffffffffffffffffffffffffffffffff1681565b606080606060006060336000806101000a81548173ffffffffffffffffffffffffffffffffffffffff021916908373ffffffffffffffffffffffffffffffffffffffff1602179055506001600360003373ffffffffffffffffffffffffffffffffffffffff1673ffffffffffffffffffffffffffffffffffffffff16815260200190815260200160002060009054906101000a900460ff1660ff16146104e457600080fd5b6000600160008873ffffffffffffffffffffffffffffffffffffffff1673ffffffffffffffffffffffffffffffffffffffff16815260200190815260200160002060405180608001604052908160008201805461054090610fa4565b80601f016020809104026020016040519081016040528092919081815260200182805461056c90610fa4565b80156105b95780601f1061058e576101008083540402835291602001916105b9565b820191906000526020600020905b81548152906001019060200180831161059c57829003601f168201915b505050505081526020016001820180546105d290610fa4565b80601f01602080910402602001604051908101604052809291908181526020018280546105fe90610fa4565b801561064b5780601f106106205761010080835404028352916020019161064b565b820191906000526020600020905b81548152906001019060200180831161062e57829003601f168201915b505050505081526020016002820160009054906101000a900460ff1615151515815260200160038201805461067f90610fa4565b80601f01602080910402602001604051908101604052809291908181526020018280546106ab90610fa4565b80156106f85780601f106106cd576101008083540402835291602001916106f8565b820191906000526020600020905b8154815290600101906020018083116106db57829003601f168201915b505050505081525050905080600001518160200151600260008a73ffffffffffffffffffffffffffffffffffffffff1673ffffffffffffffffffffffffffffffffffffffff1681526020019081526020016000208360400151846060015182805461076290610fa4565b80601f016020809104026020016040519081016040528092919081815260200182805461078e90610fa4565b80156107db5780601f106107b0576101008083540402835291602001916107db565b820191906000526020600020905b8154815290600101906020018083116107be57829003601f168201915b50505050509250955095509550955095505091939590929450565b6000336000806101000a81548173ffffffffffffffffffffffffffffffffffffffff021916908373ffffffffffffffffffffffffffffffffffffffff1602179055506001600360003373ffffffffffffffffffffffffffffffffffffffff1673ffffffffffffffffffffffffffffffffffffffff16815260200190815260200160002060009054906101000a900460ff1660ff161461089457600080fd5b85600460000190805190602001906108ad929190610aa0565b5084600460010190805190602001906108c7929190610aa0565b5082600460020160006101000a81548160ff02191690831515021790555081600460030190805190602001906108fe929190610aa0565b506004600160008973ffffffffffffffffffffffffffffffffffffffff1673ffffffffffffffffffffffffffffffffffffffff168152602001908152602001600020600082018160000190805461095490610fa4565b61095f929190610b26565b50600182018160010190805461097490610fa4565b61097f929190610b26565b506002820160009054906101000a900460ff168160020160006101000a81548160ff02191690831515021790555060038201816003019080546109c190610fa4565b6109cc929190610b26565b5090505083600260008973ffffffffffffffffffffffffffffffffffffffff1673ffffffffffffffffffffffffffffffffffffffff1681526020019081526020016000209080519060200190610a23929190610aa0565b507f1d222b775a8ac40f88e57f60a9f9cef32825dee88b7d0a2e757e7dd2082cbe7787604051610a539190610deb565b60405180910390a17f5108391b825bd4c3d7f3c6a8d5cb1dfb3d7db4e2663bdef2d6a43643d6c3851387604051610a8a9190610deb565b60405180910390a1600190509695505050505050565b828054610aac90610fa4565b90600052602060002090601f016020900481019282610ace5760008555610b15565b82601f10610ae757805160ff1916838001178555610b15565b82800160010185558215610b15579182015b82811115610b14578251825591602001919060010190610af9565b5b509050610b229190610bb3565b5090565b828054610b3290610fa4565b90600052602060002090601f016020900481019282610b545760008555610ba2565b82601f10610b655780548555610ba2565b82800160010185558215610ba257600052602060002091601f016020900482015b82811115610ba1578254825591600101919060010190610b86565b5b509050610baf9190610bb3565b5090565b5b80821115610bcc576000816000905550600101610bb4565b5090565b6000610be3610bde84610ed7565b610eb2565b905082815260208101848484011115610bff57610bfe61106a565b5b610c0a848285610f62565b509392505050565b600081359050610c218161108a565b92915050565b600081359050610c36816110a1565b92915050565b600082601f830112610c5157610c50611065565b5b8135610c61848260208601610bd0565b91505092915050565b600060208284031215610c8057610c7f611074565b5b6000610c8e84828501610c12565b91505092915050565b60008060008060008060c08789031215610cb457610cb3611074565b5b6000610cc289828a01610c12565b965050602087013567ffffffffffffffff811115610ce357610ce261106f565b5b610cef89828a01610c3c565b955050604087013567ffffffffffffffff811115610d1057610d0f61106f565b5b610d1c89828a01610c3c565b945050606087013567ffffffffffffffff811115610d3d57610d3c61106f565b5b610d4989828a01610c3c565b9350506080610d5a89828a01610c27565b92505060a087013567ffffffffffffffff811115610d7b57610d7a61106f565b5b610d8789828a01610c3c565b9150509295509295509295565b610d9d81610f24565b82525050565b610dac81610f36565b82525050565b6000610dbd82610f08565b610dc78185610f13565b9350610dd7818560208601610f71565b610de081611079565b840191505092915050565b6000602082019050610e006000830184610d94565b92915050565b6000602082019050610e1b6000830184610da3565b92915050565b60006020820190508181036000830152610e3b8184610db2565b905092915050565b600060a0820190508181036000830152610e5d8188610db2565b90508181036020830152610e718187610db2565b90508181036040830152610e858186610db2565b9050610e946060830185610da3565b8181036080830152610ea68184610db2565b90509695505050505050565b6000610ebc610ecd565b9050610ec88282610fd6565b919050565b6000604051905090565b600067ffffffffffffffff821115610ef257610ef1611036565b5b610efb82611079565b9050602081019050919050565b600081519050919050565b600082825260208201905092915050565b6000610f2f82610f42565b9050919050565b60008115159050919050565b600073ffffffffffffffffffffffffffffffffffffffff82169050919050565b82818337600083830152505050565b60005b83811015610f8f578082015181840152602081019050610f74565b83811115610f9e576000848401525b50505050565b60006002820490506001821680610fbc57607f821691505b60208210811415610fd057610fcf611007565b5b50919050565b610fdf82611079565b810181811067ffffffffffffffff82111715610ffe57610ffd611036565b5b80604052505050565b7f4e487b7100000000000000000000000000000000000000000000000000000000600052602260045260246000fd5b7f4e487b7100000000000000000000000000000000000000000000000000000000600052604160045260246000fd5b600080fd5b600080fd5b600080fd5b600080fd5b6000601f19601f8301169050919050565b61109381610f24565b811461109e57600080fd5b50565b6110aa81610f36565b81146110b557600080fd5b5056fea2646970667358221220b2dc59da46e18b5cde167a359b5d240d0a739dadf7c744eff695c830a1e1a47c64736f6c63430008070033",
  "immutableReferences": {},
  "source": "//SPDX-License-Identifier: MIT\n\npragma solidity >=0.7.0 <0.9.0;\n\ncontract Supplychain {\n    // event UserUpdate(address userAddress);\n    // event UserRoleUpdate(address userAddress);\n    address public lastAccess;\n\n    constructor() {\n        authorizedCaller[msg.sender] = 1;\n        emit AuthorizedCaller(msg.sender);\n    }\n\n    event AuthorizedCaller(address caller);\n    event DeAuthorizedCaller(address caller);\n\n    event UserUpdate(address userAddress);\n    event UserRoleUpdate(address userAddress);\n\n    modifier onlyAuthCaller() {\n        lastAccess = msg.sender;\n        require(authorizedCaller[msg.sender] == 1);\n        _;\n    }\n\n    struct User {\n        string name;\n        string contactNo;\n        bool isActive;\n        string profileHash;\n    }\n\n    mapping(address => User) userDetails;\n    mapping(address => string) userRole;\n\n    mapping(address => uint8) authorizedCaller;\n\n    function authorizeCaller(address _caller) public returns (bool) {\n        authorizedCaller[_caller] = 1;\n        emit AuthorizedCaller(_caller);\n        return true;\n    }\n\n    function deAuthorizeCaller(address _caller) public returns (bool) {\n        authorizedCaller[_caller] = 0;\n        emit DeAuthorizedCaller(_caller);\n        return true;\n    }\n\n    User userData;\n\n    function setUser(\n        address _userAddress,\n        string memory _name,\n        string memory _contactNo,\n        string memory _role,\n        bool _isActive,\n        string memory _profileHash\n    ) public onlyAuthCaller returns (bool) {\n        userData.name = _name;\n        userData.contactNo = _contactNo;\n        userData.isActive = _isActive;\n        userData.profileHash = _profileHash;\n\n        userDetails[_userAddress] = userData;\n        userRole[_userAddress] = _role;\n\n        emit UserUpdate(_userAddress);\n        emit UserRoleUpdate(_userAddress);\n        return true;\n    }\n\n    function getUserRole(address _userAddress)\n        public\n        onlyAuthCaller\n        returns (string memory)\n    {\n        return userRole[_userAddress];\n    }\n\n    function getUser(address _userAddress)\n        public\n        onlyAuthCaller\n        returns (\n            string memory name,\n            string memory contactNo,\n            string memory role,\n            bool isActive,\n            string memory profileHash\n        )\n    {\n        User memory tmpData = userDetails[_userAddress];\n        return (\n            tmpData.name,\n            tmpData.contactNo,\n            userRole[_userAddress],\n            tmpData.isActive,\n            tmpData.profileHash\n        );\n    }\n}\n",
  "sourcePath": "/home/nathalia/TESIS/coffee-supply-chain-tracking-system-ethereum/contracts/Supplychain.sol",
  "compiler": {
    "name": "solc",
    "version": "0.8.7+commit.e28d00a7.Emscripten.clang"
  },
  "schemaVersion": "3.4.4",
  "updatedAt": "2022-03-07T05:02:43.509Z",
  "devdoc": {
    "kind": "dev",
    "methods": {},
    "version": 1
  },
  "userdoc": {
    "kind": "user",
    "methods": {},
    "version": 1
  }
}