{
  "contractName": "SupplyChainStorage",
  "abi": [
    {
      "inputs": [],
      "stateMutability": "nonpayable",
      "type": "constructor"
    },
    {
      "anonymous": false,
      "inputs": [
        {
          "indexed": false,
          "internalType": "address",
          "name": "caller",
          "type": "address"
        }
      ],
      "name": "AuthorizedCaller",
      "type": "event"
    },
    {
      "anonymous": false,
      "inputs": [
        {
          "indexed": false,
          "internalType": "address",
          "name": "caller",
          "type": "address"
        }
      ],
      "name": "DeAuthorizedCaller",
      "type": "event"
    },
    {
      "anonymous": false,
      "inputs": [
        {
          "indexed": true,
          "internalType": "address",
          "name": "previousOwner",
          "type": "address"
        }
      ],
      "name": "OwnershipRenounced",
      "type": "event"
    },
    {
      "anonymous": false,
      "inputs": [
        {
          "indexed": true,
          "internalType": "address",
          "name": "previusOwner",
          "type": "address"
        },
        {
          "indexed": true,
          "internalType": "address",
          "name": "newOwner",
          "type": "address"
        }
      ],
      "name": "OwnershipTransferred",
      "type": "event"
    },
    {
      "anonymous": false,
      "inputs": [
        {
          "indexed": false,
          "internalType": "address",
          "name": "userAddress",
          "type": "address"
        }
      ],
      "name": "UserRoleUpdate",
      "type": "event"
    },
    {
      "anonymous": false,
      "inputs": [
        {
          "indexed": false,
          "internalType": "address",
          "name": "userAddress",
          "type": "address"
        }
      ],
      "name": "UserUpdate",
      "type": "event"
    },
    {
      "inputs": [],
      "name": "lastAccess",
      "outputs": [
        {
          "internalType": "address",
          "name": "",
          "type": "address"
        }
      ],
      "stateMutability": "view",
      "type": "function",
      "constant": true
    },
    {
      "inputs": [],
      "name": "owner",
      "outputs": [
        {
          "internalType": "address",
          "name": "",
          "type": "address"
        }
      ],
      "stateMutability": "view",
      "type": "function",
      "constant": true
    },
    {
      "inputs": [],
      "name": "renounceOwnership",
      "outputs": [],
      "stateMutability": "nonpayable",
      "type": "function"
    },
    {
      "inputs": [
        {
          "internalType": "address",
          "name": "newOwner",
          "type": "address"
        }
      ],
      "name": "transferOwnership",
      "outputs": [],
      "stateMutability": "nonpayable",
      "type": "function"
    },
    {
      "inputs": [
        {
          "internalType": "address",
          "name": "_caller",
          "type": "address"
        }
      ],
      "name": "authorizeCaller",
      "outputs": [
        {
          "internalType": "bool",
          "name": "",
          "type": "bool"
        }
      ],
      "stateMutability": "nonpayable",
      "type": "function"
    },
    {
      "inputs": [
        {
          "internalType": "address",
          "name": "_caller",
          "type": "address"
        }
      ],
      "name": "deAuthorizeCaller",
      "outputs": [
        {
          "internalType": "bool",
          "name": "",
          "type": "bool"
        }
      ],
      "stateMutability": "nonpayable",
      "type": "function"
    },
    {
      "inputs": [
        {
          "internalType": "address",
          "name": "_userAddress",
          "type": "address"
        }
      ],
      "name": "getUserRole",
      "outputs": [
        {
          "internalType": "string",
          "name": "",
          "type": "string"
        }
      ],
      "stateMutability": "nonpayable",
      "type": "function"
    },
    {
      "inputs": [
        {
          "internalType": "address",
          "name": "_batchNo",
          "type": "address"
        }
      ],
      "name": "getNextAction",
      "outputs": [
        {
          "internalType": "string",
          "name": "",
          "type": "string"
        }
      ],
      "stateMutability": "nonpayable",
      "type": "function"
    },
    {
      "inputs": [
        {
          "internalType": "address",
          "name": "_userAddress",
          "type": "address"
        },
        {
          "internalType": "string",
          "name": "_name",
          "type": "string"
        },
        {
          "internalType": "string",
          "name": "_contactNo",
          "type": "string"
        },
        {
          "internalType": "string",
          "name": "_role",
          "type": "string"
        },
        {
          "internalType": "bool",
          "name": "_isActive",
          "type": "bool"
        },
        {
          "internalType": "string",
          "name": "_profileHash",
          "type": "string"
        }
      ],
      "name": "setUser",
      "outputs": [
        {
          "internalType": "bool",
          "name": "",
          "type": "bool"
        }
      ],
      "stateMutability": "nonpayable",
      "type": "function"
    },
    {
      "inputs": [
        {
          "internalType": "address",
          "name": "_userAddress",
          "type": "address"
        }
      ],
      "name": "getUser",
      "outputs": [
        {
          "internalType": "string",
          "name": "name",
          "type": "string"
        },
        {
          "internalType": "string",
          "name": "contactNo",
          "type": "string"
        },
        {
          "internalType": "string",
          "name": "role",
          "type": "string"
        },
        {
          "internalType": "bool",
          "name": "isActive",
          "type": "bool"
        },
        {
          "internalType": "string",
          "name": "profileHash",
          "type": "string"
        }
      ],
      "stateMutability": "nonpayable",
      "type": "function"
    },
    {
      "inputs": [
        {
          "internalType": "string",
          "name": "_registrationNo",
          "type": "string"
        },
        {
          "internalType": "string",
          "name": "_farmName",
          "type": "string"
        },
        {
          "internalType": "string",
          "name": "_latitude",
          "type": "string"
        },
        {
          "internalType": "string",
          "name": "_longitude",
          "type": "string"
        },
        {
          "internalType": "string",
          "name": "_farmAddress",
          "type": "string"
        }
      ],
      "name": "setFarmDetails",
      "outputs": [
        {
          "internalType": "address",
          "name": "",
          "type": "address"
        }
      ],
      "stateMutability": "nonpayable",
      "type": "function"
    },
    {
      "inputs": [
        {
          "internalType": "address",
          "name": "_batchNo",
          "type": "address"
        }
      ],
      "name": "getFarmDetails",
      "outputs": [
        {
          "internalType": "string",
          "name": "registrationNo",
          "type": "string"
        },
        {
          "internalType": "string",
          "name": "farmName",
          "type": "string"
        },
        {
          "internalType": "string",
          "name": "latitude",
          "type": "string"
        },
        {
          "internalType": "string",
          "name": "longitude",
          "type": "string"
        },
        {
          "internalType": "string",
          "name": "farmAddress",
          "type": "string"
        }
      ],
      "stateMutability": "nonpayable",
      "type": "function"
    },
    {
      "inputs": [
        {
          "internalType": "address",
          "name": "batchNo",
          "type": "address"
        },
        {
          "internalType": "string",
          "name": "_coffeeFamily",
          "type": "string"
        },
        {
          "internalType": "string",
          "name": "_typeOfSeed",
          "type": "string"
        },
        {
          "internalType": "string",
          "name": "_fertilizerUsed",
          "type": "string"
        },
        {
          "internalType": "string",
          "name": "_harvestDate",
          "type": "string"
        }
      ],
      "name": "setHarvestData",
      "outputs": [
        {
          "internalType": "bool",
          "name": "",
          "type": "bool"
        }
      ],
      "stateMutability": "nonpayable",
      "type": "function"
    },
    {
      "inputs": [
        {
          "internalType": "address",
          "name": "batchNo",
          "type": "address"
        }
      ],
      "name": "getHarvestData",
      "outputs": [
        {
          "internalType": "string",
          "name": "coffeeFamily",
          "type": "string"
        },
        {
          "internalType": "string",
          "name": "typeOfSeed",
          "type": "string"
        },
        {
          "internalType": "string",
          "name": "fertilizerUsed",
          "type": "string"
        },
        {
          "internalType": "string",
          "name": "harvestDate",
          "type": "string"
        }
      ],
      "stateMutability": "nonpayable",
      "type": "function"
    },
    {
      "inputs": [
        {
          "internalType": "address",
          "name": "batchNo",
          "type": "address"
        },
        {
          "internalType": "string",
          "name": "_procAddress",
          "type": "string"
        },
        {
          "internalType": "string",
          "name": "_typeOfDrying",
          "type": "string"
        },
        {
          "internalType": "string",
          "name": "_roastImageHash",
          "type": "string"
        },
        {
          "internalType": "string",
          "name": "_roastTemp",
          "type": "string"
        },
        {
          "internalType": "string",
          "name": "_typeOfRoast",
          "type": "string"
        },
        {
          "internalType": "string",
          "name": "_roastDate",
          "type": "string"
        },
        {
          "internalType": "string",
          "name": "_millDate",
          "type": "string"
        },
        {
          "internalType": "uint256",
          "name": "_processorPrice",
          "type": "uint256"
        }
      ],
      "name": "setProcessData",
      "outputs": [
        {
          "internalType": "bool",
          "name": "",
          "type": "bool"
        }
      ],
      "stateMutability": "nonpayable",
      "type": "function"
    },
    {
      "inputs": [
        {
          "internalType": "address",
          "name": "batchNo",
          "type": "address"
        }
      ],
      "name": "getProcessData",
      "outputs": [
        {
          "internalType": "string",
          "name": "procAddress",
          "type": "string"
        },
        {
          "internalType": "string",
          "name": "typeOfDrying",
          "type": "string"
        },
        {
          "internalType": "string",
          "name": "roastImageHash",
          "type": "string"
        },
        {
          "internalType": "string",
          "name": "roastTemp",
          "type": "string"
        },
        {
          "internalType": "string",
          "name": "typeOfRoast",
          "type": "string"
        },
        {
          "internalType": "string",
          "name": "roastDate",
          "type": "string"
        },
        {
          "internalType": "string",
          "name": "millDate",
          "type": "string"
        },
        {
          "internalType": "uint256",
          "name": "processorPrice",
          "type": "uint256"
        }
      ],
      "stateMutability": "nonpayable",
      "type": "function"
    },
    {
      "inputs": [
        {
          "internalType": "address",
          "name": "batchNo",
          "type": "address"
        },
        {
          "internalType": "uint256",
          "name": "_tasteScore",
          "type": "uint256"
        },
        {
          "internalType": "uint256",
          "name": "_grainPrice",
          "type": "uint256"
        }
      ],
      "name": "setGrainData",
      "outputs": [
        {
          "internalType": "bool",
          "name": "",
          "type": "bool"
        }
      ],
      "stateMutability": "nonpayable",
      "type": "function"
    },
    {
      "inputs": [
        {
          "internalType": "address",
          "name": "batchNo",
          "type": "address"
        }
      ],
      "name": "getGrainData",
      "outputs": [
        {
          "internalType": "uint256",
          "name": "tasteScore",
          "type": "uint256"
        },
        {
          "internalType": "uint256",
          "name": "grainPrice",
          "type": "uint256"
        }
      ],
      "stateMutability": "nonpayable",
      "type": "function"
    },
    {
      "inputs": [
        {
          "internalType": "address",
          "name": "batchNo",
          "type": "address"
        },
        {
          "internalType": "string",
          "name": "_agglomAddress",
          "type": "string"
        },
        {
          "internalType": "string",
          "name": "_agglomDate",
          "type": "string"
        },
        {
          "internalType": "uint256",
          "name": "_storagePrice",
          "type": "uint256"
        }
      ],
      "name": "setAgglomData",
      "outputs": [
        {
          "internalType": "bool",
          "name": "",
          "type": "bool"
        }
      ],
      "stateMutability": "nonpayable",
      "type": "function"
    },
    {
      "inputs": [
        {
          "internalType": "address",
          "name": "batchNo",
          "type": "address"
        }
      ],
      "name": "getAgglomData",
      "outputs": [
        {
          "internalType": "string",
          "name": "agglomAddress",
          "type": "string"
        },
        {
          "internalType": "string",
          "name": "agglomDate",
          "type": "string"
        },
        {
          "internalType": "uint256",
          "name": "storagePrice",
          "type": "uint256"
        }
      ],
      "stateMutability": "nonpayable",
      "type": "function"
    },
    {
      "inputs": [
        {
          "internalType": "address",
          "name": "batchNo",
          "type": "address"
        },
        {
          "internalType": "string",
          "name": "_transportTypeP",
          "type": "string"
        },
        {
          "internalType": "string",
          "name": "_pickupDateP",
          "type": "string"
        },
        {
          "internalType": "uint256",
          "name": "_shipPriceP",
          "type": "uint256"
        }
      ],
      "name": "setShipPackerData",
      "outputs": [
        {
          "internalType": "bool",
          "name": "",
          "type": "bool"
        }
      ],
      "stateMutability": "nonpayable",
      "type": "function"
    },
    {
      "inputs": [
        {
          "internalType": "address",
          "name": "batchNo",
          "type": "address"
        }
      ],
      "name": "getShipPackerData",
      "outputs": [
        {
          "internalType": "string",
          "name": "transportTypeP",
          "type": "string"
        },
        {
          "internalType": "string",
          "name": "pickupDateP",
          "type": "string"
        },
        {
          "internalType": "uint256",
          "name": "shipPriceP",
          "type": "uint256"
        }
      ],
      "stateMutability": "nonpayable",
      "type": "function"
    },
    {
      "inputs": [
        {
          "internalType": "address",
          "name": "batchNo",
          "type": "address"
        },
        {
          "internalType": "string",
          "name": "_packAddress",
          "type": "string"
        },
        {
          "internalType": "string",
          "name": "_arrivalDateP",
          "type": "string"
        },
        {
          "internalType": "string",
          "name": "_packDate",
          "type": "string"
        },
        {
          "internalType": "uint256",
          "name": "_packPrice",
          "type": "uint256"
        }
      ],
      "name": "setPackData",
      "outputs": [
        {
          "internalType": "bool",
          "name": "",
          "type": "bool"
        }
      ],
      "stateMutability": "nonpayable",
      "type": "function"
    },
    {
      "inputs": [
        {
          "internalType": "address",
          "name": "batchNo",
          "type": "address"
        }
      ],
      "name": "getPackData",
      "outputs": [
        {
          "internalType": "string",
          "name": "packAddress",
          "type": "string"
        },
        {
          "internalType": "string",
          "name": "arrivalDateP",
          "type": "string"
        },
        {
          "internalType": "string",
          "name": "packDate",
          "type": "string"
        },
        {
          "internalType": "uint256",
          "name": "packPrice",
          "type": "uint256"
        }
      ],
      "stateMutability": "nonpayable",
      "type": "function"
    },
    {
      "inputs": [
        {
          "internalType": "address",
          "name": "batchNo",
          "type": "address"
        },
        {
          "internalType": "string",
          "name": "_transportTypeR",
          "type": "string"
        },
        {
          "internalType": "string",
          "name": "_pickupDateR",
          "type": "string"
        },
        {
          "internalType": "uint256",
          "name": "_shipPriceR",
          "type": "uint256"
        }
      ],
      "name": "setShipRetailerData",
      "outputs": [
        {
          "internalType": "bool",
          "name": "",
          "type": "bool"
        }
      ],
      "stateMutability": "nonpayable",
      "type": "function"
    },
    {
      "inputs": [
        {
          "internalType": "address",
          "name": "batchNo",
          "type": "address"
        }
      ],
      "name": "getShipRetailerData",
      "outputs": [
        {
          "internalType": "string",
          "name": "transportTypeR",
          "type": "string"
        },
        {
          "internalType": "string",
          "name": "pickupDateR",
          "type": "string"
        },
        {
          "internalType": "uint256",
          "name": "shipPriceR",
          "type": "uint256"
        }
      ],
      "stateMutability": "nonpayable",
      "type": "function"
    },
    {
      "inputs": [
        {
          "internalType": "address",
          "name": "batchNo",
          "type": "address"
        },
        {
          "internalType": "string",
          "name": "_arrivalDateW",
          "type": "string"
        },
        {
          "internalType": "string",
          "name": "_arrivalDateSP",
          "type": "string"
        },
        {
          "internalType": "string",
          "name": "_warehouseName",
          "type": "string"
        },
        {
          "internalType": "string",
          "name": "_warehouseAddress",
          "type": "string"
        },
        {
          "internalType": "string",
          "name": "_salePointAddress",
          "type": "string"
        },
        {
          "internalType": "uint256",
          "name": "_shipPriceSP",
          "type": "uint256"
        },
        {
          "internalType": "uint256",
          "name": "_productPrice",
          "type": "uint256"
        }
      ],
      "name": "setRetailerData",
      "outputs": [
        {
          "internalType": "bool",
          "name": "",
          "type": "bool"
        }
      ],
      "stateMutability": "nonpayable",
      "type": "function"
    },
    {
      "inputs": [
        {
          "internalType": "address",
          "name": "batchNo",
          "type": "address"
        }
      ],
      "name": "getRetailerData",
      "outputs": [
        {
          "internalType": "string",
          "name": "arrivalDateW",
          "type": "string"
        },
        {
          "internalType": "string",
          "name": "arrivalDateSP",
          "type": "string"
        },
        {
          "internalType": "string",
          "name": "warehouseName",
          "type": "string"
        },
        {
          "internalType": "string",
          "name": "warehouseAddress",
          "type": "string"
        },
        {
          "internalType": "string",
          "name": "salePointAddress",
          "type": "string"
        },
        {
          "internalType": "uint256",
          "name": "shipPriceSP",
          "type": "uint256"
        },
        {
          "internalType": "uint256",
          "name": "productPrice",
          "type": "uint256"
        }
      ],
      "stateMutability": "nonpayable",
      "type": "function"
    }
  ],
  "bytecode": "0x60806040523480156200001157600080fd5b50336000806101000a81548173ffffffffffffffffffffffffffffffffffffffff021916908373ffffffffffffffffffffffffffffffffffffffff1602179055506001600460003373ffffffffffffffffffffffffffffffffffffffff1673ffffffffffffffffffffffffffffffffffffffff16815260200190815260200160002060006101000a81548160ff021916908360ff1602179055507f8afeca650897be3183b7c0d24eba96a1b990f75c4bd74a0cfb2c0a71aec48e6133604051620000dc91906200012f565b60405180910390a16200014c565b600073ffffffffffffffffffffffffffffffffffffffff82169050919050565b60006200011782620000ea565b9050919050565b62000129816200010a565b82525050565b60006020820190506200014660008301846200011e565b92915050565b615569806200015c6000396000f3fe608060405234801561001057600080fd5b50600436106101c45760003560e01c806356a86bb2116100f95780639045499f11610097578063f0804da611610071578063f0804da61461061b578063f2fde38b1461064d578063fb779ea514610669578063fb7a20af1461069d576101c4565b80639045499f14610588578063bc8df35a146105ba578063e7b58fb6146105eb576101c4565b80636f77926b116100d35780636f77926b146104f5578063702a575814610529578063715018a6146105605780638da5cb5b1461056a576101c4565b806356a86bb21461045f5780636a7352d51461048f5780636ea97cea146104c5576101c4565b80632b65dacc11610166578063326ebc0311610140578063326ebc03146103b15780633480898b146103e157806344ccaa2a146103ff5780634d6b5e001461042f576101c4565b80632b65dacc1461031b5780632c388d5d1461034e57806331016cb31461037e576101c4565b80631bcd250a116101a25780631bcd250a1461025b5780631dc661631461028b57806327820851146102bb5780632937e51d146102eb576101c4565b806313fa3313146101c9578063199351bb146101f95780631a6760f51461022b575b600080fd5b6101e360048036038101906101de91906147fc565b6106cd565b6040516101f091906148b6565b60405180910390f35b610213600480360381019061020e91906148d1565b6108cd565b60405161022293929190614995565b60405180910390f35b610245600480360381019061024091906147fc565b610b08565b60405161025291906148b6565b60405180910390f35b610275600480360381019061027091906148d1565b610d08565b60405161028291906148b6565b60405180910390f35b6102a560048036038101906102a091906149da565b610dfc565b6040516102b29190614af0565b60405180910390f35b6102d560048036038101906102d091906148d1565b6110cd565b6040516102e29190614b0b565b60405180910390f35b61030560048036038101906103009190614b2d565b61123b565b60405161031291906148b6565b60405180910390f35b610335600480360381019061033091906148d1565b61149c565b6040516103459493929190614c18565b60405180910390f35b610368600480360381019061036391906148d1565b611772565b60405161037591906148b6565b60405180910390f35b610398600480360381019061039391906148d1565b611866565b6040516103a89493929190614c72565b60405180910390f35b6103cb60048036038101906103c69190614cd3565b611bc3565b6040516103d891906148b6565b60405180910390f35b6103e9611d62565b6040516103f69190614af0565b60405180910390f35b61041960048036038101906104149190614d26565b611d88565b60405161042691906148b6565b60405180910390f35b610449600480360381019061044491906148d1565b611fc3565b6040516104569190614b0b565b60405180910390f35b61047960048036038101906104749190614df5565b612131565b60405161048691906148b6565b60405180910390f35b6104a960048036038101906104a491906148d1565b6123f7565b6040516104bc9796959493929190614f37565b60405180910390f35b6104df60048036038101906104da9190614fc9565b612818565b6040516104ec91906148b6565b60405180910390f35b61050f600480360381019061050a91906148d1565b612b3f565b604051610520959493929190615157565b60405180910390f35b610543600480360381019061053e91906148d1565b612ef7565b6040516105579897969594939291906151c6565b60405180910390f35b61056861343c565b005b61057261353a565b60405161057f9190614af0565b60405180910390f35b6105a2600480360381019061059d91906148d1565b61355e565b6040516105b193929190614995565b60405180910390f35b6105d460048036038101906105cf91906148d1565b613799565b6040516105e2929190615275565b60405180910390f35b610605600480360381019061060091906147fc565b6138af565b60405161061291906148b6565b60405180910390f35b610635600480360381019061063091906148d1565b613aaf565b60405161064493929190614995565b60405180910390f35b610667600480360381019061066291906148d1565b613cea565b005b610683600480360381019061067e91906148d1565b613e39565b60405161069495949392919061529e565b60405180910390f35b6106b760048036038101906106b29190615340565b614233565b6040516106c491906148b6565b60405180910390f35b600033600160006101000a81548173ffffffffffffffffffffffffffffffffffffffff021916908373ffffffffffffffffffffffffffffffffffffffff1602179055506001600460003373ffffffffffffffffffffffffffffffffffffffff1673ffffffffffffffffffffffffffffffffffffffff16815260200190815260200160002060009054906101000a900460ff1660ff161461076c57600080fd5b83603060000190805190602001906107859291906144de565b50826030600101908051906020019061079f9291906144de565b50816030600201819055506030600c60008773ffffffffffffffffffffffffffffffffffffffff1673ffffffffffffffffffffffffffffffffffffffff16815260200190815260200160002060008201816000019080546107ff9061546c565b61080a929190614564565b50600182018160010190805461081f9061546c565b61082a929190614564565b50600282015481600201559050506040518060400160405280600881526020017f52455441494c4552000000000000000000000000000000000000000000000000815250600e60008773ffffffffffffffffffffffffffffffffffffffff1673ffffffffffffffffffffffffffffffffffffffff16815260200190815260200160002090805190602001906108c09291906144de565b5060019050949350505050565b606080600033600160006101000a81548173ffffffffffffffffffffffffffffffffffffffff021916908373ffffffffffffffffffffffffffffffffffffffff1602179055506001600460003373ffffffffffffffffffffffffffffffffffffffff1673ffffffffffffffffffffffffffffffffffffffff16815260200190815260200160002060009054906101000a900460ff1660ff161461096f57600080fd5b6000600c60008673ffffffffffffffffffffffffffffffffffffffff1673ffffffffffffffffffffffffffffffffffffffff1681526020019081526020016000206040518060600160405290816000820180546109cb9061546c565b80601f01602080910402602001604051908101604052809291908181526020018280546109f79061546c565b8015610a445780601f10610a1957610100808354040283529160200191610a44565b820191906000526020600020905b815481529060010190602001808311610a2757829003601f168201915b50505050508152602001600182018054610a5d9061546c565b80601f0160208091040260200160405190810160405280929190818152602001828054610a899061546c565b8015610ad65780601f10610aab57610100808354040283529160200191610ad6565b820191906000526020600020905b815481529060010190602001808311610ab957829003601f168201915b505050505081526020016002820154815250509050806000015181602001518260400151935093509350509193909250565b600033600160006101000a81548173ffffffffffffffffffffffffffffffffffffffff021916908373ffffffffffffffffffffffffffffffffffffffff1602179055506001600460003373ffffffffffffffffffffffffffffffffffffffff1673ffffffffffffffffffffffffffffffffffffffff16815260200190815260200160002060009054906101000a900460ff1660ff1614610ba757600080fd5b8360296000019080519060200190610bc09291906144de565b508260296001019080519060200190610bda9291906144de565b50816029600201819055506029600a60008773ffffffffffffffffffffffffffffffffffffffff1673ffffffffffffffffffffffffffffffffffffffff1681526020019081526020016000206000820181600001908054610c3a9061546c565b610c45929190614564565b506001820181600101908054610c5a9061546c565b610c65929190614564565b50600282015481600201559050506040518060400160405280600681526020017f5041434b45520000000000000000000000000000000000000000000000000000815250600e60008773ffffffffffffffffffffffffffffffffffffffff1673ffffffffffffffffffffffffffffffffffffffff1681526020019081526020016000209080519060200190610cfb9291906144de565b5060019050949350505050565b60008060009054906101000a900473ffffffffffffffffffffffffffffffffffffffff1673ffffffffffffffffffffffffffffffffffffffff163373ffffffffffffffffffffffffffffffffffffffff1614610d6357600080fd5b6000600460008473ffffffffffffffffffffffffffffffffffffffff1673ffffffffffffffffffffffffffffffffffffffff16815260200190815260200160002060006101000a81548160ff021916908360ff1602179055507f9e8ca6ff03906e81e8a6a03d4f96b7edb0b97f0ed9d07ef1b699fff63438549682604051610deb9190614af0565b60405180910390a160019050919050565b600033600160006101000a81548173ffffffffffffffffffffffffffffffffffffffff021916908373ffffffffffffffffffffffffffffffffffffffff1602179055506001600460003373ffffffffffffffffffffffffffffffffffffffff1673ffffffffffffffffffffffffffffffffffffffff16815260200190815260200160002060009054906101000a900460ff1660ff1614610e9b57600080fd5b60003342604051602001610eb0929190615507565b6040516020818303038152906040528051906020012060001c905060008190508760136000019080519060200190610ee99291906144de565b508660136001019080519060200190610f039291906144de565b508560136002019080519060200190610f1d9291906144de565b508460136003019080519060200190610f379291906144de565b508360136004019080519060200190610f519291906144de565b506013600560008373ffffffffffffffffffffffffffffffffffffffff1673ffffffffffffffffffffffffffffffffffffffff1681526020019081526020016000206000820181600001908054610fa79061546c565b610fb2929190614564565b506001820181600101908054610fc79061546c565b610fd2929190614564565b506002820181600201908054610fe79061546c565b610ff2929190614564565b5060038201816003019080546110079061546c565b611012929190614564565b5060048201816004019080546110279061546c565b611032929190614564565b509050506040518060400160405280600681526020017f4641524d45520000000000000000000000000000000000000000000000000000815250600e60008373ffffffffffffffffffffffffffffffffffffffff1673ffffffffffffffffffffffffffffffffffffffff16815260200190815260200160002090805190602001906110be9291906144de565b50809250505095945050505050565b606033600160006101000a81548173ffffffffffffffffffffffffffffffffffffffff021916908373ffffffffffffffffffffffffffffffffffffffff1602179055506001600460003373ffffffffffffffffffffffffffffffffffffffff1673ffffffffffffffffffffffffffffffffffffffff16815260200190815260200160002060009054906101000a900460ff1660ff161461116c57600080fd5b600360008373ffffffffffffffffffffffffffffffffffffffff1673ffffffffffffffffffffffffffffffffffffffff16815260200190815260200160002080546111b69061546c565b80601f01602080910402602001604051908101604052809291908181526020018280546111e29061546c565b801561122f5780601f106112045761010080835404028352916020019161122f565b820191906000526020600020905b81548152906001019060200180831161121257829003601f168201915b50505050509050919050565b600033600160006101000a81548173ffffffffffffffffffffffffffffffffffffffff021916908373ffffffffffffffffffffffffffffffffffffffff1602179055506001600460003373ffffffffffffffffffffffffffffffffffffffff1673ffffffffffffffffffffffffffffffffffffffff16815260200190815260200160002060009054906101000a900460ff1660ff16146112da57600080fd5b84601860000190805190602001906112f39291906144de565b50836018600101908051906020019061130d9291906144de565b5082601860020190805190602001906113279291906144de565b5081601860030190805190602001906113419291906144de565b506018600660008873ffffffffffffffffffffffffffffffffffffffff1673ffffffffffffffffffffffffffffffffffffffff16815260200190815260200160002060008201816000019080546113979061546c565b6113a2929190614564565b5060018201816001019080546113b79061546c565b6113c2929190614564565b5060028201816002019080546113d79061546c565b6113e2929190614564565b5060038201816003019080546113f79061546c565b611402929190614564565b509050506040518060400160405280600981526020017f50524f434553534f520000000000000000000000000000000000000000000000815250600e60008873ffffffffffffffffffffffffffffffffffffffff1673ffffffffffffffffffffffffffffffffffffffff168152602001908152602001600020908051906020019061148e9291906144de565b506001905095945050505050565b6060806060600033600160006101000a81548173ffffffffffffffffffffffffffffffffffffffff021916908373ffffffffffffffffffffffffffffffffffffffff1602179055506001600460003373ffffffffffffffffffffffffffffffffffffffff1673ffffffffffffffffffffffffffffffffffffffff16815260200190815260200160002060009054906101000a900460ff1660ff161461154057600080fd5b6000600b60008773ffffffffffffffffffffffffffffffffffffffff1673ffffffffffffffffffffffffffffffffffffffff16815260200190815260200160002060405180608001604052908160008201805461159c9061546c565b80601f01602080910402602001604051908101604052809291908181526020018280546115c89061546c565b80156116155780601f106115ea57610100808354040283529160200191611615565b820191906000526020600020905b8154815290600101906020018083116115f857829003601f168201915b5050505050815260200160018201805461162e9061546c565b80601f016020809104026020016040519081016040528092919081815260200182805461165a9061546c565b80156116a75780601f1061167c576101008083540402835291602001916116a7565b820191906000526020600020905b81548152906001019060200180831161168a57829003601f168201915b505050505081526020016002820180546116c09061546c565b80601f01602080910402602001604051908101604052809291908181526020018280546116ec9061546c565b80156117395780601f1061170e57610100808354040283529160200191611739565b820191906000526020600020905b81548152906001019060200180831161171c57829003601f168201915b50505050508152602001600382015481525050905080600001518160200151826040015183606001519450945094509450509193509193565b60008060009054906101000a900473ffffffffffffffffffffffffffffffffffffffff1673ffffffffffffffffffffffffffffffffffffffff163373ffffffffffffffffffffffffffffffffffffffff16146117cd57600080fd5b6001600460008473ffffffffffffffffffffffffffffffffffffffff1673ffffffffffffffffffffffffffffffffffffffff16815260200190815260200160002060006101000a81548160ff021916908360ff1602179055507f8afeca650897be3183b7c0d24eba96a1b990f75c4bd74a0cfb2c0a71aec48e61826040516118559190614af0565b60405180910390a160019050919050565b60608060608033600160006101000a81548173ffffffffffffffffffffffffffffffffffffffff021916908373ffffffffffffffffffffffffffffffffffffffff1602179055506001600460003373ffffffffffffffffffffffffffffffffffffffff1673ffffffffffffffffffffffffffffffffffffffff16815260200190815260200160002060009054906101000a900460ff1660ff161461190957600080fd5b6000600660008773ffffffffffffffffffffffffffffffffffffffff1673ffffffffffffffffffffffffffffffffffffffff1681526020019081526020016000206040518060800160405290816000820180546119659061546c565b80601f01602080910402602001604051908101604052809291908181526020018280546119919061546c565b80156119de5780601f106119b3576101008083540402835291602001916119de565b820191906000526020600020905b8154815290600101906020018083116119c157829003601f168201915b505050505081526020016001820180546119f79061546c565b80601f0160208091040260200160405190810160405280929190818152602001828054611a239061546c565b8015611a705780601f10611a4557610100808354040283529160200191611a70565b820191906000526020600020905b815481529060010190602001808311611a5357829003601f168201915b50505050508152602001600282018054611a899061546c565b80601f0160208091040260200160405190810160405280929190818152602001828054611ab59061546c565b8015611b025780601f10611ad757610100808354040283529160200191611b02565b820191906000526020600020905b815481529060010190602001808311611ae557829003601f168201915b50505050508152602001600382018054611b1b9061546c565b80601f0160208091040260200160405190810160405280929190818152602001828054611b479061546c565b8015611b945780601f10611b6957610100808354040283529160200191611b94565b820191906000526020600020905b815481529060010190602001808311611b7757829003601f168201915b505050505081525050905080600001518160200151826040015183606001519450945094509450509193509193565b600033600160006101000a81548173ffffffffffffffffffffffffffffffffffffffff021916908373ffffffffffffffffffffffffffffffffffffffff1602179055506001600460003373ffffffffffffffffffffffffffffffffffffffff1673ffffffffffffffffffffffffffffffffffffffff16815260200190815260200160002060009054906101000a900460ff1660ff1614611c6257600080fd5b82602460000181905550816024600101819055506024600860008673ffffffffffffffffffffffffffffffffffffffff1673ffffffffffffffffffffffffffffffffffffffff16815260200190815260200160002060008201548160000155600182015481600101559050506040518060400160405280600c81526020017f4147474c4f4d455241544f520000000000000000000000000000000000000000815250600e60008673ffffffffffffffffffffffffffffffffffffffff1673ffffffffffffffffffffffffffffffffffffffff1681526020019081526020016000209080519060200190611d569291906144de565b50600190509392505050565b600160009054906101000a900473ffffffffffffffffffffffffffffffffffffffff1681565b600033600160006101000a81548173ffffffffffffffffffffffffffffffffffffffff021916908373ffffffffffffffffffffffffffffffffffffffff1602179055506001600460003373ffffffffffffffffffffffffffffffffffffffff1673ffffffffffffffffffffffffffffffffffffffff16815260200190815260200160002060009054906101000a900460ff1660ff1614611e2757600080fd5b84602c6000019080519060200190611e409291906144de565b5083602c6001019080519060200190611e5a9291906144de565b5082602c6002019080519060200190611e749291906144de565b5081602c60030181905550602c600b60008873ffffffffffffffffffffffffffffffffffffffff1673ffffffffffffffffffffffffffffffffffffffff1681526020019081526020016000206000820181600001908054611ed49061546c565b611edf929190614564565b506001820181600101908054611ef49061546c565b611eff929190614564565b506002820181600201908054611f149061546c565b611f1f929190614564565b50600382015481600301559050506040518060400160405280601081526020017f534849505045525f52455441494c455200000000000000000000000000000000815250600e60008873ffffffffffffffffffffffffffffffffffffffff1673ffffffffffffffffffffffffffffffffffffffff1681526020019081526020016000209080519060200190611fb59291906144de565b506001905095945050505050565b606033600160006101000a81548173ffffffffffffffffffffffffffffffffffffffff021916908373ffffffffffffffffffffffffffffffffffffffff1602179055506001600460003373ffffffffffffffffffffffffffffffffffffffff1673ffffffffffffffffffffffffffffffffffffffff16815260200190815260200160002060009054906101000a900460ff1660ff161461206257600080fd5b600e60008373ffffffffffffffffffffffffffffffffffffffff1673ffffffffffffffffffffffffffffffffffffffff16815260200190815260200160002080546120ac9061546c565b80601f01602080910402602001604051908101604052809291908181526020018280546120d89061546c565b80156121255780601f106120fa57610100808354040283529160200191612125565b820191906000526020600020905b81548152906001019060200180831161210857829003601f168201915b50505050509050919050565b600033600160006101000a81548173ffffffffffffffffffffffffffffffffffffffff021916908373ffffffffffffffffffffffffffffffffffffffff1602179055506001600460003373ffffffffffffffffffffffffffffffffffffffff1673ffffffffffffffffffffffffffffffffffffffff16815260200190815260200160002060009054906101000a900460ff1660ff16146121d057600080fd5b87603360000190805190602001906121e99291906144de565b5086603360010190805190602001906122039291906144de565b50856033600201908051906020019061221d9291906144de565b5084603360030190805190602001906122379291906144de565b5083603360040190805190602001906122519291906144de565b5082603360050181905550816033600601819055506033600d60008b73ffffffffffffffffffffffffffffffffffffffff1673ffffffffffffffffffffffffffffffffffffffff16815260200190815260200160002060008201816000019080546122bb9061546c565b6122c6929190614564565b5060018201816001019080546122db9061546c565b6122e6929190614564565b5060028201816002019080546122fb9061546c565b612306929190614564565b50600382018160030190805461231b9061546c565b612326929190614564565b50600482018160040190805461233b9061546c565b612346929190614564565b5060058201548160050155600682015481600601559050506040518060400160405280600481526020017f444f4e4500000000000000000000000000000000000000000000000000000000815250600e60008b73ffffffffffffffffffffffffffffffffffffffff1673ffffffffffffffffffffffffffffffffffffffff16815260200190815260200160002090805190602001906123e69291906144de565b506001905098975050505050505050565b606080606080606060008033600160006101000a81548173ffffffffffffffffffffffffffffffffffffffff021916908373ffffffffffffffffffffffffffffffffffffffff1602179055506001600460003373ffffffffffffffffffffffffffffffffffffffff1673ffffffffffffffffffffffffffffffffffffffff16815260200190815260200160002060009054906101000a900460ff1660ff161461249f57600080fd5b6000600d60008a73ffffffffffffffffffffffffffffffffffffffff1673ffffffffffffffffffffffffffffffffffffffff1681526020019081526020016000206040518060e00160405290816000820180546124fb9061546c565b80601f01602080910402602001604051908101604052809291908181526020018280546125279061546c565b80156125745780601f1061254957610100808354040283529160200191612574565b820191906000526020600020905b81548152906001019060200180831161255757829003601f168201915b5050505050815260200160018201805461258d9061546c565b80601f01602080910402602001604051908101604052809291908181526020018280546125b99061546c565b80156126065780601f106125db57610100808354040283529160200191612606565b820191906000526020600020905b8154815290600101906020018083116125e957829003601f168201915b5050505050815260200160028201805461261f9061546c565b80601f016020809104026020016040519081016040528092919081815260200182805461264b9061546c565b80156126985780601f1061266d57610100808354040283529160200191612698565b820191906000526020600020905b81548152906001019060200180831161267b57829003601f168201915b505050505081526020016003820180546126b19061546c565b80601f01602080910402602001604051908101604052809291908181526020018280546126dd9061546c565b801561272a5780601f106126ff5761010080835404028352916020019161272a565b820191906000526020600020905b81548152906001019060200180831161270d57829003601f168201915b505050505081526020016004820180546127439061546c565b80601f016020809104026020016040519081016040528092919081815260200182805461276f9061546c565b80156127bc5780601f10612791576101008083540402835291602001916127bc565b820191906000526020600020905b81548152906001019060200180831161279f57829003601f168201915b50505050508152602001600582015481526020016006820154815250509050806000015181602001518260400151836060015184608001518560a001518660c00151975097509750975097509750975050919395979092949650565b600033600160006101000a81548173ffffffffffffffffffffffffffffffffffffffff021916908373ffffffffffffffffffffffffffffffffffffffff1602179055506001600460003373ffffffffffffffffffffffffffffffffffffffff1673ffffffffffffffffffffffffffffffffffffffff16815260200190815260200160002060009054906101000a900460ff1660ff16146128b757600080fd5b88601c60000190805190602001906128d09291906144de565b5087601c60010190805190602001906128ea9291906144de565b5086601c60020190805190602001906129049291906144de565b5085601c600301908051906020019061291e9291906144de565b5084601c60040190805190602001906129389291906144de565b5083601c60050190805190602001906129529291906144de565b5082601c600601908051906020019061296c9291906144de565b5081601c60070181905550601c600760008c73ffffffffffffffffffffffffffffffffffffffff1673ffffffffffffffffffffffffffffffffffffffff16815260200190815260200160002060008201816000019080546129cc9061546c565b6129d7929190614564565b5060018201816001019080546129ec9061546c565b6129f7929190614564565b506002820181600201908054612a0c9061546c565b612a17929190614564565b506003820181600301908054612a2c9061546c565b612a37929190614564565b506004820181600401908054612a4c9061546c565b612a57929190614564565b506005820181600501908054612a6c9061546c565b612a77929190614564565b506006820181600601908054612a8c9061546c565b612a97929190614564565b50600782015481600701559050506040518060400160405280600f81526020017f475241494e5f494e53504543544f520000000000000000000000000000000000815250600e60008c73ffffffffffffffffffffffffffffffffffffffff1673ffffffffffffffffffffffffffffffffffffffff1681526020019081526020016000209080519060200190612b2d9291906144de565b50600190509998505050505050505050565b60608060606000606033600160006101000a81548173ffffffffffffffffffffffffffffffffffffffff021916908373ffffffffffffffffffffffffffffffffffffffff1602179055506001600460003373ffffffffffffffffffffffffffffffffffffffff1673ffffffffffffffffffffffffffffffffffffffff16815260200190815260200160002060009054906101000a900460ff1660ff1614612be557600080fd5b6000600260008873ffffffffffffffffffffffffffffffffffffffff1673ffffffffffffffffffffffffffffffffffffffff168152602001908152602001600020604051806080016040529081600082018054612c419061546c565b80601f0160208091040260200160405190810160405280929190818152602001828054612c6d9061546c565b8015612cba5780601f10612c8f57610100808354040283529160200191612cba565b820191906000526020600020905b815481529060010190602001808311612c9d57829003601f168201915b50505050508152602001600182018054612cd39061546c565b80601f0160208091040260200160405190810160405280929190818152602001828054612cff9061546c565b8015612d4c5780601f10612d2157610100808354040283529160200191612d4c565b820191906000526020600020905b815481529060010190602001808311612d2f57829003601f168201915b505050505081526020016002820160009054906101000a900460ff16151515158152602001600382018054612d809061546c565b80601f0160208091040260200160405190810160405280929190818152602001828054612dac9061546c565b8015612df95780601f10612dce57610100808354040283529160200191612df9565b820191906000526020600020905b815481529060010190602001808311612ddc57829003601f168201915b505050505081525050905080600001518160200151600360008a73ffffffffffffffffffffffffffffffffffffffff1673ffffffffffffffffffffffffffffffffffffffff16815260200190815260200160002083604001518460600151828054612e639061546c565b80601f0160208091040260200160405190810160405280929190818152602001828054612e8f9061546c565b8015612edc5780601f10612eb157610100808354040283529160200191612edc565b820191906000526020600020905b815481529060010190602001808311612ebf57829003601f168201915b50505050509250955095509550955095505091939590929450565b6060806060806060806060600033600160006101000a81548173ffffffffffffffffffffffffffffffffffffffff021916908373ffffffffffffffffffffffffffffffffffffffff1602179055506001600460003373ffffffffffffffffffffffffffffffffffffffff1673ffffffffffffffffffffffffffffffffffffffff16815260200190815260200160002060009054906101000a900460ff1660ff1614612fa157600080fd5b6000600760008b73ffffffffffffffffffffffffffffffffffffffff1673ffffffffffffffffffffffffffffffffffffffff16815260200190815260200160002060405180610100016040529081600082018054612ffe9061546c565b80601f016020809104026020016040519081016040528092919081815260200182805461302a9061546c565b80156130775780601f1061304c57610100808354040283529160200191613077565b820191906000526020600020905b81548152906001019060200180831161305a57829003601f168201915b505050505081526020016001820180546130909061546c565b80601f01602080910402602001604051908101604052809291908181526020018280546130bc9061546c565b80156131095780601f106130de57610100808354040283529160200191613109565b820191906000526020600020905b8154815290600101906020018083116130ec57829003601f168201915b505050505081526020016002820180546131229061546c565b80601f016020809104026020016040519081016040528092919081815260200182805461314e9061546c565b801561319b5780601f106131705761010080835404028352916020019161319b565b820191906000526020600020905b81548152906001019060200180831161317e57829003601f168201915b505050505081526020016003820180546131b49061546c565b80601f01602080910402602001604051908101604052809291908181526020018280546131e09061546c565b801561322d5780601f106132025761010080835404028352916020019161322d565b820191906000526020600020905b81548152906001019060200180831161321057829003601f168201915b505050505081526020016004820180546132469061546c565b80601f01602080910402602001604051908101604052809291908181526020018280546132729061546c565b80156132bf5780601f10613294576101008083540402835291602001916132bf565b820191906000526020600020905b8154815290600101906020018083116132a257829003601f168201915b505050505081526020016005820180546132d89061546c565b80601f01602080910402602001604051908101604052809291908181526020018280546133049061546c565b80156133515780601f1061332657610100808354040283529160200191613351565b820191906000526020600020905b81548152906001019060200180831161333457829003601f168201915b5050505050815260200160068201805461336a9061546c565b80601f01602080910402602001604051908101604052809291908181526020018280546133969061546c565b80156133e35780601f106133b8576101008083540402835291602001916133e3565b820191906000526020600020905b8154815290600101906020018083116133c657829003601f168201915b505050505081526020016007820154815250509050806000015181602001518260400151836060015184608001518560a001518660c001518760e001519850985098509850985098509850985050919395975091939597565b60008054906101000a900473ffffffffffffffffffffffffffffffffffffffff1673ffffffffffffffffffffffffffffffffffffffff163373ffffffffffffffffffffffffffffffffffffffff161461349457600080fd5b60008054906101000a900473ffffffffffffffffffffffffffffffffffffffff1673ffffffffffffffffffffffffffffffffffffffff167ff8df31144d9c2f0f6b59d69b8b98abd5459d07f2742c4df920b25aae33c6482060405160405180910390a260008060006101000a81548173ffffffffffffffffffffffffffffffffffffffff021916908373ffffffffffffffffffffffffffffffffffffffff160217905550565b60008054906101000a900473ffffffffffffffffffffffffffffffffffffffff1681565b606080600033600160006101000a81548173ffffffffffffffffffffffffffffffffffffffff021916908373ffffffffffffffffffffffffffffffffffffffff1602179055506001600460003373ffffffffffffffffffffffffffffffffffffffff1673ffffffffffffffffffffffffffffffffffffffff16815260200190815260200160002060009054906101000a900460ff1660ff161461360057600080fd5b6000600a60008673ffffffffffffffffffffffffffffffffffffffff1673ffffffffffffffffffffffffffffffffffffffff16815260200190815260200160002060405180606001604052908160008201805461365c9061546c565b80601f01602080910402602001604051908101604052809291908181526020018280546136889061546c565b80156136d55780601f106136aa576101008083540402835291602001916136d5565b820191906000526020600020905b8154815290600101906020018083116136b857829003601f168201915b505050505081526020016001820180546136ee9061546c565b80601f016020809104026020016040519081016040528092919081815260200182805461371a9061546c565b80156137675780601f1061373c57610100808354040283529160200191613767565b820191906000526020600020905b81548152906001019060200180831161374a57829003601f168201915b505050505081526020016002820154815250509050806000015181602001518260400151935093509350509193909250565b60008033600160006101000a81548173ffffffffffffffffffffffffffffffffffffffff021916908373ffffffffffffffffffffffffffffffffffffffff1602179055506001600460003373ffffffffffffffffffffffffffffffffffffffff1673ffffffffffffffffffffffffffffffffffffffff16815260200190815260200160002060009054906101000a900460ff1660ff161461383957600080fd5b6000600860008573ffffffffffffffffffffffffffffffffffffffff1673ffffffffffffffffffffffffffffffffffffffff168152602001908152602001600020604051806040016040529081600082015481526020016001820154815250509050806000015181602001519250925050915091565b600033600160006101000a81548173ffffffffffffffffffffffffffffffffffffffff021916908373ffffffffffffffffffffffffffffffffffffffff1602179055506001600460003373ffffffffffffffffffffffffffffffffffffffff1673ffffffffffffffffffffffffffffffffffffffff16815260200190815260200160002060009054906101000a900460ff1660ff161461394e57600080fd5b83602660000190805190602001906139679291906144de565b5082602660010190805190602001906139819291906144de565b50816026600201819055506026600960008773ffffffffffffffffffffffffffffffffffffffff1673ffffffffffffffffffffffffffffffffffffffff16815260200190815260200160002060008201816000019080546139e19061546c565b6139ec929190614564565b506001820181600101908054613a019061546c565b613a0c929190614564565b50600282015481600201559050506040518060400160405280600e81526020017f534849505045525f5041434b4552000000000000000000000000000000000000815250600e60008773ffffffffffffffffffffffffffffffffffffffff1673ffffffffffffffffffffffffffffffffffffffff1681526020019081526020016000209080519060200190613aa29291906144de565b5060019050949350505050565b606080600033600160006101000a81548173ffffffffffffffffffffffffffffffffffffffff021916908373ffffffffffffffffffffffffffffffffffffffff1602179055506001600460003373ffffffffffffffffffffffffffffffffffffffff1673ffffffffffffffffffffffffffffffffffffffff16815260200190815260200160002060009054906101000a900460ff1660ff1614613b5157600080fd5b6000600960008673ffffffffffffffffffffffffffffffffffffffff1673ffffffffffffffffffffffffffffffffffffffff168152602001908152602001600020604051806060016040529081600082018054613bad9061546c565b80601f0160208091040260200160405190810160405280929190818152602001828054613bd99061546c565b8015613c265780601f10613bfb57610100808354040283529160200191613c26565b820191906000526020600020905b815481529060010190602001808311613c0957829003601f168201915b50505050508152602001600182018054613c3f9061546c565b80601f0160208091040260200160405190810160405280929190818152602001828054613c6b9061546c565b8015613cb85780601f10613c8d57610100808354040283529160200191613cb8565b820191906000526020600020905b815481529060010190602001808311613c9b57829003601f168201915b505050505081526020016002820154815250509050806000015181602001518260400151935093509350509193909250565b60008054906101000a900473ffffffffffffffffffffffffffffffffffffffff1673ffffffffffffffffffffffffffffffffffffffff163373ffffffffffffffffffffffffffffffffffffffff1614613d4257600080fd5b600073ffffffffffffffffffffffffffffffffffffffff168173ffffffffffffffffffffffffffffffffffffffff161415613d7c57600080fd5b8073ffffffffffffffffffffffffffffffffffffffff1660008054906101000a900473ffffffffffffffffffffffffffffffffffffffff1673ffffffffffffffffffffffffffffffffffffffff167f8be0079c531659141344cd1fd0a4f28419497f9722a3daafe3b4186f6b6457e060405160405180910390a3806000806101000a81548173ffffffffffffffffffffffffffffffffffffffff021916908373ffffffffffffffffffffffffffffffffffffffff16021790555050565b606080606080606033600160006101000a81548173ffffffffffffffffffffffffffffffffffffffff021916908373ffffffffffffffffffffffffffffffffffffffff1602179055506001600460003373ffffffffffffffffffffffffffffffffffffffff1673ffffffffffffffffffffffffffffffffffffffff16815260200190815260200160002060009054906101000a900460ff1660ff1614613ede57600080fd5b6000600560008873ffffffffffffffffffffffffffffffffffffffff1673ffffffffffffffffffffffffffffffffffffffff1681526020019081526020016000206040518060a0016040529081600082018054613f3a9061546c565b80601f0160208091040260200160405190810160405280929190818152602001828054613f669061546c565b8015613fb35780601f10613f8857610100808354040283529160200191613fb3565b820191906000526020600020905b815481529060010190602001808311613f9657829003601f168201915b50505050508152602001600182018054613fcc9061546c565b80601f0160208091040260200160405190810160405280929190818152602001828054613ff89061546c565b80156140455780601f1061401a57610100808354040283529160200191614045565b820191906000526020600020905b81548152906001019060200180831161402857829003601f168201915b5050505050815260200160028201805461405e9061546c565b80601f016020809104026020016040519081016040528092919081815260200182805461408a9061546c565b80156140d75780601f106140ac576101008083540402835291602001916140d7565b820191906000526020600020905b8154815290600101906020018083116140ba57829003601f168201915b505050505081526020016003820180546140f09061546c565b80601f016020809104026020016040519081016040528092919081815260200182805461411c9061546c565b80156141695780601f1061413e57610100808354040283529160200191614169565b820191906000526020600020905b81548152906001019060200180831161414c57829003601f168201915b505050505081526020016004820180546141829061546c565b80601f01602080910402602001604051908101604052809291908181526020018280546141ae9061546c565b80156141fb5780601f106141d0576101008083540402835291602001916141fb565b820191906000526020600020905b8154815290600101906020018083116141de57829003601f168201915b505050505081525050905080600001518160200151826040015183606001518460800151955095509550955095505091939590929450565b600033600160006101000a81548173ffffffffffffffffffffffffffffffffffffffff021916908373ffffffffffffffffffffffffffffffffffffffff1602179055506001600460003373ffffffffffffffffffffffffffffffffffffffff1673ffffffffffffffffffffffffffffffffffffffff16815260200190815260200160002060009054906101000a900460ff1660ff16146142d257600080fd5b85600f60000190805190602001906142eb9291906144de565b5084600f60010190805190602001906143059291906144de565b5082600f60020160006101000a81548160ff02191690831515021790555081600f600301908051906020019061433c9291906144de565b50600f600260008973ffffffffffffffffffffffffffffffffffffffff1673ffffffffffffffffffffffffffffffffffffffff16815260200190815260200160002060008201816000019080546143929061546c565b61439d929190614564565b5060018201816001019080546143b29061546c565b6143bd929190614564565b506002820160009054906101000a900460ff168160020160006101000a81548160ff02191690831515021790555060038201816003019080546143ff9061546c565b61440a929190614564565b5090505083600360008973ffffffffffffffffffffffffffffffffffffffff1673ffffffffffffffffffffffffffffffffffffffff16815260200190815260200160002090805190602001906144619291906144de565b507f1d222b775a8ac40f88e57f60a9f9cef32825dee88b7d0a2e757e7dd2082cbe77876040516144919190614af0565b60405180910390a17f5108391b825bd4c3d7f3c6a8d5cb1dfb3d7db4e2663bdef2d6a43643d6c38513876040516144c89190614af0565b60405180910390a1600190509695505050505050565b8280546144ea9061546c565b90600052602060002090601f01602090048101928261450c5760008555614553565b82601f1061452557805160ff1916838001178555614553565b82800160010185558215614553579182015b82811115614552578251825591602001919060010190614537565b5b50905061456091906145f1565b5090565b8280546145709061546c565b90600052602060002090601f01602090048101928261459257600085556145e0565b82601f106145a357805485556145e0565b828001600101855582156145e057600052602060002091601f016020900482015b828111156145df5782548255916001019190600101906145c4565b5b5090506145ed91906145f1565b5090565b5b8082111561460a5760008160009055506001016145f2565b5090565b6000604051905090565b600080fd5b600080fd5b600073ffffffffffffffffffffffffffffffffffffffff82169050919050565b600061464d82614622565b9050919050565b61465d81614642565b811461466857600080fd5b50565b60008135905061467a81614654565b92915050565b600080fd5b600080fd5b6000601f19601f8301169050919050565b7f4e487b7100000000000000000000000000000000000000000000000000000000600052604160045260246000fd5b6146d38261468a565b810181811067ffffffffffffffff821117156146f2576146f161469b565b5b80604052505050565b600061470561460e565b905061471182826146ca565b919050565b600067ffffffffffffffff8211156147315761473061469b565b5b61473a8261468a565b9050602081019050919050565b82818337600083830152505050565b600061476961476484614716565b6146fb565b90508281526020810184848401111561478557614784614685565b5b614790848285614747565b509392505050565b600082601f8301126147ad576147ac614680565b5b81356147bd848260208601614756565b91505092915050565b6000819050919050565b6147d9816147c6565b81146147e457600080fd5b50565b6000813590506147f6816147d0565b92915050565b6000806000806080858703121561481657614815614618565b5b60006148248782880161466b565b945050602085013567ffffffffffffffff8111156148455761484461461d565b5b61485187828801614798565b935050604085013567ffffffffffffffff8111156148725761487161461d565b5b61487e87828801614798565b925050606061488f878288016147e7565b91505092959194509250565b60008115159050919050565b6148b08161489b565b82525050565b60006020820190506148cb60008301846148a7565b92915050565b6000602082840312156148e7576148e6614618565b5b60006148f58482850161466b565b91505092915050565b600081519050919050565b600082825260208201905092915050565b60005b8381101561493857808201518184015260208101905061491d565b83811115614947576000848401525b50505050565b6000614958826148fe565b6149628185614909565b935061497281856020860161491a565b61497b8161468a565b840191505092915050565b61498f816147c6565b82525050565b600060608201905081810360008301526149af818661494d565b905081810360208301526149c3818561494d565b90506149d26040830184614986565b949350505050565b600080600080600060a086880312156149f6576149f5614618565b5b600086013567ffffffffffffffff811115614a1457614a1361461d565b5b614a2088828901614798565b955050602086013567ffffffffffffffff811115614a4157614a4061461d565b5b614a4d88828901614798565b945050604086013567ffffffffffffffff811115614a6e57614a6d61461d565b5b614a7a88828901614798565b935050606086013567ffffffffffffffff811115614a9b57614a9a61461d565b5b614aa788828901614798565b925050608086013567ffffffffffffffff811115614ac857614ac761461d565b5b614ad488828901614798565b9150509295509295909350565b614aea81614642565b82525050565b6000602082019050614b056000830184614ae1565b92915050565b60006020820190508181036000830152614b25818461494d565b905092915050565b600080600080600060a08688031215614b4957614b48614618565b5b6000614b578882890161466b565b955050602086013567ffffffffffffffff811115614b7857614b7761461d565b5b614b8488828901614798565b945050604086013567ffffffffffffffff811115614ba557614ba461461d565b5b614bb188828901614798565b935050606086013567ffffffffffffffff811115614bd257614bd161461d565b5b614bde88828901614798565b925050608086013567ffffffffffffffff811115614bff57614bfe61461d565b5b614c0b88828901614798565b9150509295509295909350565b60006080820190508181036000830152614c32818761494d565b90508181036020830152614c46818661494d565b90508181036040830152614c5a818561494d565b9050614c696060830184614986565b95945050505050565b60006080820190508181036000830152614c8c818761494d565b90508181036020830152614ca0818661494d565b90508181036040830152614cb4818561494d565b90508181036060830152614cc8818461494d565b905095945050505050565b600080600060608486031215614cec57614ceb614618565b5b6000614cfa8682870161466b565b9350506020614d0b868287016147e7565b9250506040614d1c868287016147e7565b9150509250925092565b600080600080600060a08688031215614d4257614d41614618565b5b6000614d508882890161466b565b955050602086013567ffffffffffffffff811115614d7157614d7061461d565b5b614d7d88828901614798565b945050604086013567ffffffffffffffff811115614d9e57614d9d61461d565b5b614daa88828901614798565b935050606086013567ffffffffffffffff811115614dcb57614dca61461d565b5b614dd788828901614798565b9250506080614de8888289016147e7565b9150509295509295909350565b600080600080600080600080610100898b031215614e1657614e15614618565b5b6000614e248b828c0161466b565b985050602089013567ffffffffffffffff811115614e4557614e4461461d565b5b614e518b828c01614798565b975050604089013567ffffffffffffffff811115614e7257614e7161461d565b5b614e7e8b828c01614798565b965050606089013567ffffffffffffffff811115614e9f57614e9e61461d565b5b614eab8b828c01614798565b955050608089013567ffffffffffffffff811115614ecc57614ecb61461d565b5b614ed88b828c01614798565b94505060a089013567ffffffffffffffff811115614ef957614ef861461d565b5b614f058b828c01614798565b93505060c0614f168b828c016147e7565b92505060e0614f278b828c016147e7565b9150509295985092959890939650565b600060e0820190508181036000830152614f51818a61494d565b90508181036020830152614f65818961494d565b90508181036040830152614f79818861494d565b90508181036060830152614f8d818761494d565b90508181036080830152614fa1818661494d565b9050614fb060a0830185614986565b614fbd60c0830184614986565b98975050505050505050565b60008060008060008060008060006101208a8c031215614fec57614feb614618565b5b6000614ffa8c828d0161466b565b99505060208a013567ffffffffffffffff81111561501b5761501a61461d565b5b6150278c828d01614798565b98505060408a013567ffffffffffffffff8111156150485761504761461d565b5b6150548c828d01614798565b97505060608a013567ffffffffffffffff8111156150755761507461461d565b5b6150818c828d01614798565b96505060808a013567ffffffffffffffff8111156150a2576150a161461d565b5b6150ae8c828d01614798565b95505060a08a013567ffffffffffffffff8111156150cf576150ce61461d565b5b6150db8c828d01614798565b94505060c08a013567ffffffffffffffff8111156150fc576150fb61461d565b5b6151088c828d01614798565b93505060e08a013567ffffffffffffffff8111156151295761512861461d565b5b6151358c828d01614798565b9250506101006151478c828d016147e7565b9150509295985092959850929598565b600060a0820190508181036000830152615171818861494d565b90508181036020830152615185818761494d565b90508181036040830152615199818661494d565b90506151a860608301856148a7565b81810360808301526151ba818461494d565b90509695505050505050565b60006101008201905081810360008301526151e1818b61494d565b905081810360208301526151f5818a61494d565b90508181036040830152615209818961494d565b9050818103606083015261521d818861494d565b90508181036080830152615231818761494d565b905081810360a0830152615245818661494d565b905081810360c0830152615259818561494d565b905061526860e0830184614986565b9998505050505050505050565b600060408201905061528a6000830185614986565b6152976020830184614986565b9392505050565b600060a08201905081810360008301526152b8818861494d565b905081810360208301526152cc818761494d565b905081810360408301526152e0818661494d565b905081810360608301526152f4818561494d565b90508181036080830152615308818461494d565b90509695505050505050565b61531d8161489b565b811461532857600080fd5b50565b60008135905061533a81615314565b92915050565b60008060008060008060c0878903121561535d5761535c614618565b5b600061536b89828a0161466b565b965050602087013567ffffffffffffffff81111561538c5761538b61461d565b5b61539889828a01614798565b955050604087013567ffffffffffffffff8111156153b9576153b861461d565b5b6153c589828a01614798565b945050606087013567ffffffffffffffff8111156153e6576153e561461d565b5b6153f289828a01614798565b935050608061540389828a0161532b565b92505060a087013567ffffffffffffffff8111156154245761542361461d565b5b61543089828a01614798565b9150509295509295509295565b7f4e487b7100000000000000000000000000000000000000000000000000000000600052602260045260246000fd5b6000600282049050600182168061548457607f821691505b602082108114156154985761549761543d565b5b50919050565b60008160601b9050919050565b60006154b68261549e565b9050919050565b60006154c8826154ab565b9050919050565b6154e06154db82614642565b6154bd565b82525050565b6000819050919050565b6155016154fc826147c6565b6154e6565b82525050565b600061551382856154cf565b60148201915061552382846154f0565b602082019150819050939250505056fea2646970667358221220d2c6a2b227d8012e38b4616b4afed3cfd485d3171f278c923a35f3f9eab0a74f64736f6c63430008090033",
  "immutableReferences": {},
  "source": "//SPDX-License-Identifier: MIT\n\npragma solidity ^0.8.9;\n\nimport \"./SupplyChainStorageOwnable.sol\";\n\ncontract SupplyChainStorage is SupplyChainStorageOwnable {\n    address public lastAccess;\n\n    constructor() {\n        authorizedCaller[msg.sender] = 1;\n        emit AuthorizedCaller(msg.sender);\n    }\n\n    event AuthorizedCaller(address caller);\n    event DeAuthorizedCaller(address caller);\n\n    event UserUpdate(address userAddress);\n    event UserRoleUpdate(address userAddress);\n\n    modifier onlyAuthCaller() {\n        lastAccess = msg.sender;\n        require(authorizedCaller[msg.sender] == 1);\n        _;\n    }\n\n    struct User {\n        string name;\n        string contactNo;\n        bool isActive;\n        string profileHash;\n    }\n\n    mapping(address => User) userDetails;\n    mapping(address => string) userRole;\n\n    mapping(address => uint8) authorizedCaller;\n\n    function authorizeCaller(address _caller) public onlyOwner returns (bool) {\n        authorizedCaller[_caller] = 1;\n        emit AuthorizedCaller(_caller);\n        return true;\n    }\n\n    function deAuthorizeCaller(address _caller)\n        public\n        onlyOwner\n        returns (bool)\n    {\n        authorizedCaller[_caller] = 0;\n        emit DeAuthorizedCaller(_caller);\n        return true;\n    }\n\n    struct FarmDetails {\n        string registrationNo;\n        string farmName;\n        string latitude;\n        string longitude;\n        string farmAddress;\n    }\n\n    struct Harvest {\n        string coffeeFamily;\n        string typeOfSeed;\n        string fertilizerUsed;\n        string harvestDate;\n    }\n\n    struct Process {\n        string procAddress;\n        string typeOfDrying;\n        string roastImageHash;\n        string roastTemp;\n        string typeOfRoast;\n        string roastDate;\n        string millDate;\n        uint256 processorPrice;\n    }\n\n    struct Grain {\n        uint256 tasteScore;\n        uint256 grainPrice;\n    }\n\n    struct Agglomerate {\n        string agglomAddress;\n        string agglomDate;\n        uint256 storagePrice;\n    }\n\n    struct ShipToPacker {\n        string transportTypeP;\n        string pickupDateP;\n        uint256 shipPriceP;\n    }\n\n    struct Pack {\n        string packAddress;\n        string arrivalDateP;\n        string packDate;\n        uint256 packPrice;\n    }\n\n    struct ShipToRetailer {\n        string transportTypeR;\n        string pickupDateR;\n        uint256 shipPriceR;\n    }\n\n    struct Retailer {\n        string arrivalDateW;\n        string arrivalDateSP;\n        string warehouseName;\n        string warehouseAddress;\n        string salePointAddress;\n        uint256 shipPriceSP;\n        uint256 productPrice;\n    }\n\n    mapping(address => FarmDetails) batchFarmDetails;\n    mapping(address => Harvest) batchHarvest;\n    mapping(address => Process) batchProcess;\n    mapping(address => Grain) batchGrain;\n    mapping(address => Agglomerate) batchAgglomerate;\n    mapping(address => ShipToPacker) batchShipToPacker;\n    mapping(address => Pack) batchPack;\n    mapping(address => ShipToRetailer) batchShipToRetailer;\n    mapping(address => Retailer) batchRetailer;\n    mapping(address => string) nextAction;\n\n    User userData;\n    FarmDetails farmDetailsData;\n    Harvest harvestData;\n    Process processData;\n    Grain grainData;\n    Agglomerate agglomData;\n    ShipToPacker shipPackerData;\n    Pack packData;\n    ShipToRetailer shipRetailerData;\n    Retailer retailerData;\n\n    function getUserRole(address _userAddress)\n        public\n        onlyAuthCaller\n        returns (string memory)\n    {\n        return userRole[_userAddress];\n    }\n\n    function getNextAction(address _batchNo)\n        public\n        onlyAuthCaller\n        returns (string memory)\n    {\n        return nextAction[_batchNo];\n    }\n\n    function setUser(\n        address _userAddress,\n        string memory _name,\n        string memory _contactNo,\n        string memory _role,\n        bool _isActive,\n        string memory _profileHash\n    ) public onlyAuthCaller returns (bool) {\n        userData.name = _name;\n        userData.contactNo = _contactNo;\n        userData.isActive = _isActive;\n        userData.profileHash = _profileHash;\n\n        userDetails[_userAddress] = userData;\n        userRole[_userAddress] = _role;\n\n        emit UserUpdate(_userAddress);\n        emit UserRoleUpdate(_userAddress);\n        return true;\n    }\n\n    function getUser(address _userAddress)\n        public\n        onlyAuthCaller\n        returns (\n            string memory name,\n            string memory contactNo,\n            string memory role,\n            bool isActive,\n            string memory profileHash\n        )\n    {\n        User memory tmpData = userDetails[_userAddress];\n        return (\n            tmpData.name,\n            tmpData.contactNo,\n            userRole[_userAddress],\n            tmpData.isActive,\n            tmpData.profileHash\n        );\n    }\n\n    function setFarmDetails(\n        string memory _registrationNo,\n        string memory _farmName,\n        string memory _latitude,\n        string memory _longitude,\n        string memory _farmAddress\n    ) public onlyAuthCaller returns (address) {\n        uint256 tmpData = uint256(\n            keccak256(abi.encodePacked(msg.sender, block.timestamp))\n        );\n        address batchNo = address(uint160(tmpData));\n\n        farmDetailsData.registrationNo = _registrationNo;\n        farmDetailsData.farmName = _farmName;\n        farmDetailsData.latitude = _latitude;\n        farmDetailsData.longitude = _longitude;\n        farmDetailsData.farmAddress = _farmAddress;\n\n        batchFarmDetails[batchNo] = farmDetailsData;\n        nextAction[batchNo] = \"FARMER\";\n        return batchNo;\n    }\n\n    function getFarmDetails(address _batchNo)\n        public\n        onlyAuthCaller\n        returns (\n            string memory registrationNo,\n            string memory farmName,\n            string memory latitude,\n            string memory longitude,\n            string memory farmAddress\n        )\n    {\n        FarmDetails memory tmpData = batchFarmDetails[_batchNo];\n\n        return (\n            tmpData.registrationNo,\n            tmpData.farmName,\n            tmpData.latitude,\n            tmpData.longitude,\n            tmpData.farmAddress\n        );\n    }\n\n    function setHarvestData(\n        address batchNo,\n        string memory _coffeeFamily,\n        string memory _typeOfSeed,\n        string memory _fertilizerUsed,\n        string memory _harvestDate\n    ) public onlyAuthCaller returns (bool) {\n        harvestData.coffeeFamily = _coffeeFamily;\n        harvestData.typeOfSeed = _typeOfSeed;\n        harvestData.fertilizerUsed = _fertilizerUsed;\n        harvestData.harvestDate = _harvestDate;\n\n        batchHarvest[batchNo] = harvestData;\n        nextAction[batchNo] = \"PROCESSOR\";\n        return true;\n    }\n\n    function getHarvestData(address batchNo)\n        public\n        onlyAuthCaller\n        returns (\n            string memory coffeeFamily,\n            string memory typeOfSeed,\n            string memory fertilizerUsed,\n            string memory harvestDate\n        )\n    {\n        Harvest memory tmpData = batchHarvest[batchNo];\n        return (\n            tmpData.coffeeFamily,\n            tmpData.typeOfSeed,\n            tmpData.fertilizerUsed,\n            tmpData.harvestDate\n        );\n    }\n\n    function setProcessData(\n        address batchNo,\n        string memory _procAddress,\n        string memory _typeOfDrying,\n        string memory _roastImageHash,\n        string memory _roastTemp,\n        string memory _typeOfRoast,\n        string memory _roastDate,\n        string memory _millDate,\n        uint256 _processorPrice\n    ) public onlyAuthCaller returns (bool) {\n        processData.procAddress = _procAddress;\n        processData.typeOfDrying = _typeOfDrying;\n        processData.roastImageHash = _roastImageHash;\n        processData.roastTemp = _roastTemp;\n        processData.typeOfRoast = _typeOfRoast;\n        processData.roastDate = _roastDate;\n        processData.millDate = _millDate;\n        processData.processorPrice = _processorPrice;\n\n        batchProcess[batchNo] = processData;\n        nextAction[batchNo] = \"GRAIN_INSPECTOR\";\n        return true;\n    }\n\n    function getProcessData(address batchNo)\n        public\n        onlyAuthCaller\n        returns (\n            string memory procAddress,\n            string memory typeOfDrying,\n            string memory roastImageHash,\n            string memory roastTemp,\n            string memory typeOfRoast,\n            string memory roastDate,\n            string memory millDate,\n            uint256 processorPrice\n        )\n    {\n        Process memory tmpData = batchProcess[batchNo];\n        return (\n            tmpData.procAddress,\n            tmpData.typeOfDrying,\n            tmpData.roastImageHash,\n            tmpData.roastTemp,\n            tmpData.typeOfRoast,\n            tmpData.roastDate,\n            tmpData.millDate,\n            tmpData.processorPrice\n        );\n    }\n\n    function setGrainData(\n        address batchNo,\n        uint256 _tasteScore,\n        uint256 _grainPrice\n    ) public onlyAuthCaller returns (bool) {\n        grainData.tasteScore = _tasteScore;\n        grainData.grainPrice = _grainPrice;\n\n        batchGrain[batchNo] = grainData;\n        nextAction[batchNo] = \"AGGLOMERATOR\";\n        return true;\n    }\n\n    function getGrainData(address batchNo)\n        public\n        onlyAuthCaller\n        returns (uint256 tasteScore, uint256 grainPrice)\n    {\n        Grain memory tmpData = batchGrain[batchNo];\n        return (tmpData.tasteScore, tmpData.grainPrice);\n    }\n\n    function setAgglomData(\n        address batchNo,\n        string memory _agglomAddress,\n        string memory _agglomDate,\n        uint256 _storagePrice\n    ) public onlyAuthCaller returns (bool) {\n        agglomData.agglomAddress = _agglomAddress;\n        agglomData.agglomDate = _agglomDate;\n        agglomData.storagePrice = _storagePrice;\n\n        batchAgglomerate[batchNo] = agglomData;\n        nextAction[batchNo] = \"SHIPPER_PACKER\";\n        return true;\n    }\n\n    function getAgglomData(address batchNo)\n        public\n        onlyAuthCaller\n        returns (\n            string memory agglomAddress,\n            string memory agglomDate,\n            uint256 storagePrice\n        )\n    {\n        Agglomerate memory tmpData = batchAgglomerate[batchNo];\n        return (\n            tmpData.agglomAddress,\n            tmpData.agglomDate,\n            tmpData.storagePrice\n        );\n    }\n\n    function setShipPackerData(\n        address batchNo,\n        string memory _transportTypeP,\n        string memory _pickupDateP,\n        uint256 _shipPriceP\n    ) public onlyAuthCaller returns (bool) {\n        shipPackerData.transportTypeP = _transportTypeP;\n        shipPackerData.pickupDateP = _pickupDateP;\n        shipPackerData.shipPriceP = _shipPriceP;\n\n        batchShipToPacker[batchNo] = shipPackerData;\n        nextAction[batchNo] = \"PACKER\";\n        return true;\n    }\n\n    function getShipPackerData(address batchNo)\n        public\n        onlyAuthCaller\n        returns (\n            string memory transportTypeP,\n            string memory pickupDateP,\n            uint256 shipPriceP\n        )\n    {\n        ShipToPacker memory tmpData = batchShipToPacker[batchNo];\n        return (\n            tmpData.transportTypeP,\n            tmpData.pickupDateP,\n            tmpData.shipPriceP\n        );\n    }\n\n    function setPackData(\n        address batchNo,\n        string memory _packAddress,\n        string memory _arrivalDateP,\n        string memory _packDate,\n        uint256 _packPrice\n    ) public onlyAuthCaller returns (bool) {\n        packData.packAddress = _packAddress;\n        packData.arrivalDateP = _arrivalDateP;\n        packData.packDate = _packDate;\n        packData.packPrice = _packPrice;\n\n        batchPack[batchNo] = packData;\n        nextAction[batchNo] = \"SHIPPER_RETAILER\";\n        return true;\n    }\n\n    function getPackData(address batchNo)\n        public\n        onlyAuthCaller\n        returns (\n            string memory packAddress,\n            string memory arrivalDateP,\n            string memory packDate,\n            uint256 packPrice\n        )\n    {\n        Pack memory tmpData = batchPack[batchNo];\n        return (\n            tmpData.packAddress,\n            tmpData.arrivalDateP,\n            tmpData.packDate,\n            tmpData.packPrice\n        );\n    }\n\n    function setShipRetailerData(\n        address batchNo,\n        string memory _transportTypeR,\n        string memory _pickupDateR,\n        uint256 _shipPriceR\n    ) public onlyAuthCaller returns (bool) {\n        shipRetailerData.transportTypeR = _transportTypeR;\n        shipRetailerData.pickupDateR = _pickupDateR;\n        shipRetailerData.shipPriceR = _shipPriceR;\n\n        batchShipToRetailer[batchNo] = shipRetailerData;\n        nextAction[batchNo] = \"RETAILER\";\n        return true;\n    }\n\n    function getShipRetailerData(address batchNo)\n        public\n        onlyAuthCaller\n        returns (\n            string memory transportTypeR,\n            string memory pickupDateR,\n            uint256 shipPriceR\n        )\n    {\n        ShipToRetailer memory tmpData = batchShipToRetailer[batchNo];\n        return (\n            tmpData.transportTypeR,\n            tmpData.pickupDateR,\n            tmpData.shipPriceR\n        );\n    }\n\n    function setRetailerData(\n        address batchNo,\n        string memory _arrivalDateW,\n        string memory _arrivalDateSP,\n        string memory _warehouseName,\n        string memory _warehouseAddress,\n        string memory _salePointAddress,\n        uint256 _shipPriceSP,\n        uint256 _productPrice\n    ) public onlyAuthCaller returns (bool) {\n        retailerData.arrivalDateW = _arrivalDateW;\n        retailerData.arrivalDateSP = _arrivalDateSP;\n        retailerData.warehouseName = _warehouseName;\n        retailerData.warehouseAddress = _warehouseAddress;\n        retailerData.salePointAddress = _salePointAddress;\n        retailerData.shipPriceSP = _shipPriceSP;\n        retailerData.productPrice = _productPrice;\n\n        batchRetailer[batchNo] = retailerData;\n        nextAction[batchNo] = \"DONE\";\n        return true;\n    }\n\n    function getRetailerData(address batchNo)\n        public\n        onlyAuthCaller\n        returns (\n            string memory arrivalDateW,\n            string memory arrivalDateSP,\n            string memory warehouseName,\n            string memory warehouseAddress,\n            string memory salePointAddress,\n            uint256 shipPriceSP,\n            uint256 productPrice\n        )\n    {\n        Retailer memory tmpData = batchRetailer[batchNo];\n        return (\n            tmpData.arrivalDateW,\n            tmpData.arrivalDateSP,\n            tmpData.warehouseName,\n            tmpData.warehouseAddress,\n            tmpData.salePointAddress,\n            tmpData.shipPriceSP,\n            tmpData.productPrice\n        );\n    }\n}\n",
  "sourcePath": "/home/nathalia/TESIS/coffee-supply-chain-tracking-system-ethereum/contracts/SupplyChainStorage.sol",
  "compiler": {
    "name": "solc",
    "version": "0.8.9+commit.e5eed63a.Emscripten.clang"
  },
  "schemaVersion": "3.4.4",
  "updatedAt": "2022-04-07T07:18:23.011Z",
  "networkType": "ethereum",
  "devdoc": {
    "kind": "dev",
    "methods": {},
    "version": 1
  },
  "userdoc": {
    "kind": "user",
    "methods": {},
    "version": 1
  }
}