{
  "contractName": "SupplyChainUser",
  "abi": [
    {
      "inputs": [
        {
          "internalType": "address",
          "name": "_supplyChainAddress",
          "type": "address"
        }
      ],
      "stateMutability": "nonpayable",
      "type": "constructor"
    },
    {
      "anonymous": false,
      "inputs": [
        {
          "indexed": true,
          "internalType": "address",
          "name": "previousOwner",
          "type": "address"
        }
      ],
      "name": "OwnershipRenounced",
      "type": "event"
    },
    {
      "anonymous": false,
      "inputs": [
        {
          "indexed": true,
          "internalType": "address",
          "name": "previusOwner",
          "type": "address"
        },
        {
          "indexed": true,
          "internalType": "address",
          "name": "newOwner",
          "type": "address"
        }
      ],
      "name": "OwnershipTransferred",
      "type": "event"
    },
    {
      "anonymous": false,
      "inputs": [
        {
          "indexed": true,
          "internalType": "address",
          "name": "user",
          "type": "address"
        },
        {
          "indexed": false,
          "internalType": "string",
          "name": "role",
          "type": "string"
        }
      ],
      "name": "UserRoleUpdate",
      "type": "event"
    },
    {
      "anonymous": false,
      "inputs": [
        {
          "indexed": true,
          "internalType": "address",
          "name": "user",
          "type": "address"
        },
        {
          "indexed": false,
          "internalType": "string",
          "name": "name",
          "type": "string"
        },
        {
          "indexed": false,
          "internalType": "string",
          "name": "contactNo",
          "type": "string"
        },
        {
          "indexed": false,
          "internalType": "string",
          "name": "role",
          "type": "string"
        },
        {
          "indexed": false,
          "internalType": "bool",
          "name": "isActive",
          "type": "bool"
        },
        {
          "indexed": false,
          "internalType": "string",
          "name": "profileHash",
          "type": "string"
        }
      ],
      "name": "UserUpdate",
      "type": "event"
    },
    {
      "inputs": [],
      "name": "owner",
      "outputs": [
        {
          "internalType": "address",
          "name": "",
          "type": "address"
        }
      ],
      "stateMutability": "view",
      "type": "function",
      "constant": true
    },
    {
      "inputs": [],
      "name": "renounceOwnership",
      "outputs": [],
      "stateMutability": "nonpayable",
      "type": "function"
    },
    {
      "inputs": [
        {
          "internalType": "address",
          "name": "newOwner",
          "type": "address"
        }
      ],
      "name": "transferOwnership",
      "outputs": [],
      "stateMutability": "nonpayable",
      "type": "function"
    },
    {
      "inputs": [
        {
          "internalType": "string",
          "name": "_name",
          "type": "string"
        },
        {
          "internalType": "string",
          "name": "_contactNo",
          "type": "string"
        },
        {
          "internalType": "string",
          "name": "_role",
          "type": "string"
        },
        {
          "internalType": "bool",
          "name": "_isActive",
          "type": "bool"
        },
        {
          "internalType": "string",
          "name": "_profileHash",
          "type": "string"
        }
      ],
      "name": "updateUser",
      "outputs": [
        {
          "internalType": "bool",
          "name": "",
          "type": "bool"
        }
      ],
      "stateMutability": "nonpayable",
      "type": "function"
    },
    {
      "inputs": [
        {
          "internalType": "address",
          "name": "_userAddress",
          "type": "address"
        },
        {
          "internalType": "string",
          "name": "_name",
          "type": "string"
        },
        {
          "internalType": "string",
          "name": "_contactNo",
          "type": "string"
        },
        {
          "internalType": "string",
          "name": "_role",
          "type": "string"
        },
        {
          "internalType": "bool",
          "name": "_isActive",
          "type": "bool"
        },
        {
          "internalType": "string",
          "name": "_profileHash",
          "type": "string"
        }
      ],
      "name": "updateUserForAdmin",
      "outputs": [
        {
          "internalType": "bool",
          "name": "",
          "type": "bool"
        }
      ],
      "stateMutability": "nonpayable",
      "type": "function"
    },
    {
      "inputs": [
        {
          "internalType": "address",
          "name": "_userAddress",
          "type": "address"
        }
      ],
      "name": "getUser",
      "outputs": [
        {
          "internalType": "string",
          "name": "name",
          "type": "string"
        },
        {
          "internalType": "string",
          "name": "contactNo",
          "type": "string"
        },
        {
          "internalType": "string",
          "name": "role",
          "type": "string"
        },
        {
          "internalType": "bool",
          "name": "isActive",
          "type": "bool"
        },
        {
          "internalType": "string",
          "name": "profileHash",
          "type": "string"
        }
      ],
      "stateMutability": "nonpayable",
      "type": "function"
    }
  ],
  "bytecode": "0x60806040523480156200001157600080fd5b5060405162001198380380620011988339818101604052810190620000379190620000d6565b336000806101000a81548173ffffffffffffffffffffffffffffffffffffffff021916908373ffffffffffffffffffffffffffffffffffffffff16021790555080600160006101000a81548173ffffffffffffffffffffffffffffffffffffffff021916908373ffffffffffffffffffffffffffffffffffffffff160217905550506200015b565b600081519050620000d08162000141565b92915050565b600060208284031215620000ef57620000ee6200013c565b5b6000620000ff84828501620000bf565b91505092915050565b600062000115826200011c565b9050919050565b600073ffffffffffffffffffffffffffffffffffffffff82169050919050565b600080fd5b6200014c8162000108565b81146200015857600080fd5b50565b61102d806200016b6000396000f3fe608060405234801561001057600080fd5b50600436106100625760003560e01c80631e7d76aa146100675780636f77926b14610097578063715018a6146100cb5780638da5cb5b146100d5578063f2fde38b146100f3578063f5c8dee91461010f575b600080fd5b610081600480360381019061007c91906109b7565b61013f565b60405161008e9190610da6565b60405180910390f35b6100b160048036038101906100ac919061098a565b610341565b6040516100c2959493929190610de3565b60405180910390f35b6100d3610453565b005b6100dd610551565b6040516100ea9190610d0e565b60405180910390f35b61010d6004803603810190610108919061098a565b610575565b005b61012960048036038101906101249190610ae1565b6106c4565b6040516101369190610da6565b60405180910390f35b60008060009054906101000a900473ffffffffffffffffffffffffffffffffffffffff1673ffffffffffffffffffffffffffffffffffffffff163373ffffffffffffffffffffffffffffffffffffffff161461019a57600080fd5b600073ffffffffffffffffffffffffffffffffffffffff168773ffffffffffffffffffffffffffffffffffffffff1614156101d457600080fd5b6000600160009054906101000a900473ffffffffffffffffffffffffffffffffffffffff1673ffffffffffffffffffffffffffffffffffffffff1663fb7a20af8989898989896040518763ffffffff1660e01b815260040161023b96959493929190610d29565b602060405180830381600087803b15801561025557600080fd5b505af1158015610269573d6000803e3d6000fd5b505050506040513d601f19601f8201168201806040525081019061028d9190610ab4565b90508773ffffffffffffffffffffffffffffffffffffffff167f913673700610456ef7bb668e20badb980d1e4df0ba5bfbdbb6e7bfb0ddbcc6c988888888886040516102dd959493929190610de3565b60405180910390a28773ffffffffffffffffffffffffffffffffffffffff167f3b419384c2ac88d62e2daac72f8c6e6398c474d91c63e814a307e3641762c8de8660405161032b9190610dc1565b60405180910390a2809150509695505050505050565b606080606060006060600073ffffffffffffffffffffffffffffffffffffffff168673ffffffffffffffffffffffffffffffffffffffff16141561038457600080fd5b600160009054906101000a900473ffffffffffffffffffffffffffffffffffffffff1673ffffffffffffffffffffffffffffffffffffffff16636f77926b876040518263ffffffff1660e01b81526004016103df9190610d0e565b600060405180830381600087803b1580156103f957600080fd5b505af115801561040d573d6000803e3d6000fd5b505050506040513d6000823e3d601f19601f820116820180604052508101906104369190610bcc565b809550819650829750839850849950505050505091939590929450565b60008054906101000a900473ffffffffffffffffffffffffffffffffffffffff1673ffffffffffffffffffffffffffffffffffffffff163373ffffffffffffffffffffffffffffffffffffffff16146104ab57600080fd5b60008054906101000a900473ffffffffffffffffffffffffffffffffffffffff1673ffffffffffffffffffffffffffffffffffffffff167ff8df31144d9c2f0f6b59d69b8b98abd5459d07f2742c4df920b25aae33c6482060405160405180910390a260008060006101000a81548173ffffffffffffffffffffffffffffffffffffffff021916908373ffffffffffffffffffffffffffffffffffffffff160217905550565b60008054906101000a900473ffffffffffffffffffffffffffffffffffffffff1681565b60008054906101000a900473ffffffffffffffffffffffffffffffffffffffff1673ffffffffffffffffffffffffffffffffffffffff163373ffffffffffffffffffffffffffffffffffffffff16146105cd57600080fd5b600073ffffffffffffffffffffffffffffffffffffffff168173ffffffffffffffffffffffffffffffffffffffff16141561060757600080fd5b8073ffffffffffffffffffffffffffffffffffffffff1660008054906101000a900473ffffffffffffffffffffffffffffffffffffffff1673ffffffffffffffffffffffffffffffffffffffff167f8be0079c531659141344cd1fd0a4f28419497f9722a3daafe3b4186f6b6457e060405160405180910390a3806000806101000a81548173ffffffffffffffffffffffffffffffffffffffff021916908373ffffffffffffffffffffffffffffffffffffffff16021790555050565b60008073ffffffffffffffffffffffffffffffffffffffff163373ffffffffffffffffffffffffffffffffffffffff1614156106ff57600080fd5b6000600160009054906101000a900473ffffffffffffffffffffffffffffffffffffffff1673ffffffffffffffffffffffffffffffffffffffff1663fb7a20af3389898989896040518763ffffffff1660e01b815260040161076696959493929190610d29565b602060405180830381600087803b15801561078057600080fd5b505af1158015610794573d6000803e3d6000fd5b505050506040513d601f19601f820116820180604052508101906107b89190610ab4565b90503373ffffffffffffffffffffffffffffffffffffffff167f913673700610456ef7bb668e20badb980d1e4df0ba5bfbdbb6e7bfb0ddbcc6c98888888888604051610808959493929190610de3565b60405180910390a23373ffffffffffffffffffffffffffffffffffffffff167f3b419384c2ac88d62e2daac72f8c6e6398c474d91c63e814a307e3641762c8de866040516108569190610dc1565b60405180910390a28091505095945050505050565b600061087e61087984610e77565b610e52565b90508281526020810184848401111561089a57610899610fa9565b5b6108a5848285610f02565b509392505050565b60006108c06108bb84610e77565b610e52565b9050828152602081018484840111156108dc576108db610fa9565b5b6108e7848285610f11565b509392505050565b6000813590506108fe81610fc9565b92915050565b60008135905061091381610fe0565b92915050565b60008151905061092881610fe0565b92915050565b600082601f83011261094357610942610fa4565b5b813561095384826020860161086b565b91505092915050565b600082601f83011261097157610970610fa4565b5b81516109818482602086016108ad565b91505092915050565b6000602082840312156109a05761099f610fb3565b5b60006109ae848285016108ef565b91505092915050565b60008060008060008060c087890312156109d4576109d3610fb3565b5b60006109e289828a016108ef565b965050602087013567ffffffffffffffff811115610a0357610a02610fae565b5b610a0f89828a0161092e565b955050604087013567ffffffffffffffff811115610a3057610a2f610fae565b5b610a3c89828a0161092e565b945050606087013567ffffffffffffffff811115610a5d57610a5c610fae565b5b610a6989828a0161092e565b9350506080610a7a89828a01610904565b92505060a087013567ffffffffffffffff811115610a9b57610a9a610fae565b5b610aa789828a0161092e565b9150509295509295509295565b600060208284031215610aca57610ac9610fb3565b5b6000610ad884828501610919565b91505092915050565b600080600080600060a08688031215610afd57610afc610fb3565b5b600086013567ffffffffffffffff811115610b1b57610b1a610fae565b5b610b278882890161092e565b955050602086013567ffffffffffffffff811115610b4857610b47610fae565b5b610b548882890161092e565b945050604086013567ffffffffffffffff811115610b7557610b74610fae565b5b610b818882890161092e565b9350506060610b9288828901610904565b925050608086013567ffffffffffffffff811115610bb357610bb2610fae565b5b610bbf8882890161092e565b9150509295509295909350565b600080600080600060a08688031215610be857610be7610fb3565b5b600086015167ffffffffffffffff811115610c0657610c05610fae565b5b610c128882890161095c565b955050602086015167ffffffffffffffff811115610c3357610c32610fae565b5b610c3f8882890161095c565b945050604086015167ffffffffffffffff811115610c6057610c5f610fae565b5b610c6c8882890161095c565b9350506060610c7d88828901610919565b925050608086015167ffffffffffffffff811115610c9e57610c9d610fae565b5b610caa8882890161095c565b9150509295509295909350565b610cc081610ec4565b82525050565b610ccf81610ed6565b82525050565b6000610ce082610ea8565b610cea8185610eb3565b9350610cfa818560208601610f11565b610d0381610fb8565b840191505092915050565b6000602082019050610d236000830184610cb7565b92915050565b600060c082019050610d3e6000830189610cb7565b8181036020830152610d508188610cd5565b90508181036040830152610d648187610cd5565b90508181036060830152610d788186610cd5565b9050610d876080830185610cc6565b81810360a0830152610d998184610cd5565b9050979650505050505050565b6000602082019050610dbb6000830184610cc6565b92915050565b60006020820190508181036000830152610ddb8184610cd5565b905092915050565b600060a0820190508181036000830152610dfd8188610cd5565b90508181036020830152610e118187610cd5565b90508181036040830152610e258186610cd5565b9050610e346060830185610cc6565b8181036080830152610e468184610cd5565b90509695505050505050565b6000610e5c610e6d565b9050610e688282610f44565b919050565b6000604051905090565b600067ffffffffffffffff821115610e9257610e91610f75565b5b610e9b82610fb8565b9050602081019050919050565b600081519050919050565b600082825260208201905092915050565b6000610ecf82610ee2565b9050919050565b60008115159050919050565b600073ffffffffffffffffffffffffffffffffffffffff82169050919050565b82818337600083830152505050565b60005b83811015610f2f578082015181840152602081019050610f14565b83811115610f3e576000848401525b50505050565b610f4d82610fb8565b810181811067ffffffffffffffff82111715610f6c57610f6b610f75565b5b80604052505050565b7f4e487b7100000000000000000000000000000000000000000000000000000000600052604160045260246000fd5b600080fd5b600080fd5b600080fd5b600080fd5b6000601f19601f8301169050919050565b610fd281610ec4565b8114610fdd57600080fd5b50565b610fe981610ed6565b8114610ff457600080fd5b5056fea26469706673582212207b3e19cb311c78b48731b9724fbcf34e4c4cec6242c0825e78b34dabdbe6389f64736f6c63430008070033",
  "immutableReferences": {},
  "source": "//SPDX-License-Identifier: MIT\n\npragma solidity >=0.7.0 <0.9.0;\n\nimport \"./SupplyChainStorage.sol\";\nimport \"./Ownable.sol\";\n\ncontract SupplyChainUser is Ownable {\n    event UserUpdate(\n        address indexed user,\n        string name,\n        string contactNo,\n        string role,\n        bool isActive,\n        string profileHash\n    );\n    event UserRoleUpdate(address indexed user, string role);\n\n    SupplyChainStorage supplyChainStorage;\n\n    constructor(address _supplyChainAddress) {\n        supplyChainStorage = SupplyChainStorage(_supplyChainAddress);\n    }\n\n    function updateUser(\n        string memory _name,\n        string memory _contactNo,\n        string memory _role,\n        bool _isActive,\n        string memory _profileHash\n    ) public returns (bool) {\n        require(msg.sender != address(0));\n\n        bool status = supplyChainStorage.setUser(\n            msg.sender,\n            _name,\n            _contactNo,\n            _role,\n            _isActive,\n            _profileHash\n        );\n\n        emit UserUpdate(\n            msg.sender,\n            _name,\n            _contactNo,\n            _role,\n            _isActive,\n            _profileHash\n        );\n        emit UserRoleUpdate(msg.sender, _role);\n\n        return status;\n    }\n\n    function updateUserForAdmin(\n        address _userAddress,\n        string memory _name,\n        string memory _contactNo,\n        string memory _role,\n        bool _isActive,\n        string memory _profileHash\n    ) public onlyOwner returns (bool) {\n        require(_userAddress != address(0));\n\n        bool status = supplyChainStorage.setUser(\n            _userAddress,\n            _name,\n            _contactNo,\n            _role,\n            _isActive,\n            _profileHash\n        );\n\n        emit UserUpdate(\n            _userAddress,\n            _name,\n            _contactNo,\n            _role,\n            _isActive,\n            _profileHash\n        );\n        emit UserRoleUpdate(_userAddress, _role);\n\n        return status;\n    }\n\n    function getUser(address _userAddress)\n        public\n        returns (\n            string memory name,\n            string memory contactNo,\n            string memory role,\n            bool isActive,\n            string memory profileHash\n        )\n    {\n        require(_userAddress != address(0));\n\n        (name, contactNo, role, isActive, profileHash) = supplyChainStorage\n            .getUser(_userAddress);\n\n        return (name, contactNo, role, isActive, profileHash);\n    }\n}\n",
  "sourcePath": "/home/nathalia/TESIS/coffee-supply-chain-tracking-system-ethereum/contracts/SupplyChainUser.sol",
  "compiler": {
    "name": "solc",
    "version": "0.8.7+commit.e28d00a7.Emscripten.clang"
  },
  "schemaVersion": "3.4.4",
  "updatedAt": "2022-03-07T23:46:03.990Z",
  "networkType": "ethereum",
  "devdoc": {
    "kind": "dev",
    "methods": {},
    "version": 1
  },
  "userdoc": {
    "kind": "user",
    "methods": {},
    "version": 1
  }
}