{
  "contractName": "SupplyChainUser",
  "abi": [
    {
      "inputs": [
        {
          "internalType": "address",
          "name": "_supplyChainAddress",
          "type": "address"
        }
      ],
      "stateMutability": "nonpayable",
      "type": "constructor"
    },
    {
      "anonymous": false,
      "inputs": [
        {
          "indexed": true,
          "internalType": "address",
          "name": "previousOwner",
          "type": "address"
        }
      ],
      "name": "OwnershipRenounced",
      "type": "event"
    },
    {
      "anonymous": false,
      "inputs": [
        {
          "indexed": true,
          "internalType": "address",
          "name": "previusOwner",
          "type": "address"
        },
        {
          "indexed": true,
          "internalType": "address",
          "name": "newOwner",
          "type": "address"
        }
      ],
      "name": "OwnershipTransferred",
      "type": "event"
    },
    {
      "anonymous": false,
      "inputs": [
        {
          "indexed": true,
          "internalType": "address",
          "name": "user",
          "type": "address"
        },
        {
          "indexed": false,
          "internalType": "string",
          "name": "role",
          "type": "string"
        }
      ],
      "name": "UserRoleUpdate",
      "type": "event"
    },
    {
      "anonymous": false,
      "inputs": [
        {
          "indexed": true,
          "internalType": "address",
          "name": "user",
          "type": "address"
        },
        {
          "indexed": false,
          "internalType": "string",
          "name": "name",
          "type": "string"
        },
        {
          "indexed": false,
          "internalType": "string",
          "name": "contactNo",
          "type": "string"
        },
        {
          "indexed": false,
          "internalType": "string",
          "name": "role",
          "type": "string"
        },
        {
          "indexed": false,
          "internalType": "bool",
          "name": "isActive",
          "type": "bool"
        },
        {
          "indexed": false,
          "internalType": "string",
          "name": "profileHash",
          "type": "string"
        }
      ],
      "name": "UserUpdate",
      "type": "event"
    },
    {
      "inputs": [],
      "name": "owner",
      "outputs": [
        {
          "internalType": "address",
          "name": "",
          "type": "address"
        }
      ],
      "stateMutability": "view",
      "type": "function",
      "constant": true
    },
    {
      "inputs": [],
      "name": "renounceOwnership",
      "outputs": [],
      "stateMutability": "nonpayable",
      "type": "function"
    },
    {
      "inputs": [
        {
          "internalType": "address",
          "name": "newOwner",
          "type": "address"
        }
      ],
      "name": "transferOwnership",
      "outputs": [],
      "stateMutability": "nonpayable",
      "type": "function"
    },
    {
      "inputs": [
        {
          "internalType": "string",
          "name": "_name",
          "type": "string"
        },
        {
          "internalType": "string",
          "name": "_contactNo",
          "type": "string"
        },
        {
          "internalType": "string",
          "name": "_role",
          "type": "string"
        },
        {
          "internalType": "bool",
          "name": "_isActive",
          "type": "bool"
        },
        {
          "internalType": "string",
          "name": "_profileHash",
          "type": "string"
        }
      ],
      "name": "updateUser",
      "outputs": [
        {
          "internalType": "bool",
          "name": "",
          "type": "bool"
        }
      ],
      "stateMutability": "nonpayable",
      "type": "function"
    },
    {
      "inputs": [
        {
          "internalType": "address",
          "name": "_userAddress",
          "type": "address"
        },
        {
          "internalType": "string",
          "name": "_name",
          "type": "string"
        },
        {
          "internalType": "string",
          "name": "_contactNo",
          "type": "string"
        },
        {
          "internalType": "string",
          "name": "_role",
          "type": "string"
        },
        {
          "internalType": "bool",
          "name": "_isActive",
          "type": "bool"
        },
        {
          "internalType": "string",
          "name": "_profileHash",
          "type": "string"
        }
      ],
      "name": "updateUserForAdmin",
      "outputs": [
        {
          "internalType": "bool",
          "name": "",
          "type": "bool"
        }
      ],
      "stateMutability": "nonpayable",
      "type": "function"
    },
    {
      "inputs": [
        {
          "internalType": "address",
          "name": "_userAddress",
          "type": "address"
        }
      ],
      "name": "getUser",
      "outputs": [
        {
          "internalType": "string",
          "name": "name",
          "type": "string"
        },
        {
          "internalType": "string",
          "name": "contactNo",
          "type": "string"
        },
        {
          "internalType": "string",
          "name": "role",
          "type": "string"
        },
        {
          "internalType": "bool",
          "name": "isActive",
          "type": "bool"
        },
        {
          "internalType": "string",
          "name": "profileHash",
          "type": "string"
        }
      ],
      "stateMutability": "nonpayable",
      "type": "function"
    }
  ],
  "bytecode": "0x60806040523480156200001157600080fd5b506040516200119838038062001198833981810160405281019062000037919062000129565b336000806101000a81548173ffffffffffffffffffffffffffffffffffffffff021916908373ffffffffffffffffffffffffffffffffffffffff16021790555080600160006101000a81548173ffffffffffffffffffffffffffffffffffffffff021916908373ffffffffffffffffffffffffffffffffffffffff160217905550506200015b565b600080fd5b600073ffffffffffffffffffffffffffffffffffffffff82169050919050565b6000620000f182620000c4565b9050919050565b6200010381620000e4565b81146200010f57600080fd5b50565b6000815190506200012381620000f8565b92915050565b600060208284031215620001425762000141620000bf565b5b6000620001528482850162000112565b91505092915050565b61102d806200016b6000396000f3fe608060405234801561001057600080fd5b50600436106100625760003560e01c80631e7d76aa146100675780636f77926b14610097578063715018a6146100cb5780638da5cb5b146100d5578063f2fde38b146100f3578063f5c8dee91461010f575b600080fd5b610081600480360381019061007c9190610a5b565b61013f565b60405161008e9190610b67565b60405180910390f35b6100b160048036038101906100ac9190610b82565b610341565b6040516100c2959493929190610c37565b60405180910390f35b6100d3610453565b005b6100dd610551565b6040516100ea9190610cb5565b60405180910390f35b61010d60048036038101906101089190610b82565b610575565b005b61012960048036038101906101249190610cd0565b6106c4565b6040516101369190610b67565b60405180910390f35b60008060009054906101000a900473ffffffffffffffffffffffffffffffffffffffff1673ffffffffffffffffffffffffffffffffffffffff163373ffffffffffffffffffffffffffffffffffffffff161461019a57600080fd5b600073ffffffffffffffffffffffffffffffffffffffff168773ffffffffffffffffffffffffffffffffffffffff1614156101d457600080fd5b6000600160009054906101000a900473ffffffffffffffffffffffffffffffffffffffff1673ffffffffffffffffffffffffffffffffffffffff1663fb7a20af8989898989896040518763ffffffff1660e01b815260040161023b96959493929190610dbb565b602060405180830381600087803b15801561025557600080fd5b505af1158015610269573d6000803e3d6000fd5b505050506040513d601f19601f8201168201806040525081019061028d9190610e4d565b90508773ffffffffffffffffffffffffffffffffffffffff167f913673700610456ef7bb668e20badb980d1e4df0ba5bfbdbb6e7bfb0ddbcc6c988888888886040516102dd959493929190610c37565b60405180910390a28773ffffffffffffffffffffffffffffffffffffffff167f3b419384c2ac88d62e2daac72f8c6e6398c474d91c63e814a307e3641762c8de8660405161032b9190610e7a565b60405180910390a2809150509695505050505050565b606080606060006060600073ffffffffffffffffffffffffffffffffffffffff168673ffffffffffffffffffffffffffffffffffffffff16141561038457600080fd5b600160009054906101000a900473ffffffffffffffffffffffffffffffffffffffff1673ffffffffffffffffffffffffffffffffffffffff16636f77926b876040518263ffffffff1660e01b81526004016103df9190610cb5565b600060405180830381600087803b1580156103f957600080fd5b505af115801561040d573d6000803e3d6000fd5b505050506040513d6000823e3d601f19601f820116820180604052508101906104369190610f0c565b809550819650829750839850849950505050505091939590929450565b60008054906101000a900473ffffffffffffffffffffffffffffffffffffffff1673ffffffffffffffffffffffffffffffffffffffff163373ffffffffffffffffffffffffffffffffffffffff16146104ab57600080fd5b60008054906101000a900473ffffffffffffffffffffffffffffffffffffffff1673ffffffffffffffffffffffffffffffffffffffff167ff8df31144d9c2f0f6b59d69b8b98abd5459d07f2742c4df920b25aae33c6482060405160405180910390a260008060006101000a81548173ffffffffffffffffffffffffffffffffffffffff021916908373ffffffffffffffffffffffffffffffffffffffff160217905550565b60008054906101000a900473ffffffffffffffffffffffffffffffffffffffff1681565b60008054906101000a900473ffffffffffffffffffffffffffffffffffffffff1673ffffffffffffffffffffffffffffffffffffffff163373ffffffffffffffffffffffffffffffffffffffff16146105cd57600080fd5b600073ffffffffffffffffffffffffffffffffffffffff168173ffffffffffffffffffffffffffffffffffffffff16141561060757600080fd5b8073ffffffffffffffffffffffffffffffffffffffff1660008054906101000a900473ffffffffffffffffffffffffffffffffffffffff1673ffffffffffffffffffffffffffffffffffffffff167f8be0079c531659141344cd1fd0a4f28419497f9722a3daafe3b4186f6b6457e060405160405180910390a3806000806101000a81548173ffffffffffffffffffffffffffffffffffffffff021916908373ffffffffffffffffffffffffffffffffffffffff16021790555050565b60008073ffffffffffffffffffffffffffffffffffffffff163373ffffffffffffffffffffffffffffffffffffffff1614156106ff57600080fd5b6000600160009054906101000a900473ffffffffffffffffffffffffffffffffffffffff1673ffffffffffffffffffffffffffffffffffffffff1663fb7a20af3389898989896040518763ffffffff1660e01b815260040161076696959493929190610dbb565b602060405180830381600087803b15801561078057600080fd5b505af1158015610794573d6000803e3d6000fd5b505050506040513d601f19601f820116820180604052508101906107b89190610e4d565b90503373ffffffffffffffffffffffffffffffffffffffff167f913673700610456ef7bb668e20badb980d1e4df0ba5bfbdbb6e7bfb0ddbcc6c98888888888604051610808959493929190610c37565b60405180910390a23373ffffffffffffffffffffffffffffffffffffffff167f3b419384c2ac88d62e2daac72f8c6e6398c474d91c63e814a307e3641762c8de866040516108569190610e7a565b60405180910390a28091505095945050505050565b6000604051905090565b600080fd5b600080fd5b600073ffffffffffffffffffffffffffffffffffffffff82169050919050565b60006108aa8261087f565b9050919050565b6108ba8161089f565b81146108c557600080fd5b50565b6000813590506108d7816108b1565b92915050565b600080fd5b600080fd5b6000601f19601f8301169050919050565b7f4e487b7100000000000000000000000000000000000000000000000000000000600052604160045260246000fd5b610930826108e7565b810181811067ffffffffffffffff8211171561094f5761094e6108f8565b5b80604052505050565b600061096261086b565b905061096e8282610927565b919050565b600067ffffffffffffffff82111561098e5761098d6108f8565b5b610997826108e7565b9050602081019050919050565b82818337600083830152505050565b60006109c66109c184610973565b610958565b9050828152602081018484840111156109e2576109e16108e2565b5b6109ed8482856109a4565b509392505050565b600082601f830112610a0a57610a096108dd565b5b8135610a1a8482602086016109b3565b91505092915050565b60008115159050919050565b610a3881610a23565b8114610a4357600080fd5b50565b600081359050610a5581610a2f565b92915050565b60008060008060008060c08789031215610a7857610a77610875565b5b6000610a8689828a016108c8565b965050602087013567ffffffffffffffff811115610aa757610aa661087a565b5b610ab389828a016109f5565b955050604087013567ffffffffffffffff811115610ad457610ad361087a565b5b610ae089828a016109f5565b945050606087013567ffffffffffffffff811115610b0157610b0061087a565b5b610b0d89828a016109f5565b9350506080610b1e89828a01610a46565b92505060a087013567ffffffffffffffff811115610b3f57610b3e61087a565b5b610b4b89828a016109f5565b9150509295509295509295565b610b6181610a23565b82525050565b6000602082019050610b7c6000830184610b58565b92915050565b600060208284031215610b9857610b97610875565b5b6000610ba6848285016108c8565b91505092915050565b600081519050919050565b600082825260208201905092915050565b60005b83811015610be9578082015181840152602081019050610bce565b83811115610bf8576000848401525b50505050565b6000610c0982610baf565b610c138185610bba565b9350610c23818560208601610bcb565b610c2c816108e7565b840191505092915050565b600060a0820190508181036000830152610c518188610bfe565b90508181036020830152610c658187610bfe565b90508181036040830152610c798186610bfe565b9050610c886060830185610b58565b8181036080830152610c9a8184610bfe565b90509695505050505050565b610caf8161089f565b82525050565b6000602082019050610cca6000830184610ca6565b92915050565b600080600080600060a08688031215610cec57610ceb610875565b5b600086013567ffffffffffffffff811115610d0a57610d0961087a565b5b610d16888289016109f5565b955050602086013567ffffffffffffffff811115610d3757610d3661087a565b5b610d43888289016109f5565b945050604086013567ffffffffffffffff811115610d6457610d6361087a565b5b610d70888289016109f5565b9350506060610d8188828901610a46565b925050608086013567ffffffffffffffff811115610da257610da161087a565b5b610dae888289016109f5565b9150509295509295909350565b600060c082019050610dd06000830189610ca6565b8181036020830152610de28188610bfe565b90508181036040830152610df68187610bfe565b90508181036060830152610e0a8186610bfe565b9050610e196080830185610b58565b81810360a0830152610e2b8184610bfe565b9050979650505050505050565b600081519050610e4781610a2f565b92915050565b600060208284031215610e6357610e62610875565b5b6000610e7184828501610e38565b91505092915050565b60006020820190508181036000830152610e948184610bfe565b905092915050565b6000610eaf610eaa84610973565b610958565b905082815260208101848484011115610ecb57610eca6108e2565b5b610ed6848285610bcb565b509392505050565b600082601f830112610ef357610ef26108dd565b5b8151610f03848260208601610e9c565b91505092915050565b600080600080600060a08688031215610f2857610f27610875565b5b600086015167ffffffffffffffff811115610f4657610f4561087a565b5b610f5288828901610ede565b955050602086015167ffffffffffffffff811115610f7357610f7261087a565b5b610f7f88828901610ede565b945050604086015167ffffffffffffffff811115610fa057610f9f61087a565b5b610fac88828901610ede565b9350506060610fbd88828901610e38565b925050608086015167ffffffffffffffff811115610fde57610fdd61087a565b5b610fea88828901610ede565b915050929550929590935056fea2646970667358221220189dc8ab0c44399a7520607031c6ceea35e8463daca24dbafc5c832d611c386e64736f6c63430008090033",
  "immutableReferences": {},
  "source": "//SPDX-License-Identifier: MIT\n\npragma solidity ^0.8.9;\n\nimport \"./SupplyChainStorage.sol\";\nimport \"./Ownable.sol\";\n\ncontract SupplyChainUser is Ownable {\n    event UserUpdate(\n        address indexed user,\n        string name,\n        string contactNo,\n        string role,\n        bool isActive,\n        string profileHash\n    );\n    event UserRoleUpdate(address indexed user, string role);\n\n    SupplyChainStorage supplyChainStorage;\n\n    constructor(address _supplyChainAddress) {\n        supplyChainStorage = SupplyChainStorage(_supplyChainAddress);\n    }\n\n    function updateUser(\n        string memory _name,\n        string memory _contactNo,\n        string memory _role,\n        bool _isActive,\n        string memory _profileHash\n    ) public returns (bool) {\n        require(msg.sender != address(0));\n\n        bool status = supplyChainStorage.setUser(\n            msg.sender,\n            _name,\n            _contactNo,\n            _role,\n            _isActive,\n            _profileHash\n        );\n\n        emit UserUpdate(\n            msg.sender,\n            _name,\n            _contactNo,\n            _role,\n            _isActive,\n            _profileHash\n        );\n        emit UserRoleUpdate(msg.sender, _role);\n\n        return status;\n    }\n\n    function updateUserForAdmin(\n        address _userAddress,\n        string memory _name,\n        string memory _contactNo,\n        string memory _role,\n        bool _isActive,\n        string memory _profileHash\n    ) public onlyOwner returns (bool) {\n        require(_userAddress != address(0));\n\n        bool status = supplyChainStorage.setUser(\n            _userAddress,\n            _name,\n            _contactNo,\n            _role,\n            _isActive,\n            _profileHash\n        );\n\n        emit UserUpdate(\n            _userAddress,\n            _name,\n            _contactNo,\n            _role,\n            _isActive,\n            _profileHash\n        );\n        emit UserRoleUpdate(_userAddress, _role);\n\n        return status;\n    }\n\n    function getUser(address _userAddress)\n        public\n        returns (\n            string memory name,\n            string memory contactNo,\n            string memory role,\n            bool isActive,\n            string memory profileHash\n        )\n    {\n        require(_userAddress != address(0));\n\n        (name, contactNo, role, isActive, profileHash) = supplyChainStorage\n            .getUser(_userAddress);\n\n        return (name, contactNo, role, isActive, profileHash);\n    }\n}\n",
  "sourcePath": "/home/nathalia/TESIS/coffee-supply-chain-tracking-system-ethereum/contracts/SupplyChainUser.sol",
  "compiler": {
    "name": "solc",
    "version": "0.8.9+commit.e5eed63a.Emscripten.clang"
  },
  "schemaVersion": "3.4.4",
  "updatedAt": "2022-04-07T07:18:23.052Z",
  "networkType": "ethereum",
  "devdoc": {
    "kind": "dev",
    "methods": {},
    "version": 1
  },
  "userdoc": {
    "kind": "user",
    "methods": {},
    "version": 1
  }
}